{"contracts/Sudoku.sol":{"Sudoku":{"abi":[{"inputs":[{"internalType":"address","name":"_verifierAddr","type":"address"}],"stateMutability":"nonpayable","type":"constructor"},{"inputs":[{"internalType":"string","name":"stringTime","type":"string"}],"name":"generateSudokuBoard","outputs":[{"internalType":"uint8[9][9]","name":"","type":"uint8[9][9]"}],"stateMutability":"view","type":"function"},{"inputs":[],"name":"verifierAddr","outputs":[{"internalType":"address","name":"","type":"address"}],"stateMutability":"view","type":"function"},{"inputs":[{"internalType":"uint256[2]","name":"a","type":"uint256[2]"},{"internalType":"uint256[2][2]","name":"b","type":"uint256[2][2]"},{"internalType":"uint256[2]","name":"c","type":"uint256[2]"},{"internalType":"uint256[81]","name":"input","type":"uint256[81]"}],"name":"verifyProof","outputs":[{"internalType":"bool","name":"","type":"bool"}],"stateMutability":"view","type":"function"},{"inputs":[{"internalType":"uint256[2]","name":"a","type":"uint256[2]"},{"internalType":"uint256[2][2]","name":"b","type":"uint256[2][2]"},{"internalType":"uint256[2]","name":"c","type":"uint256[2]"},{"internalType":"uint256[81]","name":"input","type":"uint256[81]"}],"name":"verifySudoku","outputs":[{"internalType":"bool","name":"","type":"bool"}],"stateMutability":"view","type":"function"}],"evm":{"bytecode":{"linkReferences":{},"object":"6001610200818152600261022081905260076102408190526005610260819052600861028081905260046102a081905260066102c081905260096102e0819052600361030081905260e09889526103208581526103408790526103608490526103808290526103a08890526103c08390526103e08b9052610400899052610420859052610100526104408181526104608590526104808390526104a08490526104c08990526104e08b9052610500869052610520889052610540879052610120526105608481526105808890526105a08b90526105c08390526105e0879052610600869052610620899052610640829052610660849052610140526106808881526106a08490526106c08690526106e08890526107008b9052610720829052610740879052610760859052610780839052610160526107a08281526107c08290526107e08790526108008590526108208490526108408990526108608890526108808b90526108a0869052610180526108c08681526108e08690526109008290526109208990526109408390526109608890526109808590526109a08490526109c08b90526101a0526109e0878152610a008b9052610a20859052610a40869052610a60829052610a80849052610aa0839052610ac0879052610ae08990526101c052610b00838152610b20839052610b40899052610b608b9052610b80859052610ba0879052610bc08290526000610be0819052610c008990526101e0919091526080998a52610d40818152610d608a9052610d80899052610da0889052610dc0829052610de0869052610e00829052610e20829052610e40829052610c20908152610e60828152610e80839052610ea0839052610ec0849052610ee08a9052610f00839052610f20839052610f40839052610f60879052610c4052610f80838152610fa0839052610fc0839052610fe0839052611000839052611020839052611040889052611060839052611080839052610c60526110a08681526110c08a90526110e08390526111008590526111208990526111408890526111608390526111808490526111a0869052610c80526111c08a81526111e08690526112008890526112208a90526112408d90526112608390526112808390526112a08790526112c0859052610ca0526112e08281526113008390526113208390526113408390526113608390526113808b90526113a08390526113c08d90526113e0889052610cc0526114008281526114208890526114408490526114608390526114808590526114a08390526114c08790526114e0839052611500839052610ce0526115208981526115408d90526115608390526115808390526115a08390526115c08390526115e08590526116008390526116208b9052610d00526116408281526116608390526116808390526116a08390526116c08390526116e08990526117008390526117208390526117408a9052610d205260a0526118808181526118a08290526118c08290526118e08290526119008290526119208590526119408290526119608290526119808290526117609081526119a08281526119c08390526119e08a9052611a008b9052611a20839052611a40839052611a60889052611a80839052611aa083905261178052611ac0848152611ae0839052611b00869052611b20889052611b40839052611b60839052611b80839052611ba08d9052611bc08390526117a052611be0838152611c00839052611c20839052611c408a9052611c60839052611c80839052611ca0839052611cc08b9052611ce08590526117c052611d00828152611d20839052611d40839052611d60839052611d80839052611da0839052611dc0839052611de0839052611e008390526117e052611e20868152611e40839052611e60839052611e80899052611ea0839052611ec0839052611ee0839052611f008a9052611f2083905261180052611f40948552611f60889052611f80829052611fa08c9052611fc0829052611fe0829052612000829052612020829052612040829052611820949094526120609586526120808190526120a08b90526120c08190526120e096909652612100869052612120819052612140869052612160869052611840949094526122a06040526121809586526121a0526121c0959095526121e083905261220083905261222083905261224083905261226092909252612280919091526118609190915260c09190915262000665929190620006bc565b503480156200067357600080fd5b506040516200124c3803806200124c833981016040819052620006969162000852565b600080546001600160a01b0319166001600160a01b039290921691909117905562000882565b601b83019183908215620006fc579160200282015b82811115620006fc578251620006eb90839060096200070e565b5091602001919060090190620006d1565b506200070a9291506200075b565b5090565b82600981019282156200074d579160200282015b828111156200074d5782516200073c90839060096200077c565b509160200191906001019062000722565b506200070a92915062000812565b808211156200070a57600062000772828262000828565b506009016200075b565b600183019183908215620008045791602002820160005b83821115620007d357835183826101000a81548160ff021916908360ff160217905550926020019260010160208160000104928301926001030262000793565b8015620008025782816101000a81549060ff0219169055600101602081600001049283019260010302620007d3565b505b506200070a9291506200083c565b808211156200070a576000815560010162000812565b506200083990600981019062000812565b50565b808211156200070a576000815560010162000812565b60006020828403121562000864578081fd5b81516001600160a01b03811681146200087b578182fd5b9392505050565b6109ba80620008926000396000f3fe608060405234801561001057600080fd5b506004361061004c5760003560e01c80633e7c838f14610051578063663ea2e214610079578063c54d8fd3146100a4578063e235ad2a146100c4575b600080fd5b61006461005f366004610565565b6100d7565b60405190151581526020015b60405180910390f35b60005461008c906001600160a01b031681565b6040516001600160a01b039091168152602001610070565b6100b76100b2366004610676565b61018a565b60405161007091906107b0565b6100646100d2366004610565565b6101a1565b60006100e282610231565b6101335760405162461bcd60e51b815260206004820152601960248201527f5468697320626f61726420646f6573206e6f742065786973740000000000000060448201526064015b60405180910390fd5b61013f858585856101a1565b61017f5760405162461bcd60e51b815260206004820152601160248201527046696c65642070726f6f6620636865636b60781b604482015260640161012a565b506001949350505050565b6101926104c3565b61019b826103d2565b92915050565b6000805460405163711ad69560e11b81526001600160a01b039091169063e235ad2a906101d8908890889088908890600401610815565b60206040518083038186803b1580156101f057600080fd5b505afa158015610204573d6000803e3d6000fd5b505050506040513d601f19601f82011682018060405250810190610228919061064f565b95945050505050565b60006001815b60038110156103cb576001915060005b6001826003811061026857634e487b7160e01b600052603260045260246000fd5b505060098110156103a85760005b6001836003811061029757634e487b7160e01b600052603260045260246000fd5b6009020182600981106102ba57634e487b7160e01b600052603260045260246000fd5b5050600981101561039757600183600381106102e657634e487b7160e01b600052603260045260246000fd5b60090201826009811061030957634e487b7160e01b600052603260045260246000fd5b01816009811061032957634e487b7160e01b600052603260045260246000fd5b602081049091015460ff601f9092166101000a900416868261034c8560096108fe565b61035691906108e6565b6051811061037457634e487b7160e01b600052603260045260246000fd5b6020020151146103875760009350610397565b6103908161091d565b9050610276565b506103a18161091d565b9050610247565b50600182151514156103bb575092915050565b6103c48161091d565b9050610237565b5092915050565b6103da6104c3565b60006003444233866040516020016103f59493929190610749565b6040516020818303038152906040528051906020012060001c6104189190610938565b90506001816003811061043b57634e487b7160e01b600052603260045260246000fd5b60408051610120810190915291600991820201906000835b828210156104b757604080516101208101918290529085840190600990826000855b825461010083900a900460ff16815260206001928301818104948501949093039092029101808411610475579050505050505081526020019060010190610453565b50505050915050919050565b6040518061012001604052806009905b6104db6104f1565b8152602001906001900390816104d35790505090565b6040518061012001604052806009906020820280368337509192915050565b600082601f830112610520578081fd5b610528610899565b808385604086011115610539578384fd5b835b600281101561055a57813584526020938401939091019060010161053b565b509095945050505050565b600080600080610b2080868803121561057c578485fd5b6105868787610510565b9450604087605f880112610598578485fd5b6105a0610899565b8082890160c08a018b8111156105b4578889fd5b885b60028110156105dd576105c98d84610510565b8552602090940193918501916001016105b6565b508298506105eb8c82610510565b975050505050508661011f870112610601578182fd5b6106096108c2565b80610100880189848a01111561061d578485fd5b8493505b605184101561064157803583526001939093019260209283019201610621565b509598949750929550505050565b600060208284031215610660578081fd5b8151801515811461066f578182fd5b9392505050565b600060208284031215610687578081fd5b813567ffffffffffffffff8082111561069e578283fd5b818401915084601f8301126106b1578283fd5b8135818111156106c3576106c361096e565b604051601f8201601f19908116603f011681019083821181831017156106eb576106eb61096e565b81604052828152876020848701011115610703578586fd5b826020860160208301379182016020019490945295945050505050565b8060005b6002811015610743578151845260209384019390910190600101610724565b50505050565b8481526000602085818401526bffffffffffffffffffffffff198560601b1660408401528351825b8181101561078d57858101830151858201605401528201610771565b8181111561079e5783605483870101525b50929092016054019695505050505050565b610a20810181836000805b60098082106107ca575061080b565b835185845b838110156107f057825160ff168252602092830192909101906001016107cf565b505050610120949094019350602092909201916001016107bb565b5050505092915050565b610b2081016108248287610720565b60408083018660005b600281101561085457610841838351610720565b918301916020919091019060010161082d565b5050505061086560c0830185610720565b61010082018360005b605181101561088d57815183526020928301929091019060010161086e565b50505095945050505050565b6040805190810167ffffffffffffffff811182821017156108bc576108bc61096e565b60405290565b604051610a20810167ffffffffffffffff811182821017156108bc576108bc61096e565b600082198211156108f9576108f9610958565b500190565b600081600019048311821515161561091857610918610958565b500290565b600060001982141561093157610931610958565b5060010190565b60008261095357634e487b7160e01b81526012600452602481fd5b500690565b634e487b7160e01b600052601160045260246000fd5b634e487b7160e01b600052604160045260246000fdfea264697066735822122016cbd1197a7acd39b24353afc2f32ed89ad9cc7924f3171d9b9e0878f643f85164736f6c63430008040033","opcodes":"PUSH1 0x1 PUSH2 0x200 DUP2 DUP2 MSTORE PUSH1 0x2 PUSH2 0x220 DUP2 SWAP1 MSTORE PUSH1 0x7 PUSH2 0x240 DUP2 SWAP1 MSTORE PUSH1 0x5 PUSH2 0x260 DUP2 SWAP1 MSTORE PUSH1 0x8 PUSH2 0x280 DUP2 SWAP1 MSTORE PUSH1 0x4 PUSH2 0x2A0 DUP2 SWAP1 MSTORE PUSH1 0x6 PUSH2 0x2C0 DUP2 SWAP1 MSTORE PUSH1 0x9 PUSH2 0x2E0 DUP2 SWAP1 MSTORE PUSH1 0x3 PUSH2 0x300 DUP2 SWAP1 MSTORE PUSH1 0xE0 SWAP9 DUP10 MSTORE PUSH2 0x320 DUP6 DUP2 MSTORE PUSH2 0x340 DUP8 SWAP1 MSTORE PUSH2 0x360 DUP5 SWAP1 MSTORE PUSH2 0x380 DUP3 SWAP1 MSTORE PUSH2 0x3A0 DUP9 SWAP1 MSTORE PUSH2 0x3C0 DUP4 SWAP1 MSTORE PUSH2 0x3E0 DUP12 SWAP1 MSTORE PUSH2 0x400 DUP10 SWAP1 MSTORE PUSH2 0x420 DUP6 SWAP1 MSTORE PUSH2 0x100 MSTORE PUSH2 0x440 DUP2 DUP2 MSTORE PUSH2 0x460 DUP6 SWAP1 MSTORE PUSH2 0x480 DUP4 SWAP1 MSTORE PUSH2 0x4A0 DUP5 SWAP1 MSTORE PUSH2 0x4C0 DUP10 SWAP1 MSTORE PUSH2 0x4E0 DUP12 SWAP1 MSTORE PUSH2 0x500 DUP7 SWAP1 MSTORE PUSH2 0x520 DUP9 SWAP1 MSTORE PUSH2 0x540 DUP8 SWAP1 MSTORE PUSH2 0x120 MSTORE PUSH2 0x560 DUP5 DUP2 MSTORE PUSH2 0x580 DUP9 SWAP1 MSTORE PUSH2 0x5A0 DUP12 SWAP1 MSTORE PUSH2 0x5C0 DUP4 SWAP1 MSTORE PUSH2 0x5E0 DUP8 SWAP1 MSTORE PUSH2 0x600 DUP7 SWAP1 MSTORE PUSH2 0x620 DUP10 SWAP1 MSTORE PUSH2 0x640 DUP3 SWAP1 MSTORE PUSH2 0x660 DUP5 SWAP1 MSTORE PUSH2 0x140 MSTORE PUSH2 0x680 DUP9 DUP2 MSTORE PUSH2 0x6A0 DUP5 SWAP1 MSTORE PUSH2 0x6C0 DUP7 SWAP1 MSTORE PUSH2 0x6E0 DUP9 SWAP1 MSTORE PUSH2 0x700 DUP12 SWAP1 MSTORE PUSH2 0x720 DUP3 SWAP1 MSTORE PUSH2 0x740 DUP8 SWAP1 MSTORE PUSH2 0x760 DUP6 SWAP1 MSTORE PUSH2 0x780 DUP4 SWAP1 MSTORE PUSH2 0x160 MSTORE PUSH2 0x7A0 DUP3 DUP2 MSTORE PUSH2 0x7C0 DUP3 SWAP1 MSTORE PUSH2 0x7E0 DUP8 SWAP1 MSTORE PUSH2 0x800 DUP6 SWAP1 MSTORE PUSH2 0x820 DUP5 SWAP1 MSTORE PUSH2 0x840 DUP10 SWAP1 MSTORE PUSH2 0x860 DUP9 SWAP1 MSTORE PUSH2 0x880 DUP12 SWAP1 MSTORE PUSH2 0x8A0 DUP7 SWAP1 MSTORE PUSH2 0x180 MSTORE PUSH2 0x8C0 DUP7 DUP2 MSTORE PUSH2 0x8E0 DUP7 SWAP1 MSTORE PUSH2 0x900 DUP3 SWAP1 MSTORE PUSH2 0x920 DUP10 SWAP1 MSTORE PUSH2 0x940 DUP4 SWAP1 MSTORE PUSH2 0x960 DUP9 SWAP1 MSTORE PUSH2 0x980 DUP6 SWAP1 MSTORE PUSH2 0x9A0 DUP5 SWAP1 MSTORE PUSH2 0x9C0 DUP12 SWAP1 MSTORE PUSH2 0x1A0 MSTORE PUSH2 0x9E0 DUP8 DUP2 MSTORE PUSH2 0xA00 DUP12 SWAP1 MSTORE PUSH2 0xA20 DUP6 SWAP1 MSTORE PUSH2 0xA40 DUP7 SWAP1 MSTORE PUSH2 0xA60 DUP3 SWAP1 MSTORE PUSH2 0xA80 DUP5 SWAP1 MSTORE PUSH2 0xAA0 DUP4 SWAP1 MSTORE PUSH2 0xAC0 DUP8 SWAP1 MSTORE PUSH2 0xAE0 DUP10 SWAP1 MSTORE PUSH2 0x1C0 MSTORE PUSH2 0xB00 DUP4 DUP2 MSTORE PUSH2 0xB20 DUP4 SWAP1 MSTORE PUSH2 0xB40 DUP10 SWAP1 MSTORE PUSH2 0xB60 DUP12 SWAP1 MSTORE PUSH2 0xB80 DUP6 SWAP1 MSTORE PUSH2 0xBA0 DUP8 SWAP1 MSTORE PUSH2 0xBC0 DUP3 SWAP1 MSTORE PUSH1 0x0 PUSH2 0xBE0 DUP2 SWAP1 MSTORE PUSH2 0xC00 DUP10 SWAP1 MSTORE PUSH2 0x1E0 SWAP2 SWAP1 SWAP2 MSTORE PUSH1 0x80 SWAP10 DUP11 MSTORE PUSH2 0xD40 DUP2 DUP2 MSTORE PUSH2 0xD60 DUP11 SWAP1 MSTORE PUSH2 0xD80 DUP10 SWAP1 MSTORE PUSH2 0xDA0 DUP9 SWAP1 MSTORE PUSH2 0xDC0 DUP3 SWAP1 MSTORE PUSH2 0xDE0 DUP7 SWAP1 MSTORE PUSH2 0xE00 DUP3 SWAP1 MSTORE PUSH2 0xE20 DUP3 SWAP1 MSTORE PUSH2 0xE40 DUP3 SWAP1 MSTORE PUSH2 0xC20 SWAP1 DUP2 MSTORE PUSH2 0xE60 DUP3 DUP2 MSTORE PUSH2 0xE80 DUP4 SWAP1 MSTORE PUSH2 0xEA0 DUP4 SWAP1 MSTORE PUSH2 0xEC0 DUP5 SWAP1 MSTORE PUSH2 0xEE0 DUP11 SWAP1 MSTORE PUSH2 0xF00 DUP4 SWAP1 MSTORE PUSH2 0xF20 DUP4 SWAP1 MSTORE PUSH2 0xF40 DUP4 SWAP1 MSTORE PUSH2 0xF60 DUP8 SWAP1 MSTORE PUSH2 0xC40 MSTORE PUSH2 0xF80 DUP4 DUP2 MSTORE PUSH2 0xFA0 DUP4 SWAP1 MSTORE PUSH2 0xFC0 DUP4 SWAP1 MSTORE PUSH2 0xFE0 DUP4 SWAP1 MSTORE PUSH2 0x1000 DUP4 SWAP1 MSTORE PUSH2 0x1020 DUP4 SWAP1 MSTORE PUSH2 0x1040 DUP9 SWAP1 MSTORE PUSH2 0x1060 DUP4 SWAP1 MSTORE PUSH2 0x1080 DUP4 SWAP1 MSTORE PUSH2 0xC60 MSTORE PUSH2 0x10A0 DUP7 DUP2 MSTORE PUSH2 0x10C0 DUP11 SWAP1 MSTORE PUSH2 0x10E0 DUP4 SWAP1 MSTORE PUSH2 0x1100 DUP6 SWAP1 MSTORE PUSH2 0x1120 DUP10 SWAP1 MSTORE PUSH2 0x1140 DUP9 SWAP1 MSTORE PUSH2 0x1160 DUP4 SWAP1 MSTORE PUSH2 0x1180 DUP5 SWAP1 MSTORE PUSH2 0x11A0 DUP7 SWAP1 MSTORE PUSH2 0xC80 MSTORE PUSH2 0x11C0 DUP11 DUP2 MSTORE PUSH2 0x11E0 DUP7 SWAP1 MSTORE PUSH2 0x1200 DUP9 SWAP1 MSTORE PUSH2 0x1220 DUP11 SWAP1 MSTORE PUSH2 0x1240 DUP14 SWAP1 MSTORE PUSH2 0x1260 DUP4 SWAP1 MSTORE PUSH2 0x1280 DUP4 SWAP1 MSTORE PUSH2 0x12A0 DUP8 SWAP1 MSTORE PUSH2 0x12C0 DUP6 SWAP1 MSTORE PUSH2 0xCA0 MSTORE PUSH2 0x12E0 DUP3 DUP2 MSTORE PUSH2 0x1300 DUP4 SWAP1 MSTORE PUSH2 0x1320 DUP4 SWAP1 MSTORE PUSH2 0x1340 DUP4 SWAP1 MSTORE PUSH2 0x1360 DUP4 SWAP1 MSTORE PUSH2 0x1380 DUP12 SWAP1 MSTORE PUSH2 0x13A0 DUP4 SWAP1 MSTORE PUSH2 0x13C0 DUP14 SWAP1 MSTORE PUSH2 0x13E0 DUP9 SWAP1 MSTORE PUSH2 0xCC0 MSTORE PUSH2 0x1400 DUP3 DUP2 MSTORE PUSH2 0x1420 DUP9 SWAP1 MSTORE PUSH2 0x1440 DUP5 SWAP1 MSTORE PUSH2 0x1460 DUP4 SWAP1 MSTORE PUSH2 0x1480 DUP6 SWAP1 MSTORE PUSH2 0x14A0 DUP4 SWAP1 MSTORE PUSH2 0x14C0 DUP8 SWAP1 MSTORE PUSH2 0x14E0 DUP4 SWAP1 MSTORE PUSH2 0x1500 DUP4 SWAP1 MSTORE PUSH2 0xCE0 MSTORE PUSH2 0x1520 DUP10 DUP2 MSTORE PUSH2 0x1540 DUP14 SWAP1 MSTORE PUSH2 0x1560 DUP4 SWAP1 MSTORE PUSH2 0x1580 DUP4 SWAP1 MSTORE PUSH2 0x15A0 DUP4 SWAP1 MSTORE PUSH2 0x15C0 DUP4 SWAP1 MSTORE PUSH2 0x15E0 DUP6 SWAP1 MSTORE PUSH2 0x1600 DUP4 SWAP1 MSTORE PUSH2 0x1620 DUP12 SWAP1 MSTORE PUSH2 0xD00 MSTORE PUSH2 0x1640 DUP3 DUP2 MSTORE PUSH2 0x1660 DUP4 SWAP1 MSTORE PUSH2 0x1680 DUP4 SWAP1 MSTORE PUSH2 0x16A0 DUP4 SWAP1 MSTORE PUSH2 0x16C0 DUP4 SWAP1 MSTORE PUSH2 0x16E0 DUP10 SWAP1 MSTORE PUSH2 0x1700 DUP4 SWAP1 MSTORE PUSH2 0x1720 DUP4 SWAP1 MSTORE PUSH2 0x1740 DUP11 SWAP1 MSTORE PUSH2 0xD20 MSTORE PUSH1 0xA0 MSTORE PUSH2 0x1880 DUP2 DUP2 MSTORE PUSH2 0x18A0 DUP3 SWAP1 MSTORE PUSH2 0x18C0 DUP3 SWAP1 MSTORE PUSH2 0x18E0 DUP3 SWAP1 MSTORE PUSH2 0x1900 DUP3 SWAP1 MSTORE PUSH2 0x1920 DUP6 SWAP1 MSTORE PUSH2 0x1940 DUP3 SWAP1 MSTORE PUSH2 0x1960 DUP3 SWAP1 MSTORE PUSH2 0x1980 DUP3 SWAP1 MSTORE PUSH2 0x1760 SWAP1 DUP2 MSTORE PUSH2 0x19A0 DUP3 DUP2 MSTORE PUSH2 0x19C0 DUP4 SWAP1 MSTORE PUSH2 0x19E0 DUP11 SWAP1 MSTORE PUSH2 0x1A00 DUP12 SWAP1 MSTORE PUSH2 0x1A20 DUP4 SWAP1 MSTORE PUSH2 0x1A40 DUP4 SWAP1 MSTORE PUSH2 0x1A60 DUP9 SWAP1 MSTORE PUSH2 0x1A80 DUP4 SWAP1 MSTORE PUSH2 0x1AA0 DUP4 SWAP1 MSTORE PUSH2 0x1780 MSTORE PUSH2 0x1AC0 DUP5 DUP2 MSTORE PUSH2 0x1AE0 DUP4 SWAP1 MSTORE PUSH2 0x1B00 DUP7 SWAP1 MSTORE PUSH2 0x1B20 DUP9 SWAP1 MSTORE PUSH2 0x1B40 DUP4 SWAP1 MSTORE PUSH2 0x1B60 DUP4 SWAP1 MSTORE PUSH2 0x1B80 DUP4 SWAP1 MSTORE PUSH2 0x1BA0 DUP14 SWAP1 MSTORE PUSH2 0x1BC0 DUP4 SWAP1 MSTORE PUSH2 0x17A0 MSTORE PUSH2 0x1BE0 DUP4 DUP2 MSTORE PUSH2 0x1C00 DUP4 SWAP1 MSTORE PUSH2 0x1C20 DUP4 SWAP1 MSTORE PUSH2 0x1C40 DUP11 SWAP1 MSTORE PUSH2 0x1C60 DUP4 SWAP1 MSTORE PUSH2 0x1C80 DUP4 SWAP1 MSTORE PUSH2 0x1CA0 DUP4 SWAP1 MSTORE PUSH2 0x1CC0 DUP12 SWAP1 MSTORE PUSH2 0x1CE0 DUP6 SWAP1 MSTORE PUSH2 0x17C0 MSTORE PUSH2 0x1D00 DUP3 DUP2 MSTORE PUSH2 0x1D20 DUP4 SWAP1 MSTORE PUSH2 0x1D40 DUP4 SWAP1 MSTORE PUSH2 0x1D60 DUP4 SWAP1 MSTORE PUSH2 0x1D80 DUP4 SWAP1 MSTORE PUSH2 0x1DA0 DUP4 SWAP1 MSTORE PUSH2 0x1DC0 DUP4 SWAP1 MSTORE PUSH2 0x1DE0 DUP4 SWAP1 MSTORE PUSH2 0x1E00 DUP4 SWAP1 MSTORE PUSH2 0x17E0 MSTORE PUSH2 0x1E20 DUP7 DUP2 MSTORE PUSH2 0x1E40 DUP4 SWAP1 MSTORE PUSH2 0x1E60 DUP4 SWAP1 MSTORE PUSH2 0x1E80 DUP10 SWAP1 MSTORE PUSH2 0x1EA0 DUP4 SWAP1 MSTORE PUSH2 0x1EC0 DUP4 SWAP1 MSTORE PUSH2 0x1EE0 DUP4 SWAP1 MSTORE PUSH2 0x1F00 DUP11 SWAP1 MSTORE PUSH2 0x1F20 DUP4 SWAP1 MSTORE PUSH2 0x1800 MSTORE PUSH2 0x1F40 SWAP5 DUP6 MSTORE PUSH2 0x1F60 DUP9 SWAP1 MSTORE PUSH2 0x1F80 DUP3 SWAP1 MSTORE PUSH2 0x1FA0 DUP13 SWAP1 MSTORE PUSH2 0x1FC0 DUP3 SWAP1 MSTORE PUSH2 0x1FE0 DUP3 SWAP1 MSTORE PUSH2 0x2000 DUP3 SWAP1 MSTORE PUSH2 0x2020 DUP3 SWAP1 MSTORE PUSH2 0x2040 DUP3 SWAP1 MSTORE PUSH2 0x1820 SWAP5 SWAP1 SWAP5 MSTORE PUSH2 0x2060 SWAP6 DUP7 MSTORE PUSH2 0x2080 DUP2 SWAP1 MSTORE PUSH2 0x20A0 DUP12 SWAP1 MSTORE PUSH2 0x20C0 DUP2 SWAP1 MSTORE PUSH2 0x20E0 SWAP7 SWAP1 SWAP7 MSTORE PUSH2 0x2100 DUP7 SWAP1 MSTORE PUSH2 0x2120 DUP2 SWAP1 MSTORE PUSH2 0x2140 DUP7 SWAP1 MSTORE PUSH2 0x2160 DUP7 SWAP1 MSTORE PUSH2 0x1840 SWAP5 SWAP1 SWAP5 MSTORE PUSH2 0x22A0 PUSH1 0x40 MSTORE PUSH2 0x2180 SWAP6 DUP7 MSTORE PUSH2 0x21A0 MSTORE PUSH2 0x21C0 SWAP6 SWAP1 SWAP6 MSTORE PUSH2 0x21E0 DUP4 SWAP1 MSTORE PUSH2 0x2200 DUP4 SWAP1 MSTORE PUSH2 0x2220 DUP4 SWAP1 MSTORE PUSH2 0x2240 DUP4 SWAP1 MSTORE PUSH2 0x2260 SWAP3 SWAP1 SWAP3 MSTORE PUSH2 0x2280 SWAP2 SWAP1 SWAP2 MSTORE PUSH2 0x1860 SWAP2 SWAP1 SWAP2 MSTORE PUSH1 0xC0 SWAP2 SWAP1 SWAP2 MSTORE PUSH3 0x665 SWAP3 SWAP2 SWAP1 PUSH3 0x6BC JUMP JUMPDEST POP CALLVALUE DUP1 ISZERO PUSH3 0x673 JUMPI PUSH1 0x0 DUP1 REVERT JUMPDEST POP PUSH1 0x40 MLOAD PUSH3 0x124C CODESIZE SUB DUP1 PUSH3 0x124C DUP4 CODECOPY DUP2 ADD PUSH1 0x40 DUP2 SWAP1 MSTORE PUSH3 0x696 SWAP2 PUSH3 0x852 JUMP JUMPDEST PUSH1 0x0 DUP1 SLOAD PUSH1 0x1 PUSH1 0x1 PUSH1 0xA0 SHL SUB NOT AND PUSH1 0x1 PUSH1 0x1 PUSH1 0xA0 SHL SUB SWAP3 SWAP1 SWAP3 AND SWAP2 SWAP1 SWAP2 OR SWAP1 SSTORE PUSH3 0x882 JUMP JUMPDEST PUSH1 0x1B DUP4 ADD SWAP2 DUP4 SWAP1 DUP3 ISZERO PUSH3 0x6FC JUMPI SWAP2 PUSH1 0x20 MUL DUP3 ADD JUMPDEST DUP3 DUP2 GT ISZERO PUSH3 0x6FC JUMPI DUP3 MLOAD PUSH3 0x6EB SWAP1 DUP4 SWAP1 PUSH1 0x9 PUSH3 0x70E JUMP JUMPDEST POP SWAP2 PUSH1 0x20 ADD SWAP2 SWAP1 PUSH1 0x9 ADD SWAP1 PUSH3 0x6D1 JUMP JUMPDEST POP PUSH3 0x70A SWAP3 SWAP2 POP PUSH3 0x75B JUMP JUMPDEST POP SWAP1 JUMP JUMPDEST DUP3 PUSH1 0x9 DUP2 ADD SWAP3 DUP3 ISZERO PUSH3 0x74D JUMPI SWAP2 PUSH1 0x20 MUL DUP3 ADD JUMPDEST DUP3 DUP2 GT ISZERO PUSH3 0x74D JUMPI DUP3 MLOAD PUSH3 0x73C SWAP1 DUP4 SWAP1 PUSH1 0x9 PUSH3 0x77C JUMP JUMPDEST POP SWAP2 PUSH1 0x20 ADD SWAP2 SWAP1 PUSH1 0x1 ADD SWAP1 PUSH3 0x722 JUMP JUMPDEST POP PUSH3 0x70A SWAP3 SWAP2 POP PUSH3 0x812 JUMP JUMPDEST DUP1 DUP3 GT ISZERO PUSH3 0x70A JUMPI PUSH1 0x0 PUSH3 0x772 DUP3 DUP3 PUSH3 0x828 JUMP JUMPDEST POP PUSH1 0x9 ADD PUSH3 0x75B JUMP JUMPDEST PUSH1 0x1 DUP4 ADD SWAP2 DUP4 SWAP1 DUP3 ISZERO PUSH3 0x804 JUMPI SWAP2 PUSH1 0x20 MUL DUP3 ADD PUSH1 0x0 JUMPDEST DUP4 DUP3 GT ISZERO PUSH3 0x7D3 JUMPI DUP4 MLOAD DUP4 DUP3 PUSH2 0x100 EXP DUP2 SLOAD DUP2 PUSH1 0xFF MUL NOT AND SWAP1 DUP4 PUSH1 0xFF AND MUL OR SWAP1 SSTORE POP SWAP3 PUSH1 0x20 ADD SWAP3 PUSH1 0x1 ADD PUSH1 0x20 DUP2 PUSH1 0x0 ADD DIV SWAP3 DUP4 ADD SWAP3 PUSH1 0x1 SUB MUL PUSH3 0x793 JUMP JUMPDEST DUP1 ISZERO PUSH3 0x802 JUMPI DUP3 DUP2 PUSH2 0x100 EXP DUP2 SLOAD SWAP1 PUSH1 0xFF MUL NOT AND SWAP1 SSTORE PUSH1 0x1 ADD PUSH1 0x20 DUP2 PUSH1 0x0 ADD DIV SWAP3 DUP4 ADD SWAP3 PUSH1 0x1 SUB MUL PUSH3 0x7D3 JUMP JUMPDEST POP JUMPDEST POP PUSH3 0x70A SWAP3 SWAP2 POP PUSH3 0x83C JUMP JUMPDEST DUP1 DUP3 GT ISZERO PUSH3 0x70A JUMPI PUSH1 0x0 DUP2 SSTORE PUSH1 0x1 ADD PUSH3 0x812 JUMP JUMPDEST POP PUSH3 0x839 SWAP1 PUSH1 0x9 DUP2 ADD SWAP1 PUSH3 0x812 JUMP JUMPDEST POP JUMP JUMPDEST DUP1 DUP3 GT ISZERO PUSH3 0x70A JUMPI PUSH1 0x0 DUP2 SSTORE PUSH1 0x1 ADD PUSH3 0x812 JUMP JUMPDEST PUSH1 0x0 PUSH1 0x20 DUP3 DUP5 SUB SLT ISZERO PUSH3 0x864 JUMPI DUP1 DUP2 REVERT JUMPDEST DUP2 MLOAD PUSH1 0x1 PUSH1 0x1 PUSH1 0xA0 SHL SUB DUP2 AND DUP2 EQ PUSH3 0x87B JUMPI DUP2 DUP3 REVERT JUMPDEST SWAP4 SWAP3 POP POP POP JUMP JUMPDEST PUSH2 0x9BA DUP1 PUSH3 0x892 PUSH1 0x0 CODECOPY PUSH1 0x0 RETURN INVALID PUSH1 0x80 PUSH1 0x40 MSTORE CALLVALUE DUP1 ISZERO PUSH2 0x10 JUMPI PUSH1 0x0 DUP1 REVERT JUMPDEST POP PUSH1 0x4 CALLDATASIZE LT PUSH2 0x4C JUMPI PUSH1 0x0 CALLDATALOAD PUSH1 0xE0 SHR DUP1 PUSH4 0x3E7C838F EQ PUSH2 0x51 JUMPI DUP1 PUSH4 0x663EA2E2 EQ PUSH2 0x79 JUMPI DUP1 PUSH4 0xC54D8FD3 EQ PUSH2 0xA4 JUMPI DUP1 PUSH4 0xE235AD2A EQ PUSH2 0xC4 JUMPI JUMPDEST PUSH1 0x0 DUP1 REVERT JUMPDEST PUSH2 0x64 PUSH2 0x5F CALLDATASIZE PUSH1 0x4 PUSH2 0x565 JUMP JUMPDEST PUSH2 0xD7 JUMP JUMPDEST PUSH1 0x40 MLOAD SWAP1 ISZERO ISZERO DUP2 MSTORE PUSH1 0x20 ADD JUMPDEST PUSH1 0x40 MLOAD DUP1 SWAP2 SUB SWAP1 RETURN JUMPDEST PUSH1 0x0 SLOAD PUSH2 0x8C SWAP1 PUSH1 0x1 PUSH1 0x1 PUSH1 0xA0 SHL SUB AND DUP2 JUMP JUMPDEST PUSH1 0x40 MLOAD PUSH1 0x1 PUSH1 0x1 PUSH1 0xA0 SHL SUB SWAP1 SWAP2 AND DUP2 MSTORE PUSH1 0x20 ADD PUSH2 0x70 JUMP JUMPDEST PUSH2 0xB7 PUSH2 0xB2 CALLDATASIZE PUSH1 0x4 PUSH2 0x676 JUMP JUMPDEST PUSH2 0x18A JUMP JUMPDEST PUSH1 0x40 MLOAD PUSH2 0x70 SWAP2 SWAP1 PUSH2 0x7B0 JUMP JUMPDEST PUSH2 0x64 PUSH2 0xD2 CALLDATASIZE PUSH1 0x4 PUSH2 0x565 JUMP JUMPDEST PUSH2 0x1A1 JUMP JUMPDEST PUSH1 0x0 PUSH2 0xE2 DUP3 PUSH2 0x231 JUMP JUMPDEST PUSH2 0x133 JUMPI PUSH1 0x40 MLOAD PUSH3 0x461BCD PUSH1 0xE5 SHL DUP2 MSTORE PUSH1 0x20 PUSH1 0x4 DUP3 ADD MSTORE PUSH1 0x19 PUSH1 0x24 DUP3 ADD MSTORE PUSH32 0x5468697320626F61726420646F6573206E6F7420657869737400000000000000 PUSH1 0x44 DUP3 ADD MSTORE PUSH1 0x64 ADD JUMPDEST PUSH1 0x40 MLOAD DUP1 SWAP2 SUB SWAP1 REVERT JUMPDEST PUSH2 0x13F DUP6 DUP6 DUP6 DUP6 PUSH2 0x1A1 JUMP JUMPDEST PUSH2 0x17F JUMPI PUSH1 0x40 MLOAD PUSH3 0x461BCD PUSH1 0xE5 SHL DUP2 MSTORE PUSH1 0x20 PUSH1 0x4 DUP3 ADD MSTORE PUSH1 0x11 PUSH1 0x24 DUP3 ADD MSTORE PUSH17 0x46696C65642070726F6F6620636865636B PUSH1 0x78 SHL PUSH1 0x44 DUP3 ADD MSTORE PUSH1 0x64 ADD PUSH2 0x12A JUMP JUMPDEST POP PUSH1 0x1 SWAP5 SWAP4 POP POP POP POP JUMP JUMPDEST PUSH2 0x192 PUSH2 0x4C3 JUMP JUMPDEST PUSH2 0x19B DUP3 PUSH2 0x3D2 JUMP JUMPDEST SWAP3 SWAP2 POP POP JUMP JUMPDEST PUSH1 0x0 DUP1 SLOAD PUSH1 0x40 MLOAD PUSH4 0x711AD695 PUSH1 0xE1 SHL DUP2 MSTORE PUSH1 0x1 PUSH1 0x1 PUSH1 0xA0 SHL SUB SWAP1 SWAP2 AND SWAP1 PUSH4 0xE235AD2A SWAP1 PUSH2 0x1D8 SWAP1 DUP9 SWAP1 DUP9 SWAP1 DUP9 SWAP1 DUP9 SWAP1 PUSH1 0x4 ADD PUSH2 0x815 JUMP JUMPDEST PUSH1 0x20 PUSH1 0x40 MLOAD DUP1 DUP4 SUB DUP2 DUP7 DUP1 EXTCODESIZE ISZERO DUP1 ISZERO PUSH2 0x1F0 JUMPI PUSH1 0x0 DUP1 REVERT JUMPDEST POP GAS STATICCALL ISZERO DUP1 ISZERO PUSH2 0x204 JUMPI RETURNDATASIZE PUSH1 0x0 DUP1 RETURNDATACOPY RETURNDATASIZE PUSH1 0x0 REVERT JUMPDEST POP POP POP POP PUSH1 0x40 MLOAD RETURNDATASIZE PUSH1 0x1F NOT PUSH1 0x1F DUP3 ADD AND DUP3 ADD DUP1 PUSH1 0x40 MSTORE POP DUP2 ADD SWAP1 PUSH2 0x228 SWAP2 SWAP1 PUSH2 0x64F JUMP JUMPDEST SWAP6 SWAP5 POP POP POP POP POP JUMP JUMPDEST PUSH1 0x0 PUSH1 0x1 DUP2 JUMPDEST PUSH1 0x3 DUP2 LT ISZERO PUSH2 0x3CB JUMPI PUSH1 0x1 SWAP2 POP PUSH1 0x0 JUMPDEST PUSH1 0x1 DUP3 PUSH1 0x3 DUP2 LT PUSH2 0x268 JUMPI PUSH4 0x4E487B71 PUSH1 0xE0 SHL PUSH1 0x0 MSTORE PUSH1 0x32 PUSH1 0x4 MSTORE PUSH1 0x24 PUSH1 0x0 REVERT JUMPDEST POP POP PUSH1 0x9 DUP2 LT ISZERO PUSH2 0x3A8 JUMPI PUSH1 0x0 JUMPDEST PUSH1 0x1 DUP4 PUSH1 0x3 DUP2 LT PUSH2 0x297 JUMPI PUSH4 0x4E487B71 PUSH1 0xE0 SHL PUSH1 0x0 MSTORE PUSH1 0x32 PUSH1 0x4 MSTORE PUSH1 0x24 PUSH1 0x0 REVERT JUMPDEST PUSH1 0x9 MUL ADD DUP3 PUSH1 0x9 DUP2 LT PUSH2 0x2BA JUMPI PUSH4 0x4E487B71 PUSH1 0xE0 SHL PUSH1 0x0 MSTORE PUSH1 0x32 PUSH1 0x4 MSTORE PUSH1 0x24 PUSH1 0x0 REVERT JUMPDEST POP POP PUSH1 0x9 DUP2 LT ISZERO PUSH2 0x397 JUMPI PUSH1 0x1 DUP4 PUSH1 0x3 DUP2 LT PUSH2 0x2E6 JUMPI PUSH4 0x4E487B71 PUSH1 0xE0 SHL PUSH1 0x0 MSTORE PUSH1 0x32 PUSH1 0x4 MSTORE PUSH1 0x24 PUSH1 0x0 REVERT JUMPDEST PUSH1 0x9 MUL ADD DUP3 PUSH1 0x9 DUP2 LT PUSH2 0x309 JUMPI PUSH4 0x4E487B71 PUSH1 0xE0 SHL PUSH1 0x0 MSTORE PUSH1 0x32 PUSH1 0x4 MSTORE PUSH1 0x24 PUSH1 0x0 REVERT JUMPDEST ADD DUP2 PUSH1 0x9 DUP2 LT PUSH2 0x329 JUMPI PUSH4 0x4E487B71 PUSH1 0xE0 SHL PUSH1 0x0 MSTORE PUSH1 0x32 PUSH1 0x4 MSTORE PUSH1 0x24 PUSH1 0x0 REVERT JUMPDEST PUSH1 0x20 DUP2 DIV SWAP1 SWAP2 ADD SLOAD PUSH1 0xFF PUSH1 0x1F SWAP1 SWAP3 AND PUSH2 0x100 EXP SWAP1 DIV AND DUP7 DUP3 PUSH2 0x34C DUP6 PUSH1 0x9 PUSH2 0x8FE JUMP JUMPDEST PUSH2 0x356 SWAP2 SWAP1 PUSH2 0x8E6 JUMP JUMPDEST PUSH1 0x51 DUP2 LT PUSH2 0x374 JUMPI PUSH4 0x4E487B71 PUSH1 0xE0 SHL PUSH1 0x0 MSTORE PUSH1 0x32 PUSH1 0x4 MSTORE PUSH1 0x24 PUSH1 0x0 REVERT JUMPDEST PUSH1 0x20 MUL ADD MLOAD EQ PUSH2 0x387 JUMPI PUSH1 0x0 SWAP4 POP PUSH2 0x397 JUMP JUMPDEST PUSH2 0x390 DUP2 PUSH2 0x91D JUMP JUMPDEST SWAP1 POP PUSH2 0x276 JUMP JUMPDEST POP PUSH2 0x3A1 DUP2 PUSH2 0x91D JUMP JUMPDEST SWAP1 POP PUSH2 0x247 JUMP JUMPDEST POP PUSH1 0x1 DUP3 ISZERO ISZERO EQ ISZERO PUSH2 0x3BB JUMPI POP SWAP3 SWAP2 POP POP JUMP JUMPDEST PUSH2 0x3C4 DUP2 PUSH2 0x91D JUMP JUMPDEST SWAP1 POP PUSH2 0x237 JUMP JUMPDEST POP SWAP3 SWAP2 POP POP JUMP JUMPDEST PUSH2 0x3DA PUSH2 0x4C3 JUMP JUMPDEST PUSH1 0x0 PUSH1 0x3 DIFFICULTY TIMESTAMP CALLER DUP7 PUSH1 0x40 MLOAD PUSH1 0x20 ADD PUSH2 0x3F5 SWAP5 SWAP4 SWAP3 SWAP2 SWAP1 PUSH2 0x749 JUMP JUMPDEST PUSH1 0x40 MLOAD PUSH1 0x20 DUP2 DUP4 SUB SUB DUP2 MSTORE SWAP1 PUSH1 0x40 MSTORE DUP1 MLOAD SWAP1 PUSH1 0x20 ADD KECCAK256 PUSH1 0x0 SHR PUSH2 0x418 SWAP2 SWAP1 PUSH2 0x938 JUMP JUMPDEST SWAP1 POP PUSH1 0x1 DUP2 PUSH1 0x3 DUP2 LT PUSH2 0x43B JUMPI PUSH4 0x4E487B71 PUSH1 0xE0 SHL PUSH1 0x0 MSTORE PUSH1 0x32 PUSH1 0x4 MSTORE PUSH1 0x24 PUSH1 0x0 REVERT JUMPDEST PUSH1 0x40 DUP1 MLOAD PUSH2 0x120 DUP2 ADD SWAP1 SWAP2 MSTORE SWAP2 PUSH1 0x9 SWAP2 DUP3 MUL ADD SWAP1 PUSH1 0x0 DUP4 JUMPDEST DUP3 DUP3 LT ISZERO PUSH2 0x4B7 JUMPI PUSH1 0x40 DUP1 MLOAD PUSH2 0x120 DUP2 ADD SWAP2 DUP3 SWAP1 MSTORE SWAP1 DUP6 DUP5 ADD SWAP1 PUSH1 0x9 SWAP1 DUP3 PUSH1 0x0 DUP6 JUMPDEST DUP3 SLOAD PUSH2 0x100 DUP4 SWAP1 EXP SWAP1 DIV PUSH1 0xFF AND DUP2 MSTORE PUSH1 0x20 PUSH1 0x1 SWAP3 DUP4 ADD DUP2 DUP2 DIV SWAP5 DUP6 ADD SWAP5 SWAP1 SWAP4 SUB SWAP1 SWAP3 MUL SWAP2 ADD DUP1 DUP5 GT PUSH2 0x475 JUMPI SWAP1 POP POP POP POP POP POP DUP2 MSTORE PUSH1 0x20 ADD SWAP1 PUSH1 0x1 ADD SWAP1 PUSH2 0x453 JUMP JUMPDEST POP POP POP POP SWAP2 POP POP SWAP2 SWAP1 POP JUMP JUMPDEST PUSH1 0x40 MLOAD DUP1 PUSH2 0x120 ADD PUSH1 0x40 MSTORE DUP1 PUSH1 0x9 SWAP1 JUMPDEST PUSH2 0x4DB PUSH2 0x4F1 JUMP JUMPDEST DUP2 MSTORE PUSH1 0x20 ADD SWAP1 PUSH1 0x1 SWAP1 SUB SWAP1 DUP2 PUSH2 0x4D3 JUMPI SWAP1 POP POP SWAP1 JUMP JUMPDEST PUSH1 0x40 MLOAD DUP1 PUSH2 0x120 ADD PUSH1 0x40 MSTORE DUP1 PUSH1 0x9 SWAP1 PUSH1 0x20 DUP3 MUL DUP1 CALLDATASIZE DUP4 CALLDATACOPY POP SWAP2 SWAP3 SWAP2 POP POP JUMP JUMPDEST PUSH1 0x0 DUP3 PUSH1 0x1F DUP4 ADD SLT PUSH2 0x520 JUMPI DUP1 DUP2 REVERT JUMPDEST PUSH2 0x528 PUSH2 0x899 JUMP JUMPDEST DUP1 DUP4 DUP6 PUSH1 0x40 DUP7 ADD GT ISZERO PUSH2 0x539 JUMPI DUP4 DUP5 REVERT JUMPDEST DUP4 JUMPDEST PUSH1 0x2 DUP2 LT ISZERO PUSH2 0x55A JUMPI DUP2 CALLDATALOAD DUP5 MSTORE PUSH1 0x20 SWAP4 DUP5 ADD SWAP4 SWAP1 SWAP2 ADD SWAP1 PUSH1 0x1 ADD PUSH2 0x53B JUMP JUMPDEST POP SWAP1 SWAP6 SWAP5 POP POP POP POP POP JUMP JUMPDEST PUSH1 0x0 DUP1 PUSH1 0x0 DUP1 PUSH2 0xB20 DUP1 DUP7 DUP9 SUB SLT ISZERO PUSH2 0x57C JUMPI DUP5 DUP6 REVERT JUMPDEST PUSH2 0x586 DUP8 DUP8 PUSH2 0x510 JUMP JUMPDEST SWAP5 POP PUSH1 0x40 DUP8 PUSH1 0x5F DUP9 ADD SLT PUSH2 0x598 JUMPI DUP5 DUP6 REVERT JUMPDEST PUSH2 0x5A0 PUSH2 0x899 JUMP JUMPDEST DUP1 DUP3 DUP10 ADD PUSH1 0xC0 DUP11 ADD DUP12 DUP2 GT ISZERO PUSH2 0x5B4 JUMPI DUP9 DUP10 REVERT JUMPDEST DUP9 JUMPDEST PUSH1 0x2 DUP2 LT ISZERO PUSH2 0x5DD JUMPI PUSH2 0x5C9 DUP14 DUP5 PUSH2 0x510 JUMP JUMPDEST DUP6 MSTORE PUSH1 0x20 SWAP1 SWAP5 ADD SWAP4 SWAP2 DUP6 ADD SWAP2 PUSH1 0x1 ADD PUSH2 0x5B6 JUMP JUMPDEST POP DUP3 SWAP9 POP PUSH2 0x5EB DUP13 DUP3 PUSH2 0x510 JUMP JUMPDEST SWAP8 POP POP POP POP POP POP DUP7 PUSH2 0x11F DUP8 ADD SLT PUSH2 0x601 JUMPI DUP2 DUP3 REVERT JUMPDEST PUSH2 0x609 PUSH2 0x8C2 JUMP JUMPDEST DUP1 PUSH2 0x100 DUP9 ADD DUP10 DUP5 DUP11 ADD GT ISZERO PUSH2 0x61D JUMPI DUP5 DUP6 REVERT JUMPDEST DUP5 SWAP4 POP JUMPDEST PUSH1 0x51 DUP5 LT ISZERO PUSH2 0x641 JUMPI DUP1 CALLDATALOAD DUP4 MSTORE PUSH1 0x1 SWAP4 SWAP1 SWAP4 ADD SWAP3 PUSH1 0x20 SWAP3 DUP4 ADD SWAP3 ADD PUSH2 0x621 JUMP JUMPDEST POP SWAP6 SWAP9 SWAP5 SWAP8 POP SWAP3 SWAP6 POP POP POP POP JUMP JUMPDEST PUSH1 0x0 PUSH1 0x20 DUP3 DUP5 SUB SLT ISZERO PUSH2 0x660 JUMPI DUP1 DUP2 REVERT JUMPDEST DUP2 MLOAD DUP1 ISZERO ISZERO DUP2 EQ PUSH2 0x66F JUMPI DUP2 DUP3 REVERT JUMPDEST SWAP4 SWAP3 POP POP POP JUMP JUMPDEST PUSH1 0x0 PUSH1 0x20 DUP3 DUP5 SUB SLT ISZERO PUSH2 0x687 JUMPI DUP1 DUP2 REVERT JUMPDEST DUP2 CALLDATALOAD PUSH8 0xFFFFFFFFFFFFFFFF DUP1 DUP3 GT ISZERO PUSH2 0x69E JUMPI DUP3 DUP4 REVERT JUMPDEST DUP2 DUP5 ADD SWAP2 POP DUP5 PUSH1 0x1F DUP4 ADD SLT PUSH2 0x6B1 JUMPI DUP3 DUP4 REVERT JUMPDEST DUP2 CALLDATALOAD DUP2 DUP2 GT ISZERO PUSH2 0x6C3 JUMPI PUSH2 0x6C3 PUSH2 0x96E JUMP JUMPDEST PUSH1 0x40 MLOAD PUSH1 0x1F DUP3 ADD PUSH1 0x1F NOT SWAP1 DUP2 AND PUSH1 0x3F ADD AND DUP2 ADD SWAP1 DUP4 DUP3 GT DUP2 DUP4 LT OR ISZERO PUSH2 0x6EB JUMPI PUSH2 0x6EB PUSH2 0x96E JUMP JUMPDEST DUP2 PUSH1 0x40 MSTORE DUP3 DUP2 MSTORE DUP8 PUSH1 0x20 DUP5 DUP8 ADD ADD GT ISZERO PUSH2 0x703 JUMPI DUP6 DUP7 REVERT JUMPDEST DUP3 PUSH1 0x20 DUP7 ADD PUSH1 0x20 DUP4 ADD CALLDATACOPY SWAP2 DUP3 ADD PUSH1 0x20 ADD SWAP5 SWAP1 SWAP5 MSTORE SWAP6 SWAP5 POP POP POP POP POP JUMP JUMPDEST DUP1 PUSH1 0x0 JUMPDEST PUSH1 0x2 DUP2 LT ISZERO PUSH2 0x743 JUMPI DUP2 MLOAD DUP5 MSTORE PUSH1 0x20 SWAP4 DUP5 ADD SWAP4 SWAP1 SWAP2 ADD SWAP1 PUSH1 0x1 ADD PUSH2 0x724 JUMP JUMPDEST POP POP POP POP JUMP JUMPDEST DUP5 DUP2 MSTORE PUSH1 0x0 PUSH1 0x20 DUP6 DUP2 DUP5 ADD MSTORE PUSH12 0xFFFFFFFFFFFFFFFFFFFFFFFF NOT DUP6 PUSH1 0x60 SHL AND PUSH1 0x40 DUP5 ADD MSTORE DUP4 MLOAD DUP3 JUMPDEST DUP2 DUP2 LT ISZERO PUSH2 0x78D JUMPI DUP6 DUP2 ADD DUP4 ADD MLOAD DUP6 DUP3 ADD PUSH1 0x54 ADD MSTORE DUP3 ADD PUSH2 0x771 JUMP JUMPDEST DUP2 DUP2 GT ISZERO PUSH2 0x79E JUMPI DUP4 PUSH1 0x54 DUP4 DUP8 ADD ADD MSTORE JUMPDEST POP SWAP3 SWAP1 SWAP3 ADD PUSH1 0x54 ADD SWAP7 SWAP6 POP POP POP POP POP POP JUMP JUMPDEST PUSH2 0xA20 DUP2 ADD DUP2 DUP4 PUSH1 0x0 DUP1 JUMPDEST PUSH1 0x9 DUP1 DUP3 LT PUSH2 0x7CA JUMPI POP PUSH2 0x80B JUMP JUMPDEST DUP4 MLOAD DUP6 DUP5 JUMPDEST DUP4 DUP2 LT ISZERO PUSH2 0x7F0 JUMPI DUP3 MLOAD PUSH1 0xFF AND DUP3 MSTORE PUSH1 0x20 SWAP3 DUP4 ADD SWAP3 SWAP1 SWAP2 ADD SWAP1 PUSH1 0x1 ADD PUSH2 0x7CF JUMP JUMPDEST POP POP POP PUSH2 0x120 SWAP5 SWAP1 SWAP5 ADD SWAP4 POP PUSH1 0x20 SWAP3 SWAP1 SWAP3 ADD SWAP2 PUSH1 0x1 ADD PUSH2 0x7BB JUMP JUMPDEST POP POP POP POP SWAP3 SWAP2 POP POP JUMP JUMPDEST PUSH2 0xB20 DUP2 ADD PUSH2 0x824 DUP3 DUP8 PUSH2 0x720 JUMP JUMPDEST PUSH1 0x40 DUP1 DUP4 ADD DUP7 PUSH1 0x0 JUMPDEST PUSH1 0x2 DUP2 LT ISZERO PUSH2 0x854 JUMPI PUSH2 0x841 DUP4 DUP4 MLOAD PUSH2 0x720 JUMP JUMPDEST SWAP2 DUP4 ADD SWAP2 PUSH1 0x20 SWAP2 SWAP1 SWAP2 ADD SWAP1 PUSH1 0x1 ADD PUSH2 0x82D JUMP JUMPDEST POP POP POP POP PUSH2 0x865 PUSH1 0xC0 DUP4 ADD DUP6 PUSH2 0x720 JUMP JUMPDEST PUSH2 0x100 DUP3 ADD DUP4 PUSH1 0x0 JUMPDEST PUSH1 0x51 DUP2 LT ISZERO PUSH2 0x88D JUMPI DUP2 MLOAD DUP4 MSTORE PUSH1 0x20 SWAP3 DUP4 ADD SWAP3 SWAP1 SWAP2 ADD SWAP1 PUSH1 0x1 ADD PUSH2 0x86E JUMP JUMPDEST POP POP POP SWAP6 SWAP5 POP POP POP POP POP JUMP JUMPDEST PUSH1 0x40 DUP1 MLOAD SWAP1 DUP2 ADD PUSH8 0xFFFFFFFFFFFFFFFF DUP2 GT DUP3 DUP3 LT OR ISZERO PUSH2 0x8BC JUMPI PUSH2 0x8BC PUSH2 0x96E JUMP JUMPDEST PUSH1 0x40 MSTORE SWAP1 JUMP JUMPDEST PUSH1 0x40 MLOAD PUSH2 0xA20 DUP2 ADD PUSH8 0xFFFFFFFFFFFFFFFF DUP2 GT DUP3 DUP3 LT OR ISZERO PUSH2 0x8BC JUMPI PUSH2 0x8BC PUSH2 0x96E JUMP JUMPDEST PUSH1 0x0 DUP3 NOT DUP3 GT ISZERO PUSH2 0x8F9 JUMPI PUSH2 0x8F9 PUSH2 0x958 JUMP JUMPDEST POP ADD SWAP1 JUMP JUMPDEST PUSH1 0x0 DUP2 PUSH1 0x0 NOT DIV DUP4 GT DUP3 ISZERO ISZERO AND ISZERO PUSH2 0x918 JUMPI PUSH2 0x918 PUSH2 0x958 JUMP JUMPDEST POP MUL SWAP1 JUMP JUMPDEST PUSH1 0x0 PUSH1 0x0 NOT DUP3 EQ ISZERO PUSH2 0x931 JUMPI PUSH2 0x931 PUSH2 0x958 JUMP JUMPDEST POP PUSH1 0x1 ADD SWAP1 JUMP JUMPDEST PUSH1 0x0 DUP3 PUSH2 0x953 JUMPI PUSH4 0x4E487B71 PUSH1 0xE0 SHL DUP2 MSTORE PUSH1 0x12 PUSH1 0x4 MSTORE PUSH1 0x24 DUP2 REVERT JUMPDEST POP MOD SWAP1 JUMP JUMPDEST PUSH4 0x4E487B71 PUSH1 0xE0 SHL PUSH1 0x0 MSTORE PUSH1 0x11 PUSH1 0x4 MSTORE PUSH1 0x24 PUSH1 0x0 REVERT JUMPDEST PUSH4 0x4E487B71 PUSH1 0xE0 SHL PUSH1 0x0 MSTORE PUSH1 0x41 PUSH1 0x4 MSTORE PUSH1 0x24 PUSH1 0x0 REVERT INVALID LOG2 PUSH5 0x6970667358 0x22 SLT KECCAK256 AND 0xCB 0xD1 NOT PUSH27 0x7ACD39B24353AFC2F32ED89AD9CC7924F3171D9B9E0878F643F851 PUSH5 0x736F6C6343 STOP ADDMOD DIV STOP CALLER "},"methodIdentifiers":{"generateSudokuBoard(string)":"c54d8fd3","verifierAddr()":"663ea2e2","verifyProof(uint256[2],uint256[2][2],uint256[2],uint256[81])":"e235ad2a","verifySudoku(uint256[2],uint256[2][2],uint256[2],uint256[81])":"3e7c838f"}}}}}