{"contracts/sudokuVerifier.sol":{"SudokuVerifier":{"abi":[{"inputs":[{"internalType":"uint256[2]","name":"a","type":"uint256[2]"},{"internalType":"uint256[2][2]","name":"b","type":"uint256[2][2]"},{"internalType":"uint256[2]","name":"c","type":"uint256[2]"},{"internalType":"uint256[81]","name":"input","type":"uint256[81]"}],"name":"verifyProof","outputs":[{"internalType":"bool","name":"r","type":"bool"}],"stateMutability":"view","type":"function"}],"evm":{"bytecode":{"linkReferences":{},"object":"608060405234801561001057600080fd5b50613ca9806100206000396000f3fe608060405234801561001057600080fd5b506004361061002b5760003560e01c8063e235ad2a14610030575b600080fd5b61004361003e366004613a81565b610057565b604051901515815260200160405180910390f35b60006100616138f2565b6040805180820182528751815260208089015181830152908352815160808101835287515181840190815288518301516060830152815282518084018452888301805151825251830151818401528183015283820152815180830183528651815286820151818301528383015281516051808252610a40820190935260009290918201610a208036833701905050905060005b605181101561015f5784816051811061011d57634e487b7160e01b600052603260045260246000fd5b602002015182828151811061014257634e487b7160e01b600052603260045260246000fd5b60209081029190910101528061015781613c22565b9150506100f4565b5061016a8183610188565b61017957600192505050610180565b6000925050505b949350505050565b60007f30644e72e131a029b85045b68181585d2833e84879b9709143e1f593f0000001816101b46103b7565b9050806080015151855160016101ca9190613bd4565b146102115760405162461bcd60e51b81526020600482015260126024820152711d995c9a599a595c8b5898590b5a5b9c1d5d60721b60448201526064015b60405180910390fd5b604080518082019091526000808252602082018190525b865181101561032c578387828151811061025257634e487b7160e01b600052603260045260246000fd5b6020026020010151106102a75760405162461bcd60e51b815260206004820152601f60248201527f76657269666965722d6774652d736e61726b2d7363616c61722d6669656c64006044820152606401610208565b6103188261031385608001518460016102c09190613bd4565b815181106102de57634e487b7160e01b600052603260045260246000fd5b60200260200101518a858151811061030657634e487b7160e01b600052603260045260246000fd5b60200260200101516130fb565b613197565b91508061032481613c22565b915050610228565b5061036381836080015160008151811061035657634e487b7160e01b600052603260045260246000fd5b6020026020010151613197565b9050610399610375866000015161322f565b8660200151846000015185602001518587604001518b6040015189606001516132ce565b6103a957600193505050506103b1565b600093505050505b92915050565b6103bf613943565b6040805180820182527f2d4d9aa7e302d9df41749d5507949d05dbea33fbb16c643b22f599a2be6df2e281527f14bedd503c37ceb061d8ec60209fe345ce89830a19230301f076caff004d19266020808301919091529083528151608080820184527f0967032fcbf776d1afc985f88877f182d38480a653f2decaa9794cbc3bf3060c8285019081527f0e187847ad4c798374d0d6732bf501847dd68bc0e071241e0213bc7fc13db7ab606080850191909152908352845180860186527f304cfbd1e08a704a99f5e847d93f8c3caafddec46b7a0d379da69a4d112346a781527f1739c1b1a457a8c7313123d24d2f9192f896b7c63eea05a9d57f06547ad0cec8818601528385015285840192909252835180820185527f198e9393920d483a7260bfb731fb5d25f1aa493335a9e71297e485b7aef312c28186019081527f1800deef121f1e76426a00665e5c4479674322d4f75edadd46debd5cd992f6ed828501528152845180860186527f090689d0585ff075ec9e99ad690c3395bc4b313370b38ef355acdadcd122975b81527f12c85ea5db8c6deb4aab71808dcb408fe3d1e7690c43d37b4ce6cc0166fa7daa818601528185015285850152835190810184527f14cd05fe5d9d9924261e4c28afde364a99dde2c4b731c36da41ad73cb908ca3a8185019081527f21f45a05f3c6185daf12d09081289ab180990eeb2d2bc169e4cdd040df14133d828401528152835180850185527f192c5f239b9409b8e524e42f5141361f2f17d649fc0811a18ef21eb440325a3281527f0b6146f23e184fd11e49840a462ad4849c828130bc3228b6ba60b9fc5588c26981850152818401529084015281516052808252610a608201909352919082015b604080518082019091526000808252602082015281526020019060019003908161063b57505060808201908152604080518082019091527f25fd33d6991286d733257e52b91f5d2140d2974d8d93687006e5c142558a94f381527f24eaf74125ed43c8a34de5fb1ea64cc2f4c3fd86323e0700f0238101fcf89a846020820152905180516000906106dc57634e487b7160e01b600052603260045260246000fd5b602002602001018190525060405180604001604052807f1fca01e7eeaf0ec1b49fb3d807ec621ee889818bc5125eec3b603a0f896ae76081526020017f2263f4d40a739cbeb0becda69192439068bce12f33ba0bbabd557f8308c2e1ca815250816080015160018151811061076157634e487b7160e01b600052603260045260246000fd5b602002602001018190525060405180604001604052807f0cdd64ab2c76fa38ff9dfc9ef44938156daaba16203ab2267c66ed93b143d76381526020017f24fed30e8391e935a60213037f23e153bcfa24b1954578fde070293df2b8506e81525081608001516002815181106107e657634e487b7160e01b600052603260045260246000fd5b602002602001018190525060405180604001604052807f0b428846a2d0e4ac9886d42bf94caaa5e3b0e05f984ab2f11698ea6054f3d57681526020017f0def24ce297a1bdbc646d1498e4875cfb22da11ea84c023ff04227a7fabbc824815250816080015160038151811061086b57634e487b7160e01b600052603260045260246000fd5b602002602001018190525060405180604001604052807f0adc739398f12572f89e65a9932dd60517074c4cd86374f6ea96c8f125c57c4481526020017f18b265378c5bb4a31566d622e401080e96901f9fd6dfb1e489b1576d008d231e81525081608001516004815181106108f057634e487b7160e01b600052603260045260246000fd5b602002602001018190525060405180604001604052807f0386e5c70b3ea649dc335be6effd59cc36d15866b7ce87bb62e509b3f303710681526020017f08d91fe8d063107cb19d7293ae51f955e2a6fcf01a3f4920ce5c1ee27f0e07fd815250816080015160058151811061097557634e487b7160e01b600052603260045260246000fd5b602002602001018190525060405180604001604052807f0ab85e366f052127d0c30b828df17aa280b74f01411c737c7ed63973d39067c481526020017f27091b42aaa0d419334e4ee5770f00876ea48e0e23ddf6ba57c15345c16e6a4781525081608001516006815181106109fa57634e487b7160e01b600052603260045260246000fd5b602002602001018190525060405180604001604052807f222d2806893fa11e2704754d2beef9ec209c135fb77bf03c2fed20cca141871881526020017f282ef554e8b02568068acaa6ddbfca7672dcad49a2940a708c051387757967228152508160800151600781518110610a7f57634e487b7160e01b600052603260045260246000fd5b602002602001018190525060405180604001604052807f242fc8fdada862997d66630500d118d810395df364944a6bbe8293df5013662a81526020017f258165c6b1ca44c3e7bc0e3932ec52b3af39a01bb78a2cc71809fc1907b20e838152508160800151600881518110610b0457634e487b7160e01b600052603260045260246000fd5b602002602001018190525060405180604001604052807f08038fdfe43f6a732f54de453d0bca3d7191f04a6beb5cccc2565ee97c6f39e981526020017f045ef0334cd6070127acb8c1933a18a5c96baa3c7073d34b1a01fdde08564c3d8152508160800151600981518110610b8957634e487b7160e01b600052603260045260246000fd5b602002602001018190525060405180604001604052807f269b9154ccc4e255750fd12c21a82d5938c5376aa08c7dec3327c437597a9bf481526020017f252fc8103413fa858e5f5ad99cd66f6cbf158cc6f429bbaf101a1fea7414b3218152508160800151600a81518110610c0e57634e487b7160e01b600052603260045260246000fd5b602002602001018190525060405180604001604052807f14e787b88b611ee7c48ea151e99f4e32c502058ea47276462d05d6ba9cbf988b81526020017f19474d54eb78e28e093d1aa95ace6dc317f7ac878083dc25b6973a5a0668ffc28152508160800151600b81518110610c9357634e487b7160e01b600052603260045260246000fd5b602002602001018190525060405180604001604052807f0192e12d0e8c9d636aac21468096f5cd56d950a7d8c260926b211b747f9503a781526020017f287db9753dbb5c64ea5264394ddabcea52a004c757db2fa5a7c32c4fa0d8013f8152508160800151600c81518110610d1857634e487b7160e01b600052603260045260246000fd5b602002602001018190525060405180604001604052807f204c167c13280225bbbdbddb0ce99519286a24b6a2e3914eab075e4465c7f70381526020017f05f55df24706eb3d0d747abe02f6cdd146b52487e6d3765f2a49572170160c678152508160800151600d81518110610d9d57634e487b7160e01b600052603260045260246000fd5b602002602001018190525060405180604001604052807f12c2f4212ce1ed35050d68fbada0e359f39dbedcc2e26632f896762c528ccdfb81526020017f0e2279ceaba48ee873a872e684e50819c9ec7cc69b553e9715c5ae10ce57f9c58152508160800151600e81518110610e2257634e487b7160e01b600052603260045260246000fd5b602002602001018190525060405180604001604052807f0db65a3c298be11b21e4c833819c7ab04e8977ab2d804be39cb0375bffe2d8ff81526020017f194c7d30c16878f2a66a5b742af6d6abc2f0c47fff250a7fc91ce799fcc329118152508160800151600f81518110610ea757634e487b7160e01b600052603260045260246000fd5b602002602001018190525060405180604001604052807f055ddcf78ef7880d72c5165e8d4335dcc82da1cfd8543f71b83189678fd1073f81526020017f0dd9de6b5da7f580fef1235dac3e9ef0271d145cd2f178c146148ec97f63d4c38152508160800151601081518110610f2c57634e487b7160e01b600052603260045260246000fd5b602002602001018190525060405180604001604052807f2c11c66aea64f8a0fd92c42c091e17f8cf99caa71575ba1f41f44b6141a5f20a81526020017f2c96f3e4c6583c7c15b298a501c4f4f7ff459ec8cd26c7ec4ae54c0ee350eb608152508160800151601181518110610fb157634e487b7160e01b600052603260045260246000fd5b602002602001018190525060405180604001604052807f1c0dddc69219ef9b3430e7ae888cdac22c173af863b25d52bf32509027ccb86981526020017f0bab24adca51ea3fed8a5c96fecc40b020bdb48c2ce76cfda4f1470ed692b897815250816080015160128151811061103657634e487b7160e01b600052603260045260246000fd5b602002602001018190525060405180604001604052807f1529a9a4837f81ee6bc187451e85f49bacf730b9e103668c5aa80ef13e1a73ef81526020017f2273d81395e33d5fa314610e7b06dc7bdb095d241066bf7fea46d34f6a088f4681525081608001516013815181106110bb57634e487b7160e01b600052603260045260246000fd5b602002602001018190525060405180604001604052807f064b8e09b087c87cdcf236966b3577f132d5aa60b5c3f13b201db590b953d92f81526020017f1688a74927fb6377ad3ec7c5556913d99cac5037d609feee985cc1a6f0ab20dd815250816080015160148151811061114057634e487b7160e01b600052603260045260246000fd5b602002602001018190525060405180604001604052807f06f5b4a818e85b59653c91d12e6cca6287df76cddd03583a1f5d50248ac8a8d581526020017f1c0c51de4c30ac307c3de2647e1b245d3e6cf7c3958fbca5b787589b8adcee3b81525081608001516015815181106111c557634e487b7160e01b600052603260045260246000fd5b602002602001018190525060405180604001604052807f21c87ff8e57aa4f1ee86e940a101525512242a6c103fff74bf50d32debfb0c3381526020017f0aa54d1df84ae561eefabd0d9c752bbcabedf196b41675cf36949ddfc6696922815250816080015160168151811061124a57634e487b7160e01b600052603260045260246000fd5b602002602001018190525060405180604001604052807f05734ec18779181a931aa5c7a6875f77ce79cfbe186d6b8d569447c685bf253c81526020017f2c7ba5c66f823f8f73a102ae0559ae7f08c62467a59a6d17df5658b5e8d7222081525081608001516017815181106112cf57634e487b7160e01b600052603260045260246000fd5b602002602001018190525060405180604001604052807f21005bf9e02661f10e870839f103ce5a59ea0bd4e16b803cebc46d140e2529cb81526020017f10948fa9feacf995f01ba66188296b01b5b3aed11d1ec73e35b31da656335a5b815250816080015160188151811061135457634e487b7160e01b600052603260045260246000fd5b602002602001018190525060405180604001604052807f0c7ed9675d6a57d4dec32a340bb0bbe2274bd37440645fdd21787c073efb246181526020017f2c8ff1a5b6aa18de7bf934a256fde4d9833475fe272b25353574ce8dca0ec7c681525081608001516019815181106113d957634e487b7160e01b600052603260045260246000fd5b602002602001018190525060405180604001604052807f109744880aee7baa792ace04b3c2816b9a1be6d653fb9df490d59f706737a19d81526020017f138eeca8fd6172e01af1771d6a19782b6c986322da6c7f7029382c68163e9fbf8152508160800151601a8151811061145e57634e487b7160e01b600052603260045260246000fd5b602002602001018190525060405180604001604052807f111f8ad3d9a6e95ccaf377e7cea7f210c0f36a28d7f83d0cc20be409d79c948481526020017f0493db215660b34abeae359b02dca52777e365d1cd52e3f53a9a9073a669b8af8152508160800151601b815181106114e357634e487b7160e01b600052603260045260246000fd5b602002602001018190525060405180604001604052807f2c6fa4d95d2182e401540cdc50ac03671e233f4de7703faa37a5471ae0877cc681526020017f25e47c0fcd2a16189adf0c36c152b007f2a479d33ce4754fdd7a713499f588c78152508160800151601c8151811061156857634e487b7160e01b600052603260045260246000fd5b602002602001018190525060405180604001604052807f03935f95761ccd2e3631155c2be247812127ef74ee5164c388d0c097a9cc28c481526020017e029b51fca3fc45b994a52dc82e246e4827c1d2c2f6d541ddc57137f27089768152508160800151601d815181106115ec57634e487b7160e01b600052603260045260246000fd5b602002602001018190525060405180604001604052807f18e1ee4fa76edec3c48b2ea16b02e55743addb0edf4578baba5c1c9ab07eaec581526020017f1cbc32be5c04e6c825b87fb8a6b1a229645fdc7193d6675d675f7fc26a154d118152508160800151601e8151811061167157634e487b7160e01b600052603260045260246000fd5b602002602001018190525060405180604001604052807f1c35cff36322588f4a543f464dbe507f64cb0ed588b73e68ad159f1417fb077c81526020017f0723a3c0a9068818123b8fe3a5d505686108d78519a5f9849d6bf279d72ba0a38152508160800151601f815181106116f657634e487b7160e01b600052603260045260246000fd5b602002602001018190525060405180604001604052807f26e9de99d918b7e83ee40aa4fb9d6d160355435896af640dd2e09b2f3596f55981526020017f26e18052bc58081ef5a269bcce35dff0b609380b8b487e2365985dfdcb4182b3815250816080015160208151811061177b57634e487b7160e01b600052603260045260246000fd5b602002602001018190525060405180604001604052807f07044fe8c86e07d6d164db3f365de729315d660e75c337341937937e836703f381526020017f0dd91fd94bff0dac0456cd63e46bc7c05b1dd4e4edbd1f7a8bdb163edeea1099815250816080015160218151811061180057634e487b7160e01b600052603260045260246000fd5b602002602001018190525060405180604001604052807f20ad831bf026aad38d28198e8ddfc30b98982de6ab44109c7f7f0ac82e6a33a381526020017f11997427ff1d144962f6dab8a411be331dd3edfeebad0068c64ceae41f22ef43815250816080015160228151811061188557634e487b7160e01b600052603260045260246000fd5b602002602001018190525060405180604001604052807f16eacd55301cb898b668a4d70281872704690864b39cd692bb3f60d00f9150cf81526020017f2462335b9cf230ddc7c1492f7d6c2609cb1836699f74d1dc63ba9339655f225c815250816080015160238151811061190a57634e487b7160e01b600052603260045260246000fd5b602002602001018190525060405180604001604052807f1f58143b420ad298a0318173211f84f3dbeeea101be691e8d0205ace3497b70581526020017f0c01d6e238c75220c7ee70b70b9aa6f525623aaee8a3059b32834e56e2a8e153815250816080015160248151811061198f57634e487b7160e01b600052603260045260246000fd5b602002602001018190525060405180604001604052807ea5f669b34fb949dd2d1be6f8afaf044ea9f65d75c177e639360d73ce14abb581526020017f20e34929ee7f163b17339a1de3978107163b726ce808287103d13eed0ed6b2d88152508160800151602581518110611a1357634e487b7160e01b600052603260045260246000fd5b602002602001018190525060405180604001604052807f298f0870d59e8a9b8b9d30c8586bc0a51ba4e4942efa2b11fc7024d9a7228eaf81526020017f2cdc3abe37b4d99f0411055909c7d073c31f9534e0a6acbf9ae2dae74728c1e18152508160800151602681518110611a9857634e487b7160e01b600052603260045260246000fd5b602002602001018190525060405180604001604052807f2c1ffeeb37bcf86597acdfdab34d9e1606bbb2ba58abea2d4cc979d45ca9b1dc81526020017f1b70b661c182506fe1af2f93750ae74396b1e3afd948a781b5bde2b6ce219ef08152508160800151602781518110611b1d57634e487b7160e01b600052603260045260246000fd5b602002602001018190525060405180604001604052807f1e4b8d592b92e69090d21e617bea69212d36b5184c6326db05fb55c1ca5286e881526020017f0107f4d8dc684af96305f429447cdf1c3397ee2efe06e2f122be518073f48dad8152508160800151602881518110611ba257634e487b7160e01b600052603260045260246000fd5b602002602001018190525060405180604001604052807f03759a0cb87a74851fd23a26b606304d3fffe880d1eaeaab69dcc2f3b466220681526020017f2cc066ed411ad61e57cbc10b8e52c91154b181df880c4cd605491a932bcdd9998152508160800151602981518110611c2757634e487b7160e01b600052603260045260246000fd5b602002602001018190525060405180604001604052807f2355bff9fbaf05ca60db09ac9af01f344ca57f19c3e0d9d234b1f48a4e0c5e3e81526020017f26f11173f5ec67afefef0a32582c31bf9d9b0a8fa66850c73da0c5618235eb598152508160800151602a81518110611cac57634e487b7160e01b600052603260045260246000fd5b602002602001018190525060405180604001604052807f2ec54c84a63ca58669c3e4f4caad9b8ebca8714ca64316475bcc3e8111317c7881526020017f17cd848978c8ab029d6a54ddee655ed3ba111aff239cfcf0356397b84aa226698152508160800151602b81518110611d3157634e487b7160e01b600052603260045260246000fd5b602002602001018190525060405180604001604052807f2e5112e8f2623aa1b146eb236ff7966aab29b33a250dc6d26a256a4962e0cc7981526020017f07c6f9f310f6c0685e29c23f0cb32ca65fc038a45cd8f9f5429107be45f55e5d8152508160800151602c81518110611db657634e487b7160e01b600052603260045260246000fd5b602002602001018190525060405180604001604052807f249b78d82ef52eefec003807b1a9473fb3cebd82b0c57b99a2a89e8d1570558f81526020017f07b93a0d5646f1bf36e31df7d759d0d3b6a2a894b27d233dee03e59679ec1c0e8152508160800151602d81518110611e3b57634e487b7160e01b600052603260045260246000fd5b602002602001018190525060405180604001604052807f1bc28b3c30cffd42744aa60385b50ee9e1b30645229d7019ba544b19fe16ac8881526020017efd87c2d1c73a662188f334e641bccd1c286cf2ed22b643afa644a130ea51f68152508160800151602e81518110611ebf57634e487b7160e01b600052603260045260246000fd5b602002602001018190525060405180604001604052807f127a9d02665028dc5dabc6fe800f30201c8f43d7ca09f5d4ba1b0c153f52509a81526020017f0a7b3f969d87ca00d7f8e7602ecd4185b906eb25a96527f5a4f52a5a26b692d58152508160800151602f81518110611f4457634e487b7160e01b600052603260045260246000fd5b602002602001018190525060405180604001604052807f0c8480f1289cc7bf66a2438961075924333471a4f5864efaf196e5983e9e0a5981526020017f01654a8a2d1feb9244d94a7b0d3b49a05be6336a1e435b7b0222af9d5c1226188152508160800151603081518110611fc957634e487b7160e01b600052603260045260246000fd5b602002602001018190525060405180604001604052807f021e82d8c802b99923356076cfdd0c6f26adf49d755f5b4724e4b46029c7823281526020017f2fc04eef26951e09cb316cf65157ff248da89011ad8bc3976e62bec0a63eac1e815250816080015160318151811061204e57634e487b7160e01b600052603260045260246000fd5b602002602001018190525060405180604001604052807f14074785054fea4198ff0a4bb6753a4bfa86cc33e9d308b9d07a0c578798b60981526020017f11277b3cd02c27aeb2a8b6709aacf38fc63db592735a3cc51c2c9328283c436d81525081608001516032815181106120d357634e487b7160e01b600052603260045260246000fd5b602002602001018190525060405180604001604052807f27cbbefbd05996349f6352e0cce360e9d1bac3e04878c547ed85b9b2f038826b81526020017f146c59444f7de74a8bc9c878e2aa56894611e0ab5a9b1c1a524cabfc1b37a590815250816080015160338151811061215857634e487b7160e01b600052603260045260246000fd5b602002602001018190525060405180604001604052807f1ead409eb539459acbc43f0128ed1d4ae4c9c78d6481914c2261947b3f76063881526020017f07bb6363c5ca4be2da79e347ed7e00bfca42e6096257b13ebeae124cecafd58981525081608001516034815181106121dd57634e487b7160e01b600052603260045260246000fd5b602002602001018190525060405180604001604052807f28c8d0d83234bcd9e79146611c89f03f40fc0dfdaab74d3cb41afba79778d32481526020017f25c16eee152fb7331df3a055bbc65058239513ec828919b4fefc739aa4b359fe815250816080015160358151811061226257634e487b7160e01b600052603260045260246000fd5b602002602001018190525060405180604001604052807f1c6970ba9f813943b2039cdd41357810234eb1269410282ba53693642bc6154f81526020017f293286a60c8ccd40d6b790cf618593cf7a12abd45f782a056124ce135365352d81525081608001516036815181106122e757634e487b7160e01b600052603260045260246000fd5b602002602001018190525060405180604001604052807f2679c7e6f429ac4def72005185ae7e559847ce8acca24f476e13ebb913fdb0fa81526020017f13d1980cf45cd98e5fa78ad1573b0b8111a96e2ca06d742b63c1ff5cd7a0a7ba815250816080015160378151811061236c57634e487b7160e01b600052603260045260246000fd5b602002602001018190525060405180604001604052807f27f70ca3ed1334113cf29ea1447fc42606b658a27cdd41389f8af0d4c480376781526020017f0880f27d16622bdc2784ae6014223ee1c3119d1656a7ed09fb3e5cf414c9476c81525081608001516038815181106123f157634e487b7160e01b600052603260045260246000fd5b602002602001018190525060405180604001604052807e2bdfcce7743b73a59f72c06e93418009acb8711953ff5ac0eb2efbc674a85081526020017f0dc8548e5c6f0495c8414d1d48544924cca5a9476e353bc27bb7ae74bfbe8ab3815250816080015160398151811061247557634e487b7160e01b600052603260045260246000fd5b602002602001018190525060405180604001604052807f2b71b482d41366ab3f225676917b7d72f6f955a885cf6c636acedebb04a3e76981526020017f18358ab9e4b3f9ccd9991b8b1ccb44508a67841fc49893bed5092d2c71a548d98152508160800151603a815181106124fa57634e487b7160e01b600052603260045260246000fd5b602002602001018190525060405180604001604052807f090ac55dabf092057045c69394b406080a4150ea3202c6aa6187486043385a9181526020017f246b393ca3d7c98eed2aead1e77f4a57238411ddb4dcf181bf65f9d6bb46684e8152508160800151603b8151811061257f57634e487b7160e01b600052603260045260246000fd5b602002602001018190525060405180604001604052807f07e03f4cb0bdaec7dda2902882c3c19ab5a3bc7c8f389d083a1e6e2f28665e4a81526020017f0140755bc41a363b8aae2f8adf083dae6e1c2980978ef722da4fd62d788fa05f8152508160800151603c8151811061260457634e487b7160e01b600052603260045260246000fd5b602002602001018190525060405180604001604052807f11673f94081dac3615769f040a3fe39ca3f42e816bdf7a723bd3f07e591ebabe81526020017f077dc245efaf6bb53a3228c19135829590f621114959c81a230cb53071a147098152508160800151603d8151811061268957634e487b7160e01b600052603260045260246000fd5b602002602001018190525060405180604001604052807f0fdc44822a5f65f24167cbec084d1e0eadd4d2d1f8cbe2ecdc3abd4db14cd61681526020017f195281c2d73a75a5a4cfff556410c94cfb9d882c8940d2d7390dda2eccce4bcd8152508160800151603e8151811061270e57634e487b7160e01b600052603260045260246000fd5b602002602001018190525060405180604001604052807f11c0d6f76f5b5233ae9b8434712a9ff10ef43e1d9698c2048373b5b08141cf1781526020017f2fff92d4c2b15f2ab5e7ba0c7d7a33701559a2b23a2e92aeb570bf81ca9633708152508160800151603f8151811061279357634e487b7160e01b600052603260045260246000fd5b602002602001018190525060405180604001604052807f16aa7cdebdbe518b63923be2c80d9d45f9a2136335ee0b105243e22a9126de6481526020017f05202c9b8cc03a55446839bb4a7c8e03387f8c0085b1d0a66120a372b3bbad1b815250816080015160408151811061281857634e487b7160e01b600052603260045260246000fd5b602002602001018190525060405180604001604052807f12887ef733db64f581d0ff13cd51fcd2174ba3eddd8b8f68677ea076b1b95b5781526020017f2ca654aa619c4b044e5aa70c2b646f494659832a08394764190efa4a78d4d216815250816080015160418151811061289d57634e487b7160e01b600052603260045260246000fd5b602002602001018190525060405180604001604052807f0789e9b0d1b0035614c9036502c03de9e8a4839976300a573824c7151cc717cd81526020017f0e71b2f84dfad369636fa09a26d30657c025e27494b45ef913031665152c9df8815250816080015160428151811061292257634e487b7160e01b600052603260045260246000fd5b602002602001018190525060405180604001604052807f2bff35fdca394d3f211b639f2d5da0f236d181e91e6204a8aed3a9284640780681526020017f0fb8ccf691b5a5a542dab2f347adb42eaff4153c4711914bf2ad629ecc541dd681525081608001516043815181106129a757634e487b7160e01b600052603260045260246000fd5b602002602001018190525060405180604001604052807f2f072f31f58e1f0842f7a03c6d4be70c9e5cb72d299cb21cb29fc15c03a293e381526020017f05f1ab341dce161e9ce3076305c1a4e208ddd8b1aea5db06f840a224383411788152508160800151604481518110612a2c57634e487b7160e01b600052603260045260246000fd5b602002602001018190525060405180604001604052807f0d03af378dd4989e47b57187862a1be725f838a204f93c09a301389deceb17e281526020017f0dfc7908ef62c8e011892d527be1e123f675e45e52c8c92038c316c0b442213a8152508160800151604581518110612ab157634e487b7160e01b600052603260045260246000fd5b602002602001018190525060405180604001604052807f1d06b21860e1d6d452e8603223372ae88e70e9672a3e654a27dd176d56a211a381526020017f28c71ed5113caed96ef099ceb5c4b5c28e357423f4215bb9cfd643e7d99489958152508160800151604681518110612b3657634e487b7160e01b600052603260045260246000fd5b602002602001018190525060405180604001604052807f18ece9e05eec96c4e88ea89f184057130e94f1ae9a4a0273175292351f3a080481526020017f1e202f7ff0361c86e8c17b5a3b7d820ff5195d5ce2fdfe981a6a8bd54f654d1c8152508160800151604781518110612bbb57634e487b7160e01b600052603260045260246000fd5b602002602001018190525060405180604001604052807f2ec1eb0788cb596b40b0f87d2bec5e4313f184f4a19bf1159fd6eb90c8e0f30381526020017f2fff2f89cf20ed786408f1097abf8738070a9777bc83e4bad5404b675e4fc0f68152508160800151604881518110612c4057634e487b7160e01b600052603260045260246000fd5b602002602001018190525060405180604001604052807f0f7b5cdbf70750cee22e1db8397c08466ab555376335f844208aad58596407b981526020017f0d6961a80a874b29ff45a4243af47937351f0ef60075bd6a82b9b69ea251ee4b8152508160800151604981518110612cc557634e487b7160e01b600052603260045260246000fd5b602002602001018190525060405180604001604052807f1aae8a628ec6958f1d37a6f49b619878e858c0ca6a17077943f6a23ab076157181526020017f1fd26de3aa935c84072c7932dfc0f872a53fd8799f67df5e8164836b7bd0f7a58152508160800151604a81518110612d4a57634e487b7160e01b600052603260045260246000fd5b602002602001018190525060405180604001604052807f096eb9d466a46d79d29b1a437a0c872b6eb9031aff56ed28177798a6280c120481526020017f06d8b407e63722d83c0775fa23c3c5db84f7c03eb865cab16018baeaca4b20958152508160800151604b81518110612dcf57634e487b7160e01b600052603260045260246000fd5b602002602001018190525060405180604001604052807f2ea71269d064ac6ffe7f2512f18d088f43e94a9c3a933c4bcdc865ebc532ec2181526020017f0bc5701bc8677516b58dd479e116159e268baa029928e94ba8cb0db4b75dfeb48152508160800151604c81518110612e5457634e487b7160e01b600052603260045260246000fd5b602002602001018190525060405180604001604052807f29a8d8ca6bf69de8b304dc4f5352bf5da20e9796e54a7aa25ee2a4a13aa65f3481526020017f0a55b2b12bb6cbbfc4d408e9a84c3c0547db523ab29824c2ec8844524e0fa1938152508160800151604d81518110612ed957634e487b7160e01b600052603260045260246000fd5b602002602001018190525060405180604001604052807f1abe7af829204e220c51269ba698fc80c86835cf00a021971aed4ce5f669542a81526020017f2df89ad362d63435ee01050429e48fd8c1370dd9df44021466cad491f1cfd2448152508160800151604e81518110612f5e57634e487b7160e01b600052603260045260246000fd5b602002602001018190525060405180604001604052807f10ae117073dc0519435428a073da07f94fb3b43d270674558d25af4d8952253481526020017f19fdaaf6efa2d389fbb570533a13e9bb6c0fdf972320481a40ecfce5793ec35a8152508160800151604f81518110612fe357634e487b7160e01b600052603260045260246000fd5b602002602001018190525060405180604001604052807f2802f479af286e2d9cea10cc1471c159b2935cbbada93d9e257bc92c086048a481526020017f041ab547b5a17f33cac3b08e11dc15d2ba6977d4423c21bbc3672371f88acc43815250816080015160508151811061306857634e487b7160e01b600052603260045260246000fd5b602002602001018190525060405180604001604052807f15467abae0d138984c0e2b31181563c6b0a94bf9a16355023001025f481b523f81526020017f2a6ef72847ceb28d418a439c799c618cf3d307c0899f2e6dc03a7574fe6711d081525081608001516051815181106130ed57634e487b7160e01b600052603260045260246000fd5b602002602001018190525090565b6040805180820190915260008082526020820152613117613994565b835181526020808501519082015260408101839052600060608360808460076107d05a03fa905080801561314a5761314c565bfe5b508061318f5760405162461bcd60e51b81526020600482015260126024820152711c185a5c9a5b99cb5b5d5b0b59985a5b195960721b6044820152606401610208565b505092915050565b60408051808201909152600080825260208201526131b36139b2565b8351815260208085015181830152835160408301528301516060808301919091526000908360c08460066107d05a03fa905080801561314a57508061318f5760405162461bcd60e51b81526020600482015260126024820152711c185a5c9a5b99cb5859190b59985a5b195960721b6044820152606401610208565b604080518082019091526000808252602082015281517f30644e72e131a029b85045b68181585d97816a916871ca8d3c208c16d87cfd479015801561327657506020830151155b156132965750506040805180820190915260008082526020820152919050565b6040518060400160405280846000015181526020018285602001516132bb9190613c3d565b6132c59084613c0b565b90529392505050565b60408051600480825260a08201909252600091829190816020015b60408051808201909152600080825260208201528152602001906001900390816132e957505060408051600480825260a0820190925291925060009190602082015b6133336139d0565b81526020019060019003908161332b5790505090508a8260008151811061336a57634e487b7160e01b600052603260045260246000fd5b6020026020010181905250888260018151811061339757634e487b7160e01b600052603260045260246000fd5b602002602001018190525086826002815181106133c457634e487b7160e01b600052603260045260246000fd5b602002602001018190525084826003815181106133f157634e487b7160e01b600052603260045260246000fd5b6020026020010181905250898160008151811061341e57634e487b7160e01b600052603260045260246000fd5b6020026020010181905250878160018151811061344b57634e487b7160e01b600052603260045260246000fd5b6020026020010181905250858160028151811061347857634e487b7160e01b600052603260045260246000fd5b602002602001018190525083816003815181106134a557634e487b7160e01b600052603260045260246000fd5b60200260200101819052506134ba82826134c9565b9b9a5050505050505050505050565b600081518351146135155760405162461bcd60e51b81526020600482015260166024820152751c185a5c9a5b99cb5b195b99dd1a1ccb59985a5b195960521b6044820152606401610208565b82516000613524826006613bec565b905060008167ffffffffffffffff81111561354f57634e487b7160e01b600052604160045260246000fd5b604051908082528060200260200182016040528015613578578160200160208202803683370190505b50905060005b83811015613877578681815181106135a657634e487b7160e01b600052603260045260246000fd5b602002602001015160000151828260066135c09190613bec565b6135cb906000613bd4565b815181106135e957634e487b7160e01b600052603260045260246000fd5b60200260200101818152505086818151811061361557634e487b7160e01b600052603260045260246000fd5b6020026020010151602001518282600661362f9190613bec565b61363a906001613bd4565b8151811061365857634e487b7160e01b600052603260045260246000fd5b60200260200101818152505085818151811061368457634e487b7160e01b600052603260045260246000fd5b602090810291909101015151518261369d836006613bec565b6136a8906002613bd4565b815181106136c657634e487b7160e01b600052603260045260246000fd5b6020026020010181815250508581815181106136f257634e487b7160e01b600052603260045260246000fd5b6020908102919091018101515101518261370d836006613bec565b613718906003613bd4565b8151811061373657634e487b7160e01b600052603260045260246000fd5b60200260200101818152505085818151811061376257634e487b7160e01b600052603260045260246000fd5b60200260200101516020015160006002811061378e57634e487b7160e01b600052603260045260246000fd5b60200201518261379f836006613bec565b6137aa906004613bd4565b815181106137c857634e487b7160e01b600052603260045260246000fd5b6020026020010181815250508581815181106137f457634e487b7160e01b600052603260045260246000fd5b60200260200101516020015160016002811061382057634e487b7160e01b600052603260045260246000fd5b602002015182613831836006613bec565b61383c906005613bd4565b8151811061385a57634e487b7160e01b600052603260045260246000fd5b60209081029190910101528061386f81613c22565b91505061357e565b506138806139f0565b6000602082602086026020860160086107d05a03fa905080801561314a5750806138e45760405162461bcd60e51b81526020600482015260156024820152741c185a5c9a5b99cb5bdc18dbd9194b59985a5b1959605a1b6044820152606401610208565b505115159695505050505050565b6040805160a08101909152600060608201818152608083019190915281526020810161391c6139d0565b815260200161393e604051806040016040528060008152602001600081525090565b905290565b6040805160e08101909152600060a0820181815260c083019190915281526020810161396d6139d0565b815260200161397a6139d0565b81526020016139876139d0565b8152602001606081525090565b60405180606001604052806003906020820280368337509192915050565b60405180608001604052806004906020820280368337509192915050565b60405180604001604052806139e3613a0e565b815260200161393e613a0e565b60405180602001604052806001906020820280368337509192915050565b60405180604001604052806002906020820280368337509192915050565b600082601f830112613a3c578081fd5b613a44613b6b565b808385604086011115613a55578384fd5b835b6002811015613a76578135845260209384019390910190600101613a57565b509095945050505050565b600080600080610b20808688031215613a98578485fd5b613aa28787613a2c565b9450604087605f880112613ab4578485fd5b613abc613b6b565b8082890160c08a018b811115613ad0578889fd5b885b6002811015613af957613ae58d84613a2c565b855260209094019391850191600101613ad2565b50829850613b078c82613a2c565b975050505050508661011f870112613b1d578182fd5b613b25613ba2565b80610100880189848a011115613b39578485fd5b8493505b6051841015613b5d57803583526001939093019260209283019201613b3d565b509598949750929550505050565b6040805190810167ffffffffffffffff81118282101715613b9c57634e487b7160e01b600052604160045260246000fd5b60405290565b604051610a20810167ffffffffffffffff81118282101715613b9c57634e487b7160e01b600052604160045260246000fd5b60008219821115613be757613be7613c5d565b500190565b6000816000190483118215151615613c0657613c06613c5d565b500290565b600082821015613c1d57613c1d613c5d565b500390565b6000600019821415613c3657613c36613c5d565b5060010190565b600082613c5857634e487b7160e01b81526012600452602481fd5b500690565b634e487b7160e01b600052601160045260246000fdfea26469706673582212201f2cd058913a901508f50924f2c373a16e675c051634527f68ef559155853af064736f6c63430008040033","opcodes":"PUSH1 0x80 PUSH1 0x40 MSTORE CALLVALUE DUP1 ISZERO PUSH2 0x10 JUMPI PUSH1 0x0 DUP1 REVERT JUMPDEST POP PUSH2 0x3CA9 DUP1 PUSH2 0x20 PUSH1 0x0 CODECOPY PUSH1 0x0 RETURN INVALID PUSH1 0x80 PUSH1 0x40 MSTORE CALLVALUE DUP1 ISZERO PUSH2 0x10 JUMPI PUSH1 0x0 DUP1 REVERT JUMPDEST POP PUSH1 0x4 CALLDATASIZE LT PUSH2 0x2B JUMPI PUSH1 0x0 CALLDATALOAD PUSH1 0xE0 SHR DUP1 PUSH4 0xE235AD2A EQ PUSH2 0x30 JUMPI JUMPDEST PUSH1 0x0 DUP1 REVERT JUMPDEST PUSH2 0x43 PUSH2 0x3E CALLDATASIZE PUSH1 0x4 PUSH2 0x3A81 JUMP JUMPDEST PUSH2 0x57 JUMP JUMPDEST PUSH1 0x40 MLOAD SWAP1 ISZERO ISZERO DUP2 MSTORE PUSH1 0x20 ADD PUSH1 0x40 MLOAD DUP1 SWAP2 SUB SWAP1 RETURN JUMPDEST PUSH1 0x0 PUSH2 0x61 PUSH2 0x38F2 JUMP JUMPDEST PUSH1 0x40 DUP1 MLOAD DUP1 DUP3 ADD DUP3 MSTORE DUP8 MLOAD DUP2 MSTORE PUSH1 0x20 DUP1 DUP10 ADD MLOAD DUP2 DUP4 ADD MSTORE SWAP1 DUP4 MSTORE DUP2 MLOAD PUSH1 0x80 DUP2 ADD DUP4 MSTORE DUP8 MLOAD MLOAD DUP2 DUP5 ADD SWAP1 DUP2 MSTORE DUP9 MLOAD DUP4 ADD MLOAD PUSH1 0x60 DUP4 ADD MSTORE DUP2 MSTORE DUP3 MLOAD DUP1 DUP5 ADD DUP5 MSTORE DUP9 DUP4 ADD DUP1 MLOAD MLOAD DUP3 MSTORE MLOAD DUP4 ADD MLOAD DUP2 DUP5 ADD MSTORE DUP2 DUP4 ADD MSTORE DUP4 DUP3 ADD MSTORE DUP2 MLOAD DUP1 DUP4 ADD DUP4 MSTORE DUP7 MLOAD DUP2 MSTORE DUP7 DUP3 ADD MLOAD DUP2 DUP4 ADD MSTORE DUP4 DUP4 ADD MSTORE DUP2 MLOAD PUSH1 0x51 DUP1 DUP3 MSTORE PUSH2 0xA40 DUP3 ADD SWAP1 SWAP4 MSTORE PUSH1 0x0 SWAP3 SWAP1 SWAP2 DUP3 ADD PUSH2 0xA20 DUP1 CALLDATASIZE DUP4 CALLDATACOPY ADD SWAP1 POP POP SWAP1 POP PUSH1 0x0 JUMPDEST PUSH1 0x51 DUP2 LT ISZERO PUSH2 0x15F JUMPI DUP5 DUP2 PUSH1 0x51 DUP2 LT PUSH2 0x11D JUMPI PUSH4 0x4E487B71 PUSH1 0xE0 SHL PUSH1 0x0 MSTORE PUSH1 0x32 PUSH1 0x4 MSTORE PUSH1 0x24 PUSH1 0x0 REVERT JUMPDEST PUSH1 0x20 MUL ADD MLOAD DUP3 DUP3 DUP2 MLOAD DUP2 LT PUSH2 0x142 JUMPI PUSH4 0x4E487B71 PUSH1 0xE0 SHL PUSH1 0x0 MSTORE PUSH1 0x32 PUSH1 0x4 MSTORE PUSH1 0x24 PUSH1 0x0 REVERT JUMPDEST PUSH1 0x20 SWAP1 DUP2 MUL SWAP2 SWAP1 SWAP2 ADD ADD MSTORE DUP1 PUSH2 0x157 DUP2 PUSH2 0x3C22 JUMP JUMPDEST SWAP2 POP POP PUSH2 0xF4 JUMP JUMPDEST POP PUSH2 0x16A DUP2 DUP4 PUSH2 0x188 JUMP JUMPDEST PUSH2 0x179 JUMPI PUSH1 0x1 SWAP3 POP POP POP PUSH2 0x180 JUMP JUMPDEST PUSH1 0x0 SWAP3 POP POP POP JUMPDEST SWAP5 SWAP4 POP POP POP POP JUMP JUMPDEST PUSH1 0x0 PUSH32 0x30644E72E131A029B85045B68181585D2833E84879B9709143E1F593F0000001 DUP2 PUSH2 0x1B4 PUSH2 0x3B7 JUMP JUMPDEST SWAP1 POP DUP1 PUSH1 0x80 ADD MLOAD MLOAD DUP6 MLOAD PUSH1 0x1 PUSH2 0x1CA SWAP2 SWAP1 PUSH2 0x3BD4 JUMP JUMPDEST EQ PUSH2 0x211 JUMPI PUSH1 0x40 MLOAD PUSH3 0x461BCD PUSH1 0xE5 SHL DUP2 MSTORE PUSH1 0x20 PUSH1 0x4 DUP3 ADD MSTORE PUSH1 0x12 PUSH1 0x24 DUP3 ADD MSTORE PUSH18 0x1D995C9A599A595C8B5898590B5A5B9C1D5D PUSH1 0x72 SHL PUSH1 0x44 DUP3 ADD MSTORE PUSH1 0x64 ADD JUMPDEST PUSH1 0x40 MLOAD DUP1 SWAP2 SUB SWAP1 REVERT JUMPDEST PUSH1 0x40 DUP1 MLOAD DUP1 DUP3 ADD SWAP1 SWAP2 MSTORE PUSH1 0x0 DUP1 DUP3 MSTORE PUSH1 0x20 DUP3 ADD DUP2 SWAP1 MSTORE JUMPDEST DUP7 MLOAD DUP2 LT ISZERO PUSH2 0x32C JUMPI DUP4 DUP8 DUP3 DUP2 MLOAD DUP2 LT PUSH2 0x252 JUMPI PUSH4 0x4E487B71 PUSH1 0xE0 SHL PUSH1 0x0 MSTORE PUSH1 0x32 PUSH1 0x4 MSTORE PUSH1 0x24 PUSH1 0x0 REVERT JUMPDEST PUSH1 0x20 MUL PUSH1 0x20 ADD ADD MLOAD LT PUSH2 0x2A7 JUMPI PUSH1 0x40 MLOAD PUSH3 0x461BCD PUSH1 0xE5 SHL DUP2 MSTORE PUSH1 0x20 PUSH1 0x4 DUP3 ADD MSTORE PUSH1 0x1F PUSH1 0x24 DUP3 ADD MSTORE PUSH32 0x76657269666965722D6774652D736E61726B2D7363616C61722D6669656C6400 PUSH1 0x44 DUP3 ADD MSTORE PUSH1 0x64 ADD PUSH2 0x208 JUMP JUMPDEST PUSH2 0x318 DUP3 PUSH2 0x313 DUP6 PUSH1 0x80 ADD MLOAD DUP5 PUSH1 0x1 PUSH2 0x2C0 SWAP2 SWAP1 PUSH2 0x3BD4 JUMP JUMPDEST DUP2 MLOAD DUP2 LT PUSH2 0x2DE JUMPI PUSH4 0x4E487B71 PUSH1 0xE0 SHL PUSH1 0x0 MSTORE PUSH1 0x32 PUSH1 0x4 MSTORE PUSH1 0x24 PUSH1 0x0 REVERT JUMPDEST PUSH1 0x20 MUL PUSH1 0x20 ADD ADD MLOAD DUP11 DUP6 DUP2 MLOAD DUP2 LT PUSH2 0x306 JUMPI PUSH4 0x4E487B71 PUSH1 0xE0 SHL PUSH1 0x0 MSTORE PUSH1 0x32 PUSH1 0x4 MSTORE PUSH1 0x24 PUSH1 0x0 REVERT JUMPDEST PUSH1 0x20 MUL PUSH1 0x20 ADD ADD MLOAD PUSH2 0x30FB JUMP JUMPDEST PUSH2 0x3197 JUMP JUMPDEST SWAP2 POP DUP1 PUSH2 0x324 DUP2 PUSH2 0x3C22 JUMP JUMPDEST SWAP2 POP POP PUSH2 0x228 JUMP JUMPDEST POP PUSH2 0x363 DUP2 DUP4 PUSH1 0x80 ADD MLOAD PUSH1 0x0 DUP2 MLOAD DUP2 LT PUSH2 0x356 JUMPI PUSH4 0x4E487B71 PUSH1 0xE0 SHL PUSH1 0x0 MSTORE PUSH1 0x32 PUSH1 0x4 MSTORE PUSH1 0x24 PUSH1 0x0 REVERT JUMPDEST PUSH1 0x20 MUL PUSH1 0x20 ADD ADD MLOAD PUSH2 0x3197 JUMP JUMPDEST SWAP1 POP PUSH2 0x399 PUSH2 0x375 DUP7 PUSH1 0x0 ADD MLOAD PUSH2 0x322F JUMP JUMPDEST DUP7 PUSH1 0x20 ADD MLOAD DUP5 PUSH1 0x0 ADD MLOAD DUP6 PUSH1 0x20 ADD MLOAD DUP6 DUP8 PUSH1 0x40 ADD MLOAD DUP12 PUSH1 0x40 ADD MLOAD DUP10 PUSH1 0x60 ADD MLOAD PUSH2 0x32CE JUMP JUMPDEST PUSH2 0x3A9 JUMPI PUSH1 0x1 SWAP4 POP POP POP POP PUSH2 0x3B1 JUMP JUMPDEST PUSH1 0x0 SWAP4 POP POP POP POP JUMPDEST SWAP3 SWAP2 POP POP JUMP JUMPDEST PUSH2 0x3BF PUSH2 0x3943 JUMP JUMPDEST PUSH1 0x40 DUP1 MLOAD DUP1 DUP3 ADD DUP3 MSTORE PUSH32 0x2D4D9AA7E302D9DF41749D5507949D05DBEA33FBB16C643B22F599A2BE6DF2E2 DUP2 MSTORE PUSH32 0x14BEDD503C37CEB061D8EC60209FE345CE89830A19230301F076CAFF004D1926 PUSH1 0x20 DUP1 DUP4 ADD SWAP2 SWAP1 SWAP2 MSTORE SWAP1 DUP4 MSTORE DUP2 MLOAD PUSH1 0x80 DUP1 DUP3 ADD DUP5 MSTORE PUSH32 0x967032FCBF776D1AFC985F88877F182D38480A653F2DECAA9794CBC3BF3060C DUP3 DUP6 ADD SWAP1 DUP2 MSTORE PUSH32 0xE187847AD4C798374D0D6732BF501847DD68BC0E071241E0213BC7FC13DB7AB PUSH1 0x60 DUP1 DUP6 ADD SWAP2 SWAP1 SWAP2 MSTORE SWAP1 DUP4 MSTORE DUP5 MLOAD DUP1 DUP7 ADD DUP7 MSTORE PUSH32 0x304CFBD1E08A704A99F5E847D93F8C3CAAFDDEC46B7A0D379DA69A4D112346A7 DUP2 MSTORE PUSH32 0x1739C1B1A457A8C7313123D24D2F9192F896B7C63EEA05A9D57F06547AD0CEC8 DUP2 DUP7 ADD MSTORE DUP4 DUP6 ADD MSTORE DUP6 DUP5 ADD SWAP3 SWAP1 SWAP3 MSTORE DUP4 MLOAD DUP1 DUP3 ADD DUP6 MSTORE PUSH32 0x198E9393920D483A7260BFB731FB5D25F1AA493335A9E71297E485B7AEF312C2 DUP2 DUP7 ADD SWAP1 DUP2 MSTORE PUSH32 0x1800DEEF121F1E76426A00665E5C4479674322D4F75EDADD46DEBD5CD992F6ED DUP3 DUP6 ADD MSTORE DUP2 MSTORE DUP5 MLOAD DUP1 DUP7 ADD DUP7 MSTORE PUSH32 0x90689D0585FF075EC9E99AD690C3395BC4B313370B38EF355ACDADCD122975B DUP2 MSTORE PUSH32 0x12C85EA5DB8C6DEB4AAB71808DCB408FE3D1E7690C43D37B4CE6CC0166FA7DAA DUP2 DUP7 ADD MSTORE DUP2 DUP6 ADD MSTORE DUP6 DUP6 ADD MSTORE DUP4 MLOAD SWAP1 DUP2 ADD DUP5 MSTORE PUSH32 0x14CD05FE5D9D9924261E4C28AFDE364A99DDE2C4B731C36DA41AD73CB908CA3A DUP2 DUP6 ADD SWAP1 DUP2 MSTORE PUSH32 0x21F45A05F3C6185DAF12D09081289AB180990EEB2D2BC169E4CDD040DF14133D DUP3 DUP5 ADD MSTORE DUP2 MSTORE DUP4 MLOAD DUP1 DUP6 ADD DUP6 MSTORE PUSH32 0x192C5F239B9409B8E524E42F5141361F2F17D649FC0811A18EF21EB440325A32 DUP2 MSTORE PUSH32 0xB6146F23E184FD11E49840A462AD4849C828130BC3228B6BA60B9FC5588C269 DUP2 DUP6 ADD MSTORE DUP2 DUP5 ADD MSTORE SWAP1 DUP5 ADD MSTORE DUP2 MLOAD PUSH1 0x52 DUP1 DUP3 MSTORE PUSH2 0xA60 DUP3 ADD SWAP1 SWAP4 MSTORE SWAP2 SWAP1 DUP3 ADD JUMPDEST PUSH1 0x40 DUP1 MLOAD DUP1 DUP3 ADD SWAP1 SWAP2 MSTORE PUSH1 0x0 DUP1 DUP3 MSTORE PUSH1 0x20 DUP3 ADD MSTORE DUP2 MSTORE PUSH1 0x20 ADD SWAP1 PUSH1 0x1 SWAP1 SUB SWAP1 DUP2 PUSH2 0x63B JUMPI POP POP PUSH1 0x80 DUP3 ADD SWAP1 DUP2 MSTORE PUSH1 0x40 DUP1 MLOAD DUP1 DUP3 ADD SWAP1 SWAP2 MSTORE PUSH32 0x25FD33D6991286D733257E52B91F5D2140D2974D8D93687006E5C142558A94F3 DUP2 MSTORE PUSH32 0x24EAF74125ED43C8A34DE5FB1EA64CC2F4C3FD86323E0700F0238101FCF89A84 PUSH1 0x20 DUP3 ADD MSTORE SWAP1 MLOAD DUP1 MLOAD PUSH1 0x0 SWAP1 PUSH2 0x6DC JUMPI PUSH4 0x4E487B71 PUSH1 0xE0 SHL PUSH1 0x0 MSTORE PUSH1 0x32 PUSH1 0x4 MSTORE PUSH1 0x24 PUSH1 0x0 REVERT JUMPDEST PUSH1 0x20 MUL PUSH1 0x20 ADD ADD DUP2 SWAP1 MSTORE POP PUSH1 0x40 MLOAD DUP1 PUSH1 0x40 ADD PUSH1 0x40 MSTORE DUP1 PUSH32 0x1FCA01E7EEAF0EC1B49FB3D807EC621EE889818BC5125EEC3B603A0F896AE760 DUP2 MSTORE PUSH1 0x20 ADD PUSH32 0x2263F4D40A739CBEB0BECDA69192439068BCE12F33BA0BBABD557F8308C2E1CA DUP2 MSTORE POP DUP2 PUSH1 0x80 ADD MLOAD PUSH1 0x1 DUP2 MLOAD DUP2 LT PUSH2 0x761 JUMPI PUSH4 0x4E487B71 PUSH1 0xE0 SHL PUSH1 0x0 MSTORE PUSH1 0x32 PUSH1 0x4 MSTORE PUSH1 0x24 PUSH1 0x0 REVERT JUMPDEST PUSH1 0x20 MUL PUSH1 0x20 ADD ADD DUP2 SWAP1 MSTORE POP PUSH1 0x40 MLOAD DUP1 PUSH1 0x40 ADD PUSH1 0x40 MSTORE DUP1 PUSH32 0xCDD64AB2C76FA38FF9DFC9EF44938156DAABA16203AB2267C66ED93B143D763 DUP2 MSTORE PUSH1 0x20 ADD PUSH32 0x24FED30E8391E935A60213037F23E153BCFA24B1954578FDE070293DF2B8506E DUP2 MSTORE POP DUP2 PUSH1 0x80 ADD MLOAD PUSH1 0x2 DUP2 MLOAD DUP2 LT PUSH2 0x7E6 JUMPI PUSH4 0x4E487B71 PUSH1 0xE0 SHL PUSH1 0x0 MSTORE PUSH1 0x32 PUSH1 0x4 MSTORE PUSH1 0x24 PUSH1 0x0 REVERT JUMPDEST PUSH1 0x20 MUL PUSH1 0x20 ADD ADD DUP2 SWAP1 MSTORE POP PUSH1 0x40 MLOAD DUP1 PUSH1 0x40 ADD PUSH1 0x40 MSTORE DUP1 PUSH32 0xB428846A2D0E4AC9886D42BF94CAAA5E3B0E05F984AB2F11698EA6054F3D576 DUP2 MSTORE PUSH1 0x20 ADD PUSH32 0xDEF24CE297A1BDBC646D1498E4875CFB22DA11EA84C023FF04227A7FABBC824 DUP2 MSTORE POP DUP2 PUSH1 0x80 ADD MLOAD PUSH1 0x3 DUP2 MLOAD DUP2 LT PUSH2 0x86B JUMPI PUSH4 0x4E487B71 PUSH1 0xE0 SHL PUSH1 0x0 MSTORE PUSH1 0x32 PUSH1 0x4 MSTORE PUSH1 0x24 PUSH1 0x0 REVERT JUMPDEST PUSH1 0x20 MUL PUSH1 0x20 ADD ADD DUP2 SWAP1 MSTORE POP PUSH1 0x40 MLOAD DUP1 PUSH1 0x40 ADD PUSH1 0x40 MSTORE DUP1 PUSH32 0xADC739398F12572F89E65A9932DD60517074C4CD86374F6EA96C8F125C57C44 DUP2 MSTORE PUSH1 0x20 ADD PUSH32 0x18B265378C5BB4A31566D622E401080E96901F9FD6DFB1E489B1576D008D231E DUP2 MSTORE POP DUP2 PUSH1 0x80 ADD MLOAD PUSH1 0x4 DUP2 MLOAD DUP2 LT PUSH2 0x8F0 JUMPI PUSH4 0x4E487B71 PUSH1 0xE0 SHL PUSH1 0x0 MSTORE PUSH1 0x32 PUSH1 0x4 MSTORE PUSH1 0x24 PUSH1 0x0 REVERT JUMPDEST PUSH1 0x20 MUL PUSH1 0x20 ADD ADD DUP2 SWAP1 MSTORE POP PUSH1 0x40 MLOAD DUP1 PUSH1 0x40 ADD PUSH1 0x40 MSTORE DUP1 PUSH32 0x386E5C70B3EA649DC335BE6EFFD59CC36D15866B7CE87BB62E509B3F3037106 DUP2 MSTORE PUSH1 0x20 ADD PUSH32 0x8D91FE8D063107CB19D7293AE51F955E2A6FCF01A3F4920CE5C1EE27F0E07FD DUP2 MSTORE POP DUP2 PUSH1 0x80 ADD MLOAD PUSH1 0x5 DUP2 MLOAD DUP2 LT PUSH2 0x975 JUMPI PUSH4 0x4E487B71 PUSH1 0xE0 SHL PUSH1 0x0 MSTORE PUSH1 0x32 PUSH1 0x4 MSTORE PUSH1 0x24 PUSH1 0x0 REVERT JUMPDEST PUSH1 0x20 MUL PUSH1 0x20 ADD ADD DUP2 SWAP1 MSTORE POP PUSH1 0x40 MLOAD DUP1 PUSH1 0x40 ADD PUSH1 0x40 MSTORE DUP1 PUSH32 0xAB85E366F052127D0C30B828DF17AA280B74F01411C737C7ED63973D39067C4 DUP2 MSTORE PUSH1 0x20 ADD PUSH32 0x27091B42AAA0D419334E4EE5770F00876EA48E0E23DDF6BA57C15345C16E6A47 DUP2 MSTORE POP DUP2 PUSH1 0x80 ADD MLOAD PUSH1 0x6 DUP2 MLOAD DUP2 LT PUSH2 0x9FA JUMPI PUSH4 0x4E487B71 PUSH1 0xE0 SHL PUSH1 0x0 MSTORE PUSH1 0x32 PUSH1 0x4 MSTORE PUSH1 0x24 PUSH1 0x0 REVERT JUMPDEST PUSH1 0x20 MUL PUSH1 0x20 ADD ADD DUP2 SWAP1 MSTORE POP PUSH1 0x40 MLOAD DUP1 PUSH1 0x40 ADD PUSH1 0x40 MSTORE DUP1 PUSH32 0x222D2806893FA11E2704754D2BEEF9EC209C135FB77BF03C2FED20CCA1418718 DUP2 MSTORE PUSH1 0x20 ADD PUSH32 0x282EF554E8B02568068ACAA6DDBFCA7672DCAD49A2940A708C05138775796722 DUP2 MSTORE POP DUP2 PUSH1 0x80 ADD MLOAD PUSH1 0x7 DUP2 MLOAD DUP2 LT PUSH2 0xA7F JUMPI PUSH4 0x4E487B71 PUSH1 0xE0 SHL PUSH1 0x0 MSTORE PUSH1 0x32 PUSH1 0x4 MSTORE PUSH1 0x24 PUSH1 0x0 REVERT JUMPDEST PUSH1 0x20 MUL PUSH1 0x20 ADD ADD DUP2 SWAP1 MSTORE POP PUSH1 0x40 MLOAD DUP1 PUSH1 0x40 ADD PUSH1 0x40 MSTORE DUP1 PUSH32 0x242FC8FDADA862997D66630500D118D810395DF364944A6BBE8293DF5013662A DUP2 MSTORE PUSH1 0x20 ADD PUSH32 0x258165C6B1CA44C3E7BC0E3932EC52B3AF39A01BB78A2CC71809FC1907B20E83 DUP2 MSTORE POP DUP2 PUSH1 0x80 ADD MLOAD PUSH1 0x8 DUP2 MLOAD DUP2 LT PUSH2 0xB04 JUMPI PUSH4 0x4E487B71 PUSH1 0xE0 SHL PUSH1 0x0 MSTORE PUSH1 0x32 PUSH1 0x4 MSTORE PUSH1 0x24 PUSH1 0x0 REVERT JUMPDEST PUSH1 0x20 MUL PUSH1 0x20 ADD ADD DUP2 SWAP1 MSTORE POP PUSH1 0x40 MLOAD DUP1 PUSH1 0x40 ADD PUSH1 0x40 MSTORE DUP1 PUSH32 0x8038FDFE43F6A732F54DE453D0BCA3D7191F04A6BEB5CCCC2565EE97C6F39E9 DUP2 MSTORE PUSH1 0x20 ADD PUSH32 0x45EF0334CD6070127ACB8C1933A18A5C96BAA3C7073D34B1A01FDDE08564C3D DUP2 MSTORE POP DUP2 PUSH1 0x80 ADD MLOAD PUSH1 0x9 DUP2 MLOAD DUP2 LT PUSH2 0xB89 JUMPI PUSH4 0x4E487B71 PUSH1 0xE0 SHL PUSH1 0x0 MSTORE PUSH1 0x32 PUSH1 0x4 MSTORE PUSH1 0x24 PUSH1 0x0 REVERT JUMPDEST PUSH1 0x20 MUL PUSH1 0x20 ADD ADD DUP2 SWAP1 MSTORE POP PUSH1 0x40 MLOAD DUP1 PUSH1 0x40 ADD PUSH1 0x40 MSTORE DUP1 PUSH32 0x269B9154CCC4E255750FD12C21A82D5938C5376AA08C7DEC3327C437597A9BF4 DUP2 MSTORE PUSH1 0x20 ADD PUSH32 0x252FC8103413FA858E5F5AD99CD66F6CBF158CC6F429BBAF101A1FEA7414B321 DUP2 MSTORE POP DUP2 PUSH1 0x80 ADD MLOAD PUSH1 0xA DUP2 MLOAD DUP2 LT PUSH2 0xC0E JUMPI PUSH4 0x4E487B71 PUSH1 0xE0 SHL PUSH1 0x0 MSTORE PUSH1 0x32 PUSH1 0x4 MSTORE PUSH1 0x24 PUSH1 0x0 REVERT JUMPDEST PUSH1 0x20 MUL PUSH1 0x20 ADD ADD DUP2 SWAP1 MSTORE POP PUSH1 0x40 MLOAD DUP1 PUSH1 0x40 ADD PUSH1 0x40 MSTORE DUP1 PUSH32 0x14E787B88B611EE7C48EA151E99F4E32C502058EA47276462D05D6BA9CBF988B DUP2 MSTORE PUSH1 0x20 ADD PUSH32 0x19474D54EB78E28E093D1AA95ACE6DC317F7AC878083DC25B6973A5A0668FFC2 DUP2 MSTORE POP DUP2 PUSH1 0x80 ADD MLOAD PUSH1 0xB DUP2 MLOAD DUP2 LT PUSH2 0xC93 JUMPI PUSH4 0x4E487B71 PUSH1 0xE0 SHL PUSH1 0x0 MSTORE PUSH1 0x32 PUSH1 0x4 MSTORE PUSH1 0x24 PUSH1 0x0 REVERT JUMPDEST PUSH1 0x20 MUL PUSH1 0x20 ADD ADD DUP2 SWAP1 MSTORE POP PUSH1 0x40 MLOAD DUP1 PUSH1 0x40 ADD PUSH1 0x40 MSTORE DUP1 PUSH32 0x192E12D0E8C9D636AAC21468096F5CD56D950A7D8C260926B211B747F9503A7 DUP2 MSTORE PUSH1 0x20 ADD PUSH32 0x287DB9753DBB5C64EA5264394DDABCEA52A004C757DB2FA5A7C32C4FA0D8013F DUP2 MSTORE POP DUP2 PUSH1 0x80 ADD MLOAD PUSH1 0xC DUP2 MLOAD DUP2 LT PUSH2 0xD18 JUMPI PUSH4 0x4E487B71 PUSH1 0xE0 SHL PUSH1 0x0 MSTORE PUSH1 0x32 PUSH1 0x4 MSTORE PUSH1 0x24 PUSH1 0x0 REVERT JUMPDEST PUSH1 0x20 MUL PUSH1 0x20 ADD ADD DUP2 SWAP1 MSTORE POP PUSH1 0x40 MLOAD DUP1 PUSH1 0x40 ADD PUSH1 0x40 MSTORE DUP1 PUSH32 0x204C167C13280225BBBDBDDB0CE99519286A24B6A2E3914EAB075E4465C7F703 DUP2 MSTORE PUSH1 0x20 ADD PUSH32 0x5F55DF24706EB3D0D747ABE02F6CDD146B52487E6D3765F2A49572170160C67 DUP2 MSTORE POP DUP2 PUSH1 0x80 ADD MLOAD PUSH1 0xD DUP2 MLOAD DUP2 LT PUSH2 0xD9D JUMPI PUSH4 0x4E487B71 PUSH1 0xE0 SHL PUSH1 0x0 MSTORE PUSH1 0x32 PUSH1 0x4 MSTORE PUSH1 0x24 PUSH1 0x0 REVERT JUMPDEST PUSH1 0x20 MUL PUSH1 0x20 ADD ADD DUP2 SWAP1 MSTORE POP PUSH1 0x40 MLOAD DUP1 PUSH1 0x40 ADD PUSH1 0x40 MSTORE DUP1 PUSH32 0x12C2F4212CE1ED35050D68FBADA0E359F39DBEDCC2E26632F896762C528CCDFB DUP2 MSTORE PUSH1 0x20 ADD PUSH32 0xE2279CEABA48EE873A872E684E50819C9EC7CC69B553E9715C5AE10CE57F9C5 DUP2 MSTORE POP DUP2 PUSH1 0x80 ADD MLOAD PUSH1 0xE DUP2 MLOAD DUP2 LT PUSH2 0xE22 JUMPI PUSH4 0x4E487B71 PUSH1 0xE0 SHL PUSH1 0x0 MSTORE PUSH1 0x32 PUSH1 0x4 MSTORE PUSH1 0x24 PUSH1 0x0 REVERT JUMPDEST PUSH1 0x20 MUL PUSH1 0x20 ADD ADD DUP2 SWAP1 MSTORE POP PUSH1 0x40 MLOAD DUP1 PUSH1 0x40 ADD PUSH1 0x40 MSTORE DUP1 PUSH32 0xDB65A3C298BE11B21E4C833819C7AB04E8977AB2D804BE39CB0375BFFE2D8FF DUP2 MSTORE PUSH1 0x20 ADD PUSH32 0x194C7D30C16878F2A66A5B742AF6D6ABC2F0C47FFF250A7FC91CE799FCC32911 DUP2 MSTORE POP DUP2 PUSH1 0x80 ADD MLOAD PUSH1 0xF DUP2 MLOAD DUP2 LT PUSH2 0xEA7 JUMPI PUSH4 0x4E487B71 PUSH1 0xE0 SHL PUSH1 0x0 MSTORE PUSH1 0x32 PUSH1 0x4 MSTORE PUSH1 0x24 PUSH1 0x0 REVERT JUMPDEST PUSH1 0x20 MUL PUSH1 0x20 ADD ADD DUP2 SWAP1 MSTORE POP PUSH1 0x40 MLOAD DUP1 PUSH1 0x40 ADD PUSH1 0x40 MSTORE DUP1 PUSH32 0x55DDCF78EF7880D72C5165E8D4335DCC82DA1CFD8543F71B83189678FD1073F DUP2 MSTORE PUSH1 0x20 ADD PUSH32 0xDD9DE6B5DA7F580FEF1235DAC3E9EF0271D145CD2F178C146148EC97F63D4C3 DUP2 MSTORE POP DUP2 PUSH1 0x80 ADD MLOAD PUSH1 0x10 DUP2 MLOAD DUP2 LT PUSH2 0xF2C JUMPI PUSH4 0x4E487B71 PUSH1 0xE0 SHL PUSH1 0x0 MSTORE PUSH1 0x32 PUSH1 0x4 MSTORE PUSH1 0x24 PUSH1 0x0 REVERT JUMPDEST PUSH1 0x20 MUL PUSH1 0x20 ADD ADD DUP2 SWAP1 MSTORE POP PUSH1 0x40 MLOAD DUP1 PUSH1 0x40 ADD PUSH1 0x40 MSTORE DUP1 PUSH32 0x2C11C66AEA64F8A0FD92C42C091E17F8CF99CAA71575BA1F41F44B6141A5F20A DUP2 MSTORE PUSH1 0x20 ADD PUSH32 0x2C96F3E4C6583C7C15B298A501C4F4F7FF459EC8CD26C7EC4AE54C0EE350EB60 DUP2 MSTORE POP DUP2 PUSH1 0x80 ADD MLOAD PUSH1 0x11 DUP2 MLOAD DUP2 LT PUSH2 0xFB1 JUMPI PUSH4 0x4E487B71 PUSH1 0xE0 SHL PUSH1 0x0 MSTORE PUSH1 0x32 PUSH1 0x4 MSTORE PUSH1 0x24 PUSH1 0x0 REVERT JUMPDEST PUSH1 0x20 MUL PUSH1 0x20 ADD ADD DUP2 SWAP1 MSTORE POP PUSH1 0x40 MLOAD DUP1 PUSH1 0x40 ADD PUSH1 0x40 MSTORE DUP1 PUSH32 0x1C0DDDC69219EF9B3430E7AE888CDAC22C173AF863B25D52BF32509027CCB869 DUP2 MSTORE PUSH1 0x20 ADD PUSH32 0xBAB24ADCA51EA3FED8A5C96FECC40B020BDB48C2CE76CFDA4F1470ED692B897 DUP2 MSTORE POP DUP2 PUSH1 0x80 ADD MLOAD PUSH1 0x12 DUP2 MLOAD DUP2 LT PUSH2 0x1036 JUMPI PUSH4 0x4E487B71 PUSH1 0xE0 SHL PUSH1 0x0 MSTORE PUSH1 0x32 PUSH1 0x4 MSTORE PUSH1 0x24 PUSH1 0x0 REVERT JUMPDEST PUSH1 0x20 MUL PUSH1 0x20 ADD ADD DUP2 SWAP1 MSTORE POP PUSH1 0x40 MLOAD DUP1 PUSH1 0x40 ADD PUSH1 0x40 MSTORE DUP1 PUSH32 0x1529A9A4837F81EE6BC187451E85F49BACF730B9E103668C5AA80EF13E1A73EF DUP2 MSTORE PUSH1 0x20 ADD PUSH32 0x2273D81395E33D5FA314610E7B06DC7BDB095D241066BF7FEA46D34F6A088F46 DUP2 MSTORE POP DUP2 PUSH1 0x80 ADD MLOAD PUSH1 0x13 DUP2 MLOAD DUP2 LT PUSH2 0x10BB JUMPI PUSH4 0x4E487B71 PUSH1 0xE0 SHL PUSH1 0x0 MSTORE PUSH1 0x32 PUSH1 0x4 MSTORE PUSH1 0x24 PUSH1 0x0 REVERT JUMPDEST PUSH1 0x20 MUL PUSH1 0x20 ADD ADD DUP2 SWAP1 MSTORE POP PUSH1 0x40 MLOAD DUP1 PUSH1 0x40 ADD PUSH1 0x40 MSTORE DUP1 PUSH32 0x64B8E09B087C87CDCF236966B3577F132D5AA60B5C3F13B201DB590B953D92F DUP2 MSTORE PUSH1 0x20 ADD PUSH32 0x1688A74927FB6377AD3EC7C5556913D99CAC5037D609FEEE985CC1A6F0AB20DD DUP2 MSTORE POP DUP2 PUSH1 0x80 ADD MLOAD PUSH1 0x14 DUP2 MLOAD DUP2 LT PUSH2 0x1140 JUMPI PUSH4 0x4E487B71 PUSH1 0xE0 SHL PUSH1 0x0 MSTORE PUSH1 0x32 PUSH1 0x4 MSTORE PUSH1 0x24 PUSH1 0x0 REVERT JUMPDEST PUSH1 0x20 MUL PUSH1 0x20 ADD ADD DUP2 SWAP1 MSTORE POP PUSH1 0x40 MLOAD DUP1 PUSH1 0x40 ADD PUSH1 0x40 MSTORE DUP1 PUSH32 0x6F5B4A818E85B59653C91D12E6CCA6287DF76CDDD03583A1F5D50248AC8A8D5 DUP2 MSTORE PUSH1 0x20 ADD PUSH32 0x1C0C51DE4C30AC307C3DE2647E1B245D3E6CF7C3958FBCA5B787589B8ADCEE3B DUP2 MSTORE POP DUP2 PUSH1 0x80 ADD MLOAD PUSH1 0x15 DUP2 MLOAD DUP2 LT PUSH2 0x11C5 JUMPI PUSH4 0x4E487B71 PUSH1 0xE0 SHL PUSH1 0x0 MSTORE PUSH1 0x32 PUSH1 0x4 MSTORE PUSH1 0x24 PUSH1 0x0 REVERT JUMPDEST PUSH1 0x20 MUL PUSH1 0x20 ADD ADD DUP2 SWAP1 MSTORE POP PUSH1 0x40 MLOAD DUP1 PUSH1 0x40 ADD PUSH1 0x40 MSTORE DUP1 PUSH32 0x21C87FF8E57AA4F1EE86E940A101525512242A6C103FFF74BF50D32DEBFB0C33 DUP2 MSTORE PUSH1 0x20 ADD PUSH32 0xAA54D1DF84AE561EEFABD0D9C752BBCABEDF196B41675CF36949DDFC6696922 DUP2 MSTORE POP DUP2 PUSH1 0x80 ADD MLOAD PUSH1 0x16 DUP2 MLOAD DUP2 LT PUSH2 0x124A JUMPI PUSH4 0x4E487B71 PUSH1 0xE0 SHL PUSH1 0x0 MSTORE PUSH1 0x32 PUSH1 0x4 MSTORE PUSH1 0x24 PUSH1 0x0 REVERT JUMPDEST PUSH1 0x20 MUL PUSH1 0x20 ADD ADD DUP2 SWAP1 MSTORE POP PUSH1 0x40 MLOAD DUP1 PUSH1 0x40 ADD PUSH1 0x40 MSTORE DUP1 PUSH32 0x5734EC18779181A931AA5C7A6875F77CE79CFBE186D6B8D569447C685BF253C DUP2 MSTORE PUSH1 0x20 ADD PUSH32 0x2C7BA5C66F823F8F73A102AE0559AE7F08C62467A59A6D17DF5658B5E8D72220 DUP2 MSTORE POP DUP2 PUSH1 0x80 ADD MLOAD PUSH1 0x17 DUP2 MLOAD DUP2 LT PUSH2 0x12CF JUMPI PUSH4 0x4E487B71 PUSH1 0xE0 SHL PUSH1 0x0 MSTORE PUSH1 0x32 PUSH1 0x4 MSTORE PUSH1 0x24 PUSH1 0x0 REVERT JUMPDEST PUSH1 0x20 MUL PUSH1 0x20 ADD ADD DUP2 SWAP1 MSTORE POP PUSH1 0x40 MLOAD DUP1 PUSH1 0x40 ADD PUSH1 0x40 MSTORE DUP1 PUSH32 0x21005BF9E02661F10E870839F103CE5A59EA0BD4E16B803CEBC46D140E2529CB DUP2 MSTORE PUSH1 0x20 ADD PUSH32 0x10948FA9FEACF995F01BA66188296B01B5B3AED11D1EC73E35B31DA656335A5B DUP2 MSTORE POP DUP2 PUSH1 0x80 ADD MLOAD PUSH1 0x18 DUP2 MLOAD DUP2 LT PUSH2 0x1354 JUMPI PUSH4 0x4E487B71 PUSH1 0xE0 SHL PUSH1 0x0 MSTORE PUSH1 0x32 PUSH1 0x4 MSTORE PUSH1 0x24 PUSH1 0x0 REVERT JUMPDEST PUSH1 0x20 MUL PUSH1 0x20 ADD ADD DUP2 SWAP1 MSTORE POP PUSH1 0x40 MLOAD DUP1 PUSH1 0x40 ADD PUSH1 0x40 MSTORE DUP1 PUSH32 0xC7ED9675D6A57D4DEC32A340BB0BBE2274BD37440645FDD21787C073EFB2461 DUP2 MSTORE PUSH1 0x20 ADD PUSH32 0x2C8FF1A5B6AA18DE7BF934A256FDE4D9833475FE272B25353574CE8DCA0EC7C6 DUP2 MSTORE POP DUP2 PUSH1 0x80 ADD MLOAD PUSH1 0x19 DUP2 MLOAD DUP2 LT PUSH2 0x13D9 JUMPI PUSH4 0x4E487B71 PUSH1 0xE0 SHL PUSH1 0x0 MSTORE PUSH1 0x32 PUSH1 0x4 MSTORE PUSH1 0x24 PUSH1 0x0 REVERT JUMPDEST PUSH1 0x20 MUL PUSH1 0x20 ADD ADD DUP2 SWAP1 MSTORE POP PUSH1 0x40 MLOAD DUP1 PUSH1 0x40 ADD PUSH1 0x40 MSTORE DUP1 PUSH32 0x109744880AEE7BAA792ACE04B3C2816B9A1BE6D653FB9DF490D59F706737A19D DUP2 MSTORE PUSH1 0x20 ADD PUSH32 0x138EECA8FD6172E01AF1771D6A19782B6C986322DA6C7F7029382C68163E9FBF DUP2 MSTORE POP DUP2 PUSH1 0x80 ADD MLOAD PUSH1 0x1A DUP2 MLOAD DUP2 LT PUSH2 0x145E JUMPI PUSH4 0x4E487B71 PUSH1 0xE0 SHL PUSH1 0x0 MSTORE PUSH1 0x32 PUSH1 0x4 MSTORE PUSH1 0x24 PUSH1 0x0 REVERT JUMPDEST PUSH1 0x20 MUL PUSH1 0x20 ADD ADD DUP2 SWAP1 MSTORE POP PUSH1 0x40 MLOAD DUP1 PUSH1 0x40 ADD PUSH1 0x40 MSTORE DUP1 PUSH32 0x111F8AD3D9A6E95CCAF377E7CEA7F210C0F36A28D7F83D0CC20BE409D79C9484 DUP2 MSTORE PUSH1 0x20 ADD PUSH32 0x493DB215660B34ABEAE359B02DCA52777E365D1CD52E3F53A9A9073A669B8AF DUP2 MSTORE POP DUP2 PUSH1 0x80 ADD MLOAD PUSH1 0x1B DUP2 MLOAD DUP2 LT PUSH2 0x14E3 JUMPI PUSH4 0x4E487B71 PUSH1 0xE0 SHL PUSH1 0x0 MSTORE PUSH1 0x32 PUSH1 0x4 MSTORE PUSH1 0x24 PUSH1 0x0 REVERT JUMPDEST PUSH1 0x20 MUL PUSH1 0x20 ADD ADD DUP2 SWAP1 MSTORE POP PUSH1 0x40 MLOAD DUP1 PUSH1 0x40 ADD PUSH1 0x40 MSTORE DUP1 PUSH32 0x2C6FA4D95D2182E401540CDC50AC03671E233F4DE7703FAA37A5471AE0877CC6 DUP2 MSTORE PUSH1 0x20 ADD PUSH32 0x25E47C0FCD2A16189ADF0C36C152B007F2A479D33CE4754FDD7A713499F588C7 DUP2 MSTORE POP DUP2 PUSH1 0x80 ADD MLOAD PUSH1 0x1C DUP2 MLOAD DUP2 LT PUSH2 0x1568 JUMPI PUSH4 0x4E487B71 PUSH1 0xE0 SHL PUSH1 0x0 MSTORE PUSH1 0x32 PUSH1 0x4 MSTORE PUSH1 0x24 PUSH1 0x0 REVERT JUMPDEST PUSH1 0x20 MUL PUSH1 0x20 ADD ADD DUP2 SWAP1 MSTORE POP PUSH1 0x40 MLOAD DUP1 PUSH1 0x40 ADD PUSH1 0x40 MSTORE DUP1 PUSH32 0x3935F95761CCD2E3631155C2BE247812127EF74EE5164C388D0C097A9CC28C4 DUP2 MSTORE PUSH1 0x20 ADD PUSH31 0x29B51FCA3FC45B994A52DC82E246E4827C1D2C2F6D541DDC57137F2708976 DUP2 MSTORE POP DUP2 PUSH1 0x80 ADD MLOAD PUSH1 0x1D DUP2 MLOAD DUP2 LT PUSH2 0x15EC JUMPI PUSH4 0x4E487B71 PUSH1 0xE0 SHL PUSH1 0x0 MSTORE PUSH1 0x32 PUSH1 0x4 MSTORE PUSH1 0x24 PUSH1 0x0 REVERT JUMPDEST PUSH1 0x20 MUL PUSH1 0x20 ADD ADD DUP2 SWAP1 MSTORE POP PUSH1 0x40 MLOAD DUP1 PUSH1 0x40 ADD PUSH1 0x40 MSTORE DUP1 PUSH32 0x18E1EE4FA76EDEC3C48B2EA16B02E55743ADDB0EDF4578BABA5C1C9AB07EAEC5 DUP2 MSTORE PUSH1 0x20 ADD PUSH32 0x1CBC32BE5C04E6C825B87FB8A6B1A229645FDC7193D6675D675F7FC26A154D11 DUP2 MSTORE POP DUP2 PUSH1 0x80 ADD MLOAD PUSH1 0x1E DUP2 MLOAD DUP2 LT PUSH2 0x1671 JUMPI PUSH4 0x4E487B71 PUSH1 0xE0 SHL PUSH1 0x0 MSTORE PUSH1 0x32 PUSH1 0x4 MSTORE PUSH1 0x24 PUSH1 0x0 REVERT JUMPDEST PUSH1 0x20 MUL PUSH1 0x20 ADD ADD DUP2 SWAP1 MSTORE POP PUSH1 0x40 MLOAD DUP1 PUSH1 0x40 ADD PUSH1 0x40 MSTORE DUP1 PUSH32 0x1C35CFF36322588F4A543F464DBE507F64CB0ED588B73E68AD159F1417FB077C DUP2 MSTORE PUSH1 0x20 ADD PUSH32 0x723A3C0A9068818123B8FE3A5D505686108D78519A5F9849D6BF279D72BA0A3 DUP2 MSTORE POP DUP2 PUSH1 0x80 ADD MLOAD PUSH1 0x1F DUP2 MLOAD DUP2 LT PUSH2 0x16F6 JUMPI PUSH4 0x4E487B71 PUSH1 0xE0 SHL PUSH1 0x0 MSTORE PUSH1 0x32 PUSH1 0x4 MSTORE PUSH1 0x24 PUSH1 0x0 REVERT JUMPDEST PUSH1 0x20 MUL PUSH1 0x20 ADD ADD DUP2 SWAP1 MSTORE POP PUSH1 0x40 MLOAD DUP1 PUSH1 0x40 ADD PUSH1 0x40 MSTORE DUP1 PUSH32 0x26E9DE99D918B7E83EE40AA4FB9D6D160355435896AF640DD2E09B2F3596F559 DUP2 MSTORE PUSH1 0x20 ADD PUSH32 0x26E18052BC58081EF5A269BCCE35DFF0B609380B8B487E2365985DFDCB4182B3 DUP2 MSTORE POP DUP2 PUSH1 0x80 ADD MLOAD PUSH1 0x20 DUP2 MLOAD DUP2 LT PUSH2 0x177B JUMPI PUSH4 0x4E487B71 PUSH1 0xE0 SHL PUSH1 0x0 MSTORE PUSH1 0x32 PUSH1 0x4 MSTORE PUSH1 0x24 PUSH1 0x0 REVERT JUMPDEST PUSH1 0x20 MUL PUSH1 0x20 ADD ADD DUP2 SWAP1 MSTORE POP PUSH1 0x40 MLOAD DUP1 PUSH1 0x40 ADD PUSH1 0x40 MSTORE DUP1 PUSH32 0x7044FE8C86E07D6D164DB3F365DE729315D660E75C337341937937E836703F3 DUP2 MSTORE PUSH1 0x20 ADD PUSH32 0xDD91FD94BFF0DAC0456CD63E46BC7C05B1DD4E4EDBD1F7A8BDB163EDEEA1099 DUP2 MSTORE POP DUP2 PUSH1 0x80 ADD MLOAD PUSH1 0x21 DUP2 MLOAD DUP2 LT PUSH2 0x1800 JUMPI PUSH4 0x4E487B71 PUSH1 0xE0 SHL PUSH1 0x0 MSTORE PUSH1 0x32 PUSH1 0x4 MSTORE PUSH1 0x24 PUSH1 0x0 REVERT JUMPDEST PUSH1 0x20 MUL PUSH1 0x20 ADD ADD DUP2 SWAP1 MSTORE POP PUSH1 0x40 MLOAD DUP1 PUSH1 0x40 ADD PUSH1 0x40 MSTORE DUP1 PUSH32 0x20AD831BF026AAD38D28198E8DDFC30B98982DE6AB44109C7F7F0AC82E6A33A3 DUP2 MSTORE PUSH1 0x20 ADD PUSH32 0x11997427FF1D144962F6DAB8A411BE331DD3EDFEEBAD0068C64CEAE41F22EF43 DUP2 MSTORE POP DUP2 PUSH1 0x80 ADD MLOAD PUSH1 0x22 DUP2 MLOAD DUP2 LT PUSH2 0x1885 JUMPI PUSH4 0x4E487B71 PUSH1 0xE0 SHL PUSH1 0x0 MSTORE PUSH1 0x32 PUSH1 0x4 MSTORE PUSH1 0x24 PUSH1 0x0 REVERT JUMPDEST PUSH1 0x20 MUL PUSH1 0x20 ADD ADD DUP2 SWAP1 MSTORE POP PUSH1 0x40 MLOAD DUP1 PUSH1 0x40 ADD PUSH1 0x40 MSTORE DUP1 PUSH32 0x16EACD55301CB898B668A4D70281872704690864B39CD692BB3F60D00F9150CF DUP2 MSTORE PUSH1 0x20 ADD PUSH32 0x2462335B9CF230DDC7C1492F7D6C2609CB1836699F74D1DC63BA9339655F225C DUP2 MSTORE POP DUP2 PUSH1 0x80 ADD MLOAD PUSH1 0x23 DUP2 MLOAD DUP2 LT PUSH2 0x190A JUMPI PUSH4 0x4E487B71 PUSH1 0xE0 SHL PUSH1 0x0 MSTORE PUSH1 0x32 PUSH1 0x4 MSTORE PUSH1 0x24 PUSH1 0x0 REVERT JUMPDEST PUSH1 0x20 MUL PUSH1 0x20 ADD ADD DUP2 SWAP1 MSTORE POP PUSH1 0x40 MLOAD DUP1 PUSH1 0x40 ADD PUSH1 0x40 MSTORE DUP1 PUSH32 0x1F58143B420AD298A0318173211F84F3DBEEEA101BE691E8D0205ACE3497B705 DUP2 MSTORE PUSH1 0x20 ADD PUSH32 0xC01D6E238C75220C7EE70B70B9AA6F525623AAEE8A3059B32834E56E2A8E153 DUP2 MSTORE POP DUP2 PUSH1 0x80 ADD MLOAD PUSH1 0x24 DUP2 MLOAD DUP2 LT PUSH2 0x198F JUMPI PUSH4 0x4E487B71 PUSH1 0xE0 SHL PUSH1 0x0 MSTORE PUSH1 0x32 PUSH1 0x4 MSTORE PUSH1 0x24 PUSH1 0x0 REVERT JUMPDEST PUSH1 0x20 MUL PUSH1 0x20 ADD ADD DUP2 SWAP1 MSTORE POP PUSH1 0x40 MLOAD DUP1 PUSH1 0x40 ADD PUSH1 0x40 MSTORE DUP1 PUSH31 0xA5F669B34FB949DD2D1BE6F8AFAF044EA9F65D75C177E639360D73CE14ABB5 DUP2 MSTORE PUSH1 0x20 ADD PUSH32 0x20E34929EE7F163B17339A1DE3978107163B726CE808287103D13EED0ED6B2D8 DUP2 MSTORE POP DUP2 PUSH1 0x80 ADD MLOAD PUSH1 0x25 DUP2 MLOAD DUP2 LT PUSH2 0x1A13 JUMPI PUSH4 0x4E487B71 PUSH1 0xE0 SHL PUSH1 0x0 MSTORE PUSH1 0x32 PUSH1 0x4 MSTORE PUSH1 0x24 PUSH1 0x0 REVERT JUMPDEST PUSH1 0x20 MUL PUSH1 0x20 ADD ADD DUP2 SWAP1 MSTORE POP PUSH1 0x40 MLOAD DUP1 PUSH1 0x40 ADD PUSH1 0x40 MSTORE DUP1 PUSH32 0x298F0870D59E8A9B8B9D30C8586BC0A51BA4E4942EFA2B11FC7024D9A7228EAF DUP2 MSTORE PUSH1 0x20 ADD PUSH32 0x2CDC3ABE37B4D99F0411055909C7D073C31F9534E0A6ACBF9AE2DAE74728C1E1 DUP2 MSTORE POP DUP2 PUSH1 0x80 ADD MLOAD PUSH1 0x26 DUP2 MLOAD DUP2 LT PUSH2 0x1A98 JUMPI PUSH4 0x4E487B71 PUSH1 0xE0 SHL PUSH1 0x0 MSTORE PUSH1 0x32 PUSH1 0x4 MSTORE PUSH1 0x24 PUSH1 0x0 REVERT JUMPDEST PUSH1 0x20 MUL PUSH1 0x20 ADD ADD DUP2 SWAP1 MSTORE POP PUSH1 0x40 MLOAD DUP1 PUSH1 0x40 ADD PUSH1 0x40 MSTORE DUP1 PUSH32 0x2C1FFEEB37BCF86597ACDFDAB34D9E1606BBB2BA58ABEA2D4CC979D45CA9B1DC DUP2 MSTORE PUSH1 0x20 ADD PUSH32 0x1B70B661C182506FE1AF2F93750AE74396B1E3AFD948A781B5BDE2B6CE219EF0 DUP2 MSTORE POP DUP2 PUSH1 0x80 ADD MLOAD PUSH1 0x27 DUP2 MLOAD DUP2 LT PUSH2 0x1B1D JUMPI PUSH4 0x4E487B71 PUSH1 0xE0 SHL PUSH1 0x0 MSTORE PUSH1 0x32 PUSH1 0x4 MSTORE PUSH1 0x24 PUSH1 0x0 REVERT JUMPDEST PUSH1 0x20 MUL PUSH1 0x20 ADD ADD DUP2 SWAP1 MSTORE POP PUSH1 0x40 MLOAD DUP1 PUSH1 0x40 ADD PUSH1 0x40 MSTORE DUP1 PUSH32 0x1E4B8D592B92E69090D21E617BEA69212D36B5184C6326DB05FB55C1CA5286E8 DUP2 MSTORE PUSH1 0x20 ADD PUSH32 0x107F4D8DC684AF96305F429447CDF1C3397EE2EFE06E2F122BE518073F48DAD DUP2 MSTORE POP DUP2 PUSH1 0x80 ADD MLOAD PUSH1 0x28 DUP2 MLOAD DUP2 LT PUSH2 0x1BA2 JUMPI PUSH4 0x4E487B71 PUSH1 0xE0 SHL PUSH1 0x0 MSTORE PUSH1 0x32 PUSH1 0x4 MSTORE PUSH1 0x24 PUSH1 0x0 REVERT JUMPDEST PUSH1 0x20 MUL PUSH1 0x20 ADD ADD DUP2 SWAP1 MSTORE POP PUSH1 0x40 MLOAD DUP1 PUSH1 0x40 ADD PUSH1 0x40 MSTORE DUP1 PUSH32 0x3759A0CB87A74851FD23A26B606304D3FFFE880D1EAEAAB69DCC2F3B4662206 DUP2 MSTORE PUSH1 0x20 ADD PUSH32 0x2CC066ED411AD61E57CBC10B8E52C91154B181DF880C4CD605491A932BCDD999 DUP2 MSTORE POP DUP2 PUSH1 0x80 ADD MLOAD PUSH1 0x29 DUP2 MLOAD DUP2 LT PUSH2 0x1C27 JUMPI PUSH4 0x4E487B71 PUSH1 0xE0 SHL PUSH1 0x0 MSTORE PUSH1 0x32 PUSH1 0x4 MSTORE PUSH1 0x24 PUSH1 0x0 REVERT JUMPDEST PUSH1 0x20 MUL PUSH1 0x20 ADD ADD DUP2 SWAP1 MSTORE POP PUSH1 0x40 MLOAD DUP1 PUSH1 0x40 ADD PUSH1 0x40 MSTORE DUP1 PUSH32 0x2355BFF9FBAF05CA60DB09AC9AF01F344CA57F19C3E0D9D234B1F48A4E0C5E3E DUP2 MSTORE PUSH1 0x20 ADD PUSH32 0x26F11173F5EC67AFEFEF0A32582C31BF9D9B0A8FA66850C73DA0C5618235EB59 DUP2 MSTORE POP DUP2 PUSH1 0x80 ADD MLOAD PUSH1 0x2A DUP2 MLOAD DUP2 LT PUSH2 0x1CAC JUMPI PUSH4 0x4E487B71 PUSH1 0xE0 SHL PUSH1 0x0 MSTORE PUSH1 0x32 PUSH1 0x4 MSTORE PUSH1 0x24 PUSH1 0x0 REVERT JUMPDEST PUSH1 0x20 MUL PUSH1 0x20 ADD ADD DUP2 SWAP1 MSTORE POP PUSH1 0x40 MLOAD DUP1 PUSH1 0x40 ADD PUSH1 0x40 MSTORE DUP1 PUSH32 0x2EC54C84A63CA58669C3E4F4CAAD9B8EBCA8714CA64316475BCC3E8111317C78 DUP2 MSTORE PUSH1 0x20 ADD PUSH32 0x17CD848978C8AB029D6A54DDEE655ED3BA111AFF239CFCF0356397B84AA22669 DUP2 MSTORE POP DUP2 PUSH1 0x80 ADD MLOAD PUSH1 0x2B DUP2 MLOAD DUP2 LT PUSH2 0x1D31 JUMPI PUSH4 0x4E487B71 PUSH1 0xE0 SHL PUSH1 0x0 MSTORE PUSH1 0x32 PUSH1 0x4 MSTORE PUSH1 0x24 PUSH1 0x0 REVERT JUMPDEST PUSH1 0x20 MUL PUSH1 0x20 ADD ADD DUP2 SWAP1 MSTORE POP PUSH1 0x40 MLOAD DUP1 PUSH1 0x40 ADD PUSH1 0x40 MSTORE DUP1 PUSH32 0x2E5112E8F2623AA1B146EB236FF7966AAB29B33A250DC6D26A256A4962E0CC79 DUP2 MSTORE PUSH1 0x20 ADD PUSH32 0x7C6F9F310F6C0685E29C23F0CB32CA65FC038A45CD8F9F5429107BE45F55E5D DUP2 MSTORE POP DUP2 PUSH1 0x80 ADD MLOAD PUSH1 0x2C DUP2 MLOAD DUP2 LT PUSH2 0x1DB6 JUMPI PUSH4 0x4E487B71 PUSH1 0xE0 SHL PUSH1 0x0 MSTORE PUSH1 0x32 PUSH1 0x4 MSTORE PUSH1 0x24 PUSH1 0x0 REVERT JUMPDEST PUSH1 0x20 MUL PUSH1 0x20 ADD ADD DUP2 SWAP1 MSTORE POP PUSH1 0x40 MLOAD DUP1 PUSH1 0x40 ADD PUSH1 0x40 MSTORE DUP1 PUSH32 0x249B78D82EF52EEFEC003807B1A9473FB3CEBD82B0C57B99A2A89E8D1570558F DUP2 MSTORE PUSH1 0x20 ADD PUSH32 0x7B93A0D5646F1BF36E31DF7D759D0D3B6A2A894B27D233DEE03E59679EC1C0E DUP2 MSTORE POP DUP2 PUSH1 0x80 ADD MLOAD PUSH1 0x2D DUP2 MLOAD DUP2 LT PUSH2 0x1E3B JUMPI PUSH4 0x4E487B71 PUSH1 0xE0 SHL PUSH1 0x0 MSTORE PUSH1 0x32 PUSH1 0x4 MSTORE PUSH1 0x24 PUSH1 0x0 REVERT JUMPDEST PUSH1 0x20 MUL PUSH1 0x20 ADD ADD DUP2 SWAP1 MSTORE POP PUSH1 0x40 MLOAD DUP1 PUSH1 0x40 ADD PUSH1 0x40 MSTORE DUP1 PUSH32 0x1BC28B3C30CFFD42744AA60385B50EE9E1B30645229D7019BA544B19FE16AC88 DUP2 MSTORE PUSH1 0x20 ADD PUSH31 0xFD87C2D1C73A662188F334E641BCCD1C286CF2ED22B643AFA644A130EA51F6 DUP2 MSTORE POP DUP2 PUSH1 0x80 ADD MLOAD PUSH1 0x2E DUP2 MLOAD DUP2 LT PUSH2 0x1EBF JUMPI PUSH4 0x4E487B71 PUSH1 0xE0 SHL PUSH1 0x0 MSTORE PUSH1 0x32 PUSH1 0x4 MSTORE PUSH1 0x24 PUSH1 0x0 REVERT JUMPDEST PUSH1 0x20 MUL PUSH1 0x20 ADD ADD DUP2 SWAP1 MSTORE POP PUSH1 0x40 MLOAD DUP1 PUSH1 0x40 ADD PUSH1 0x40 MSTORE DUP1 PUSH32 0x127A9D02665028DC5DABC6FE800F30201C8F43D7CA09F5D4BA1B0C153F52509A DUP2 MSTORE PUSH1 0x20 ADD PUSH32 0xA7B3F969D87CA00D7F8E7602ECD4185B906EB25A96527F5A4F52A5A26B692D5 DUP2 MSTORE POP DUP2 PUSH1 0x80 ADD MLOAD PUSH1 0x2F DUP2 MLOAD DUP2 LT PUSH2 0x1F44 JUMPI PUSH4 0x4E487B71 PUSH1 0xE0 SHL PUSH1 0x0 MSTORE PUSH1 0x32 PUSH1 0x4 MSTORE PUSH1 0x24 PUSH1 0x0 REVERT JUMPDEST PUSH1 0x20 MUL PUSH1 0x20 ADD ADD DUP2 SWAP1 MSTORE POP PUSH1 0x40 MLOAD DUP1 PUSH1 0x40 ADD PUSH1 0x40 MSTORE DUP1 PUSH32 0xC8480F1289CC7BF66A2438961075924333471A4F5864EFAF196E5983E9E0A59 DUP2 MSTORE PUSH1 0x20 ADD PUSH32 0x1654A8A2D1FEB9244D94A7B0D3B49A05BE6336A1E435B7B0222AF9D5C122618 DUP2 MSTORE POP DUP2 PUSH1 0x80 ADD MLOAD PUSH1 0x30 DUP2 MLOAD DUP2 LT PUSH2 0x1FC9 JUMPI PUSH4 0x4E487B71 PUSH1 0xE0 SHL PUSH1 0x0 MSTORE PUSH1 0x32 PUSH1 0x4 MSTORE PUSH1 0x24 PUSH1 0x0 REVERT JUMPDEST PUSH1 0x20 MUL PUSH1 0x20 ADD ADD DUP2 SWAP1 MSTORE POP PUSH1 0x40 MLOAD DUP1 PUSH1 0x40 ADD PUSH1 0x40 MSTORE DUP1 PUSH32 0x21E82D8C802B99923356076CFDD0C6F26ADF49D755F5B4724E4B46029C78232 DUP2 MSTORE PUSH1 0x20 ADD PUSH32 0x2FC04EEF26951E09CB316CF65157FF248DA89011AD8BC3976E62BEC0A63EAC1E DUP2 MSTORE POP DUP2 PUSH1 0x80 ADD MLOAD PUSH1 0x31 DUP2 MLOAD DUP2 LT PUSH2 0x204E JUMPI PUSH4 0x4E487B71 PUSH1 0xE0 SHL PUSH1 0x0 MSTORE PUSH1 0x32 PUSH1 0x4 MSTORE PUSH1 0x24 PUSH1 0x0 REVERT JUMPDEST PUSH1 0x20 MUL PUSH1 0x20 ADD ADD DUP2 SWAP1 MSTORE POP PUSH1 0x40 MLOAD DUP1 PUSH1 0x40 ADD PUSH1 0x40 MSTORE DUP1 PUSH32 0x14074785054FEA4198FF0A4BB6753A4BFA86CC33E9D308B9D07A0C578798B609 DUP2 MSTORE PUSH1 0x20 ADD PUSH32 0x11277B3CD02C27AEB2A8B6709AACF38FC63DB592735A3CC51C2C9328283C436D DUP2 MSTORE POP DUP2 PUSH1 0x80 ADD MLOAD PUSH1 0x32 DUP2 MLOAD DUP2 LT PUSH2 0x20D3 JUMPI PUSH4 0x4E487B71 PUSH1 0xE0 SHL PUSH1 0x0 MSTORE PUSH1 0x32 PUSH1 0x4 MSTORE PUSH1 0x24 PUSH1 0x0 REVERT JUMPDEST PUSH1 0x20 MUL PUSH1 0x20 ADD ADD DUP2 SWAP1 MSTORE POP PUSH1 0x40 MLOAD DUP1 PUSH1 0x40 ADD PUSH1 0x40 MSTORE DUP1 PUSH32 0x27CBBEFBD05996349F6352E0CCE360E9D1BAC3E04878C547ED85B9B2F038826B DUP2 MSTORE PUSH1 0x20 ADD PUSH32 0x146C59444F7DE74A8BC9C878E2AA56894611E0AB5A9B1C1A524CABFC1B37A590 DUP2 MSTORE POP DUP2 PUSH1 0x80 ADD MLOAD PUSH1 0x33 DUP2 MLOAD DUP2 LT PUSH2 0x2158 JUMPI PUSH4 0x4E487B71 PUSH1 0xE0 SHL PUSH1 0x0 MSTORE PUSH1 0x32 PUSH1 0x4 MSTORE PUSH1 0x24 PUSH1 0x0 REVERT JUMPDEST PUSH1 0x20 MUL PUSH1 0x20 ADD ADD DUP2 SWAP1 MSTORE POP PUSH1 0x40 MLOAD DUP1 PUSH1 0x40 ADD PUSH1 0x40 MSTORE DUP1 PUSH32 0x1EAD409EB539459ACBC43F0128ED1D4AE4C9C78D6481914C2261947B3F760638 DUP2 MSTORE PUSH1 0x20 ADD PUSH32 0x7BB6363C5CA4BE2DA79E347ED7E00BFCA42E6096257B13EBEAE124CECAFD589 DUP2 MSTORE POP DUP2 PUSH1 0x80 ADD MLOAD PUSH1 0x34 DUP2 MLOAD DUP2 LT PUSH2 0x21DD JUMPI PUSH4 0x4E487B71 PUSH1 0xE0 SHL PUSH1 0x0 MSTORE PUSH1 0x32 PUSH1 0x4 MSTORE PUSH1 0x24 PUSH1 0x0 REVERT JUMPDEST PUSH1 0x20 MUL PUSH1 0x20 ADD ADD DUP2 SWAP1 MSTORE POP PUSH1 0x40 MLOAD DUP1 PUSH1 0x40 ADD PUSH1 0x40 MSTORE DUP1 PUSH32 0x28C8D0D83234BCD9E79146611C89F03F40FC0DFDAAB74D3CB41AFBA79778D324 DUP2 MSTORE PUSH1 0x20 ADD PUSH32 0x25C16EEE152FB7331DF3A055BBC65058239513EC828919B4FEFC739AA4B359FE DUP2 MSTORE POP DUP2 PUSH1 0x80 ADD MLOAD PUSH1 0x35 DUP2 MLOAD DUP2 LT PUSH2 0x2262 JUMPI PUSH4 0x4E487B71 PUSH1 0xE0 SHL PUSH1 0x0 MSTORE PUSH1 0x32 PUSH1 0x4 MSTORE PUSH1 0x24 PUSH1 0x0 REVERT JUMPDEST PUSH1 0x20 MUL PUSH1 0x20 ADD ADD DUP2 SWAP1 MSTORE POP PUSH1 0x40 MLOAD DUP1 PUSH1 0x40 ADD PUSH1 0x40 MSTORE DUP1 PUSH32 0x1C6970BA9F813943B2039CDD41357810234EB1269410282BA53693642BC6154F DUP2 MSTORE PUSH1 0x20 ADD PUSH32 0x293286A60C8CCD40D6B790CF618593CF7A12ABD45F782A056124CE135365352D DUP2 MSTORE POP DUP2 PUSH1 0x80 ADD MLOAD PUSH1 0x36 DUP2 MLOAD DUP2 LT PUSH2 0x22E7 JUMPI PUSH4 0x4E487B71 PUSH1 0xE0 SHL PUSH1 0x0 MSTORE PUSH1 0x32 PUSH1 0x4 MSTORE PUSH1 0x24 PUSH1 0x0 REVERT JUMPDEST PUSH1 0x20 MUL PUSH1 0x20 ADD ADD DUP2 SWAP1 MSTORE POP PUSH1 0x40 MLOAD DUP1 PUSH1 0x40 ADD PUSH1 0x40 MSTORE DUP1 PUSH32 0x2679C7E6F429AC4DEF72005185AE7E559847CE8ACCA24F476E13EBB913FDB0FA DUP2 MSTORE PUSH1 0x20 ADD PUSH32 0x13D1980CF45CD98E5FA78AD1573B0B8111A96E2CA06D742B63C1FF5CD7A0A7BA DUP2 MSTORE POP DUP2 PUSH1 0x80 ADD MLOAD PUSH1 0x37 DUP2 MLOAD DUP2 LT PUSH2 0x236C JUMPI PUSH4 0x4E487B71 PUSH1 0xE0 SHL PUSH1 0x0 MSTORE PUSH1 0x32 PUSH1 0x4 MSTORE PUSH1 0x24 PUSH1 0x0 REVERT JUMPDEST PUSH1 0x20 MUL PUSH1 0x20 ADD ADD DUP2 SWAP1 MSTORE POP PUSH1 0x40 MLOAD DUP1 PUSH1 0x40 ADD PUSH1 0x40 MSTORE DUP1 PUSH32 0x27F70CA3ED1334113CF29EA1447FC42606B658A27CDD41389F8AF0D4C4803767 DUP2 MSTORE PUSH1 0x20 ADD PUSH32 0x880F27D16622BDC2784AE6014223EE1C3119D1656A7ED09FB3E5CF414C9476C DUP2 MSTORE POP DUP2 PUSH1 0x80 ADD MLOAD PUSH1 0x38 DUP2 MLOAD DUP2 LT PUSH2 0x23F1 JUMPI PUSH4 0x4E487B71 PUSH1 0xE0 SHL PUSH1 0x0 MSTORE PUSH1 0x32 PUSH1 0x4 MSTORE PUSH1 0x24 PUSH1 0x0 REVERT JUMPDEST PUSH1 0x20 MUL PUSH1 0x20 ADD ADD DUP2 SWAP1 MSTORE POP PUSH1 0x40 MLOAD DUP1 PUSH1 0x40 ADD PUSH1 0x40 MSTORE DUP1 PUSH31 0x2BDFCCE7743B73A59F72C06E93418009ACB8711953FF5AC0EB2EFBC674A850 DUP2 MSTORE PUSH1 0x20 ADD PUSH32 0xDC8548E5C6F0495C8414D1D48544924CCA5A9476E353BC27BB7AE74BFBE8AB3 DUP2 MSTORE POP DUP2 PUSH1 0x80 ADD MLOAD PUSH1 0x39 DUP2 MLOAD DUP2 LT PUSH2 0x2475 JUMPI PUSH4 0x4E487B71 PUSH1 0xE0 SHL PUSH1 0x0 MSTORE PUSH1 0x32 PUSH1 0x4 MSTORE PUSH1 0x24 PUSH1 0x0 REVERT JUMPDEST PUSH1 0x20 MUL PUSH1 0x20 ADD ADD DUP2 SWAP1 MSTORE POP PUSH1 0x40 MLOAD DUP1 PUSH1 0x40 ADD PUSH1 0x40 MSTORE DUP1 PUSH32 0x2B71B482D41366AB3F225676917B7D72F6F955A885CF6C636ACEDEBB04A3E769 DUP2 MSTORE PUSH1 0x20 ADD PUSH32 0x18358AB9E4B3F9CCD9991B8B1CCB44508A67841FC49893BED5092D2C71A548D9 DUP2 MSTORE POP DUP2 PUSH1 0x80 ADD MLOAD PUSH1 0x3A DUP2 MLOAD DUP2 LT PUSH2 0x24FA JUMPI PUSH4 0x4E487B71 PUSH1 0xE0 SHL PUSH1 0x0 MSTORE PUSH1 0x32 PUSH1 0x4 MSTORE PUSH1 0x24 PUSH1 0x0 REVERT JUMPDEST PUSH1 0x20 MUL PUSH1 0x20 ADD ADD DUP2 SWAP1 MSTORE POP PUSH1 0x40 MLOAD DUP1 PUSH1 0x40 ADD PUSH1 0x40 MSTORE DUP1 PUSH32 0x90AC55DABF092057045C69394B406080A4150EA3202C6AA6187486043385A91 DUP2 MSTORE PUSH1 0x20 ADD PUSH32 0x246B393CA3D7C98EED2AEAD1E77F4A57238411DDB4DCF181BF65F9D6BB46684E DUP2 MSTORE POP DUP2 PUSH1 0x80 ADD MLOAD PUSH1 0x3B DUP2 MLOAD DUP2 LT PUSH2 0x257F JUMPI PUSH4 0x4E487B71 PUSH1 0xE0 SHL PUSH1 0x0 MSTORE PUSH1 0x32 PUSH1 0x4 MSTORE PUSH1 0x24 PUSH1 0x0 REVERT JUMPDEST PUSH1 0x20 MUL PUSH1 0x20 ADD ADD DUP2 SWAP1 MSTORE POP PUSH1 0x40 MLOAD DUP1 PUSH1 0x40 ADD PUSH1 0x40 MSTORE DUP1 PUSH32 0x7E03F4CB0BDAEC7DDA2902882C3C19AB5A3BC7C8F389D083A1E6E2F28665E4A DUP2 MSTORE PUSH1 0x20 ADD PUSH32 0x140755BC41A363B8AAE2F8ADF083DAE6E1C2980978EF722DA4FD62D788FA05F DUP2 MSTORE POP DUP2 PUSH1 0x80 ADD MLOAD PUSH1 0x3C DUP2 MLOAD DUP2 LT PUSH2 0x2604 JUMPI PUSH4 0x4E487B71 PUSH1 0xE0 SHL PUSH1 0x0 MSTORE PUSH1 0x32 PUSH1 0x4 MSTORE PUSH1 0x24 PUSH1 0x0 REVERT JUMPDEST PUSH1 0x20 MUL PUSH1 0x20 ADD ADD DUP2 SWAP1 MSTORE POP PUSH1 0x40 MLOAD DUP1 PUSH1 0x40 ADD PUSH1 0x40 MSTORE DUP1 PUSH32 0x11673F94081DAC3615769F040A3FE39CA3F42E816BDF7A723BD3F07E591EBABE DUP2 MSTORE PUSH1 0x20 ADD PUSH32 0x77DC245EFAF6BB53A3228C19135829590F621114959C81A230CB53071A14709 DUP2 MSTORE POP DUP2 PUSH1 0x80 ADD MLOAD PUSH1 0x3D DUP2 MLOAD DUP2 LT PUSH2 0x2689 JUMPI PUSH4 0x4E487B71 PUSH1 0xE0 SHL PUSH1 0x0 MSTORE PUSH1 0x32 PUSH1 0x4 MSTORE PUSH1 0x24 PUSH1 0x0 REVERT JUMPDEST PUSH1 0x20 MUL PUSH1 0x20 ADD ADD DUP2 SWAP1 MSTORE POP PUSH1 0x40 MLOAD DUP1 PUSH1 0x40 ADD PUSH1 0x40 MSTORE DUP1 PUSH32 0xFDC44822A5F65F24167CBEC084D1E0EADD4D2D1F8CBE2ECDC3ABD4DB14CD616 DUP2 MSTORE PUSH1 0x20 ADD PUSH32 0x195281C2D73A75A5A4CFFF556410C94CFB9D882C8940D2D7390DDA2ECCCE4BCD DUP2 MSTORE POP DUP2 PUSH1 0x80 ADD MLOAD PUSH1 0x3E DUP2 MLOAD DUP2 LT PUSH2 0x270E JUMPI PUSH4 0x4E487B71 PUSH1 0xE0 SHL PUSH1 0x0 MSTORE PUSH1 0x32 PUSH1 0x4 MSTORE PUSH1 0x24 PUSH1 0x0 REVERT JUMPDEST PUSH1 0x20 MUL PUSH1 0x20 ADD ADD DUP2 SWAP1 MSTORE POP PUSH1 0x40 MLOAD DUP1 PUSH1 0x40 ADD PUSH1 0x40 MSTORE DUP1 PUSH32 0x11C0D6F76F5B5233AE9B8434712A9FF10EF43E1D9698C2048373B5B08141CF17 DUP2 MSTORE PUSH1 0x20 ADD PUSH32 0x2FFF92D4C2B15F2AB5E7BA0C7D7A33701559A2B23A2E92AEB570BF81CA963370 DUP2 MSTORE POP DUP2 PUSH1 0x80 ADD MLOAD PUSH1 0x3F DUP2 MLOAD DUP2 LT PUSH2 0x2793 JUMPI PUSH4 0x4E487B71 PUSH1 0xE0 SHL PUSH1 0x0 MSTORE PUSH1 0x32 PUSH1 0x4 MSTORE PUSH1 0x24 PUSH1 0x0 REVERT JUMPDEST PUSH1 0x20 MUL PUSH1 0x20 ADD ADD DUP2 SWAP1 MSTORE POP PUSH1 0x40 MLOAD DUP1 PUSH1 0x40 ADD PUSH1 0x40 MSTORE DUP1 PUSH32 0x16AA7CDEBDBE518B63923BE2C80D9D45F9A2136335EE0B105243E22A9126DE64 DUP2 MSTORE PUSH1 0x20 ADD PUSH32 0x5202C9B8CC03A55446839BB4A7C8E03387F8C0085B1D0A66120A372B3BBAD1B DUP2 MSTORE POP DUP2 PUSH1 0x80 ADD MLOAD PUSH1 0x40 DUP2 MLOAD DUP2 LT PUSH2 0x2818 JUMPI PUSH4 0x4E487B71 PUSH1 0xE0 SHL PUSH1 0x0 MSTORE PUSH1 0x32 PUSH1 0x4 MSTORE PUSH1 0x24 PUSH1 0x0 REVERT JUMPDEST PUSH1 0x20 MUL PUSH1 0x20 ADD ADD DUP2 SWAP1 MSTORE POP PUSH1 0x40 MLOAD DUP1 PUSH1 0x40 ADD PUSH1 0x40 MSTORE DUP1 PUSH32 0x12887EF733DB64F581D0FF13CD51FCD2174BA3EDDD8B8F68677EA076B1B95B57 DUP2 MSTORE PUSH1 0x20 ADD PUSH32 0x2CA654AA619C4B044E5AA70C2B646F494659832A08394764190EFA4A78D4D216 DUP2 MSTORE POP DUP2 PUSH1 0x80 ADD MLOAD PUSH1 0x41 DUP2 MLOAD DUP2 LT PUSH2 0x289D JUMPI PUSH4 0x4E487B71 PUSH1 0xE0 SHL PUSH1 0x0 MSTORE PUSH1 0x32 PUSH1 0x4 MSTORE PUSH1 0x24 PUSH1 0x0 REVERT JUMPDEST PUSH1 0x20 MUL PUSH1 0x20 ADD ADD DUP2 SWAP1 MSTORE POP PUSH1 0x40 MLOAD DUP1 PUSH1 0x40 ADD PUSH1 0x40 MSTORE DUP1 PUSH32 0x789E9B0D1B0035614C9036502C03DE9E8A4839976300A573824C7151CC717CD DUP2 MSTORE PUSH1 0x20 ADD PUSH32 0xE71B2F84DFAD369636FA09A26D30657C025E27494B45EF913031665152C9DF8 DUP2 MSTORE POP DUP2 PUSH1 0x80 ADD MLOAD PUSH1 0x42 DUP2 MLOAD DUP2 LT PUSH2 0x2922 JUMPI PUSH4 0x4E487B71 PUSH1 0xE0 SHL PUSH1 0x0 MSTORE PUSH1 0x32 PUSH1 0x4 MSTORE PUSH1 0x24 PUSH1 0x0 REVERT JUMPDEST PUSH1 0x20 MUL PUSH1 0x20 ADD ADD DUP2 SWAP1 MSTORE POP PUSH1 0x40 MLOAD DUP1 PUSH1 0x40 ADD PUSH1 0x40 MSTORE DUP1 PUSH32 0x2BFF35FDCA394D3F211B639F2D5DA0F236D181E91E6204A8AED3A92846407806 DUP2 MSTORE PUSH1 0x20 ADD PUSH32 0xFB8CCF691B5A5A542DAB2F347ADB42EAFF4153C4711914BF2AD629ECC541DD6 DUP2 MSTORE POP DUP2 PUSH1 0x80 ADD MLOAD PUSH1 0x43 DUP2 MLOAD DUP2 LT PUSH2 0x29A7 JUMPI PUSH4 0x4E487B71 PUSH1 0xE0 SHL PUSH1 0x0 MSTORE PUSH1 0x32 PUSH1 0x4 MSTORE PUSH1 0x24 PUSH1 0x0 REVERT JUMPDEST PUSH1 0x20 MUL PUSH1 0x20 ADD ADD DUP2 SWAP1 MSTORE POP PUSH1 0x40 MLOAD DUP1 PUSH1 0x40 ADD PUSH1 0x40 MSTORE DUP1 PUSH32 0x2F072F31F58E1F0842F7A03C6D4BE70C9E5CB72D299CB21CB29FC15C03A293E3 DUP2 MSTORE PUSH1 0x20 ADD PUSH32 0x5F1AB341DCE161E9CE3076305C1A4E208DDD8B1AEA5DB06F840A22438341178 DUP2 MSTORE POP DUP2 PUSH1 0x80 ADD MLOAD PUSH1 0x44 DUP2 MLOAD DUP2 LT PUSH2 0x2A2C JUMPI PUSH4 0x4E487B71 PUSH1 0xE0 SHL PUSH1 0x0 MSTORE PUSH1 0x32 PUSH1 0x4 MSTORE PUSH1 0x24 PUSH1 0x0 REVERT JUMPDEST PUSH1 0x20 MUL PUSH1 0x20 ADD ADD DUP2 SWAP1 MSTORE POP PUSH1 0x40 MLOAD DUP1 PUSH1 0x40 ADD PUSH1 0x40 MSTORE DUP1 PUSH32 0xD03AF378DD4989E47B57187862A1BE725F838A204F93C09A301389DECEB17E2 DUP2 MSTORE PUSH1 0x20 ADD PUSH32 0xDFC7908EF62C8E011892D527BE1E123F675E45E52C8C92038C316C0B442213A DUP2 MSTORE POP DUP2 PUSH1 0x80 ADD MLOAD PUSH1 0x45 DUP2 MLOAD DUP2 LT PUSH2 0x2AB1 JUMPI PUSH4 0x4E487B71 PUSH1 0xE0 SHL PUSH1 0x0 MSTORE PUSH1 0x32 PUSH1 0x4 MSTORE PUSH1 0x24 PUSH1 0x0 REVERT JUMPDEST PUSH1 0x20 MUL PUSH1 0x20 ADD ADD DUP2 SWAP1 MSTORE POP PUSH1 0x40 MLOAD DUP1 PUSH1 0x40 ADD PUSH1 0x40 MSTORE DUP1 PUSH32 0x1D06B21860E1D6D452E8603223372AE88E70E9672A3E654A27DD176D56A211A3 DUP2 MSTORE PUSH1 0x20 ADD PUSH32 0x28C71ED5113CAED96EF099CEB5C4B5C28E357423F4215BB9CFD643E7D9948995 DUP2 MSTORE POP DUP2 PUSH1 0x80 ADD MLOAD PUSH1 0x46 DUP2 MLOAD DUP2 LT PUSH2 0x2B36 JUMPI PUSH4 0x4E487B71 PUSH1 0xE0 SHL PUSH1 0x0 MSTORE PUSH1 0x32 PUSH1 0x4 MSTORE PUSH1 0x24 PUSH1 0x0 REVERT JUMPDEST PUSH1 0x20 MUL PUSH1 0x20 ADD ADD DUP2 SWAP1 MSTORE POP PUSH1 0x40 MLOAD DUP1 PUSH1 0x40 ADD PUSH1 0x40 MSTORE DUP1 PUSH32 0x18ECE9E05EEC96C4E88EA89F184057130E94F1AE9A4A0273175292351F3A0804 DUP2 MSTORE PUSH1 0x20 ADD PUSH32 0x1E202F7FF0361C86E8C17B5A3B7D820FF5195D5CE2FDFE981A6A8BD54F654D1C DUP2 MSTORE POP DUP2 PUSH1 0x80 ADD MLOAD PUSH1 0x47 DUP2 MLOAD DUP2 LT PUSH2 0x2BBB JUMPI PUSH4 0x4E487B71 PUSH1 0xE0 SHL PUSH1 0x0 MSTORE PUSH1 0x32 PUSH1 0x4 MSTORE PUSH1 0x24 PUSH1 0x0 REVERT JUMPDEST PUSH1 0x20 MUL PUSH1 0x20 ADD ADD DUP2 SWAP1 MSTORE POP PUSH1 0x40 MLOAD DUP1 PUSH1 0x40 ADD PUSH1 0x40 MSTORE DUP1 PUSH32 0x2EC1EB0788CB596B40B0F87D2BEC5E4313F184F4A19BF1159FD6EB90C8E0F303 DUP2 MSTORE PUSH1 0x20 ADD PUSH32 0x2FFF2F89CF20ED786408F1097ABF8738070A9777BC83E4BAD5404B675E4FC0F6 DUP2 MSTORE POP DUP2 PUSH1 0x80 ADD MLOAD PUSH1 0x48 DUP2 MLOAD DUP2 LT PUSH2 0x2C40 JUMPI PUSH4 0x4E487B71 PUSH1 0xE0 SHL PUSH1 0x0 MSTORE PUSH1 0x32 PUSH1 0x4 MSTORE PUSH1 0x24 PUSH1 0x0 REVERT JUMPDEST PUSH1 0x20 MUL PUSH1 0x20 ADD ADD DUP2 SWAP1 MSTORE POP PUSH1 0x40 MLOAD DUP1 PUSH1 0x40 ADD PUSH1 0x40 MSTORE DUP1 PUSH32 0xF7B5CDBF70750CEE22E1DB8397C08466AB555376335F844208AAD58596407B9 DUP2 MSTORE PUSH1 0x20 ADD PUSH32 0xD6961A80A874B29FF45A4243AF47937351F0EF60075BD6A82B9B69EA251EE4B DUP2 MSTORE POP DUP2 PUSH1 0x80 ADD MLOAD PUSH1 0x49 DUP2 MLOAD DUP2 LT PUSH2 0x2CC5 JUMPI PUSH4 0x4E487B71 PUSH1 0xE0 SHL PUSH1 0x0 MSTORE PUSH1 0x32 PUSH1 0x4 MSTORE PUSH1 0x24 PUSH1 0x0 REVERT JUMPDEST PUSH1 0x20 MUL PUSH1 0x20 ADD ADD DUP2 SWAP1 MSTORE POP PUSH1 0x40 MLOAD DUP1 PUSH1 0x40 ADD PUSH1 0x40 MSTORE DUP1 PUSH32 0x1AAE8A628EC6958F1D37A6F49B619878E858C0CA6A17077943F6A23AB0761571 DUP2 MSTORE PUSH1 0x20 ADD PUSH32 0x1FD26DE3AA935C84072C7932DFC0F872A53FD8799F67DF5E8164836B7BD0F7A5 DUP2 MSTORE POP DUP2 PUSH1 0x80 ADD MLOAD PUSH1 0x4A DUP2 MLOAD DUP2 LT PUSH2 0x2D4A JUMPI PUSH4 0x4E487B71 PUSH1 0xE0 SHL PUSH1 0x0 MSTORE PUSH1 0x32 PUSH1 0x4 MSTORE PUSH1 0x24 PUSH1 0x0 REVERT JUMPDEST PUSH1 0x20 MUL PUSH1 0x20 ADD ADD DUP2 SWAP1 MSTORE POP PUSH1 0x40 MLOAD DUP1 PUSH1 0x40 ADD PUSH1 0x40 MSTORE DUP1 PUSH32 0x96EB9D466A46D79D29B1A437A0C872B6EB9031AFF56ED28177798A6280C1204 DUP2 MSTORE PUSH1 0x20 ADD PUSH32 0x6D8B407E63722D83C0775FA23C3C5DB84F7C03EB865CAB16018BAEACA4B2095 DUP2 MSTORE POP DUP2 PUSH1 0x80 ADD MLOAD PUSH1 0x4B DUP2 MLOAD DUP2 LT PUSH2 0x2DCF JUMPI PUSH4 0x4E487B71 PUSH1 0xE0 SHL PUSH1 0x0 MSTORE PUSH1 0x32 PUSH1 0x4 MSTORE PUSH1 0x24 PUSH1 0x0 REVERT JUMPDEST PUSH1 0x20 MUL PUSH1 0x20 ADD ADD DUP2 SWAP1 MSTORE POP PUSH1 0x40 MLOAD DUP1 PUSH1 0x40 ADD PUSH1 0x40 MSTORE DUP1 PUSH32 0x2EA71269D064AC6FFE7F2512F18D088F43E94A9C3A933C4BCDC865EBC532EC21 DUP2 MSTORE PUSH1 0x20 ADD PUSH32 0xBC5701BC8677516B58DD479E116159E268BAA029928E94BA8CB0DB4B75DFEB4 DUP2 MSTORE POP DUP2 PUSH1 0x80 ADD MLOAD PUSH1 0x4C DUP2 MLOAD DUP2 LT PUSH2 0x2E54 JUMPI PUSH4 0x4E487B71 PUSH1 0xE0 SHL PUSH1 0x0 MSTORE PUSH1 0x32 PUSH1 0x4 MSTORE PUSH1 0x24 PUSH1 0x0 REVERT JUMPDEST PUSH1 0x20 MUL PUSH1 0x20 ADD ADD DUP2 SWAP1 MSTORE POP PUSH1 0x40 MLOAD DUP1 PUSH1 0x40 ADD PUSH1 0x40 MSTORE DUP1 PUSH32 0x29A8D8CA6BF69DE8B304DC4F5352BF5DA20E9796E54A7AA25EE2A4A13AA65F34 DUP2 MSTORE PUSH1 0x20 ADD PUSH32 0xA55B2B12BB6CBBFC4D408E9A84C3C0547DB523AB29824C2EC8844524E0FA193 DUP2 MSTORE POP DUP2 PUSH1 0x80 ADD MLOAD PUSH1 0x4D DUP2 MLOAD DUP2 LT PUSH2 0x2ED9 JUMPI PUSH4 0x4E487B71 PUSH1 0xE0 SHL PUSH1 0x0 MSTORE PUSH1 0x32 PUSH1 0x4 MSTORE PUSH1 0x24 PUSH1 0x0 REVERT JUMPDEST PUSH1 0x20 MUL PUSH1 0x20 ADD ADD DUP2 SWAP1 MSTORE POP PUSH1 0x40 MLOAD DUP1 PUSH1 0x40 ADD PUSH1 0x40 MSTORE DUP1 PUSH32 0x1ABE7AF829204E220C51269BA698FC80C86835CF00A021971AED4CE5F669542A DUP2 MSTORE PUSH1 0x20 ADD PUSH32 0x2DF89AD362D63435EE01050429E48FD8C1370DD9DF44021466CAD491F1CFD244 DUP2 MSTORE POP DUP2 PUSH1 0x80 ADD MLOAD PUSH1 0x4E DUP2 MLOAD DUP2 LT PUSH2 0x2F5E JUMPI PUSH4 0x4E487B71 PUSH1 0xE0 SHL PUSH1 0x0 MSTORE PUSH1 0x32 PUSH1 0x4 MSTORE PUSH1 0x24 PUSH1 0x0 REVERT JUMPDEST PUSH1 0x20 MUL PUSH1 0x20 ADD ADD DUP2 SWAP1 MSTORE POP PUSH1 0x40 MLOAD DUP1 PUSH1 0x40 ADD PUSH1 0x40 MSTORE DUP1 PUSH32 0x10AE117073DC0519435428A073DA07F94FB3B43D270674558D25AF4D89522534 DUP2 MSTORE PUSH1 0x20 ADD PUSH32 0x19FDAAF6EFA2D389FBB570533A13E9BB6C0FDF972320481A40ECFCE5793EC35A DUP2 MSTORE POP DUP2 PUSH1 0x80 ADD MLOAD PUSH1 0x4F DUP2 MLOAD DUP2 LT PUSH2 0x2FE3 JUMPI PUSH4 0x4E487B71 PUSH1 0xE0 SHL PUSH1 0x0 MSTORE PUSH1 0x32 PUSH1 0x4 MSTORE PUSH1 0x24 PUSH1 0x0 REVERT JUMPDEST PUSH1 0x20 MUL PUSH1 0x20 ADD ADD DUP2 SWAP1 MSTORE POP PUSH1 0x40 MLOAD DUP1 PUSH1 0x40 ADD PUSH1 0x40 MSTORE DUP1 PUSH32 0x2802F479AF286E2D9CEA10CC1471C159B2935CBBADA93D9E257BC92C086048A4 DUP2 MSTORE PUSH1 0x20 ADD PUSH32 0x41AB547B5A17F33CAC3B08E11DC15D2BA6977D4423C21BBC3672371F88ACC43 DUP2 MSTORE POP DUP2 PUSH1 0x80 ADD MLOAD PUSH1 0x50 DUP2 MLOAD DUP2 LT PUSH2 0x3068 JUMPI PUSH4 0x4E487B71 PUSH1 0xE0 SHL PUSH1 0x0 MSTORE PUSH1 0x32 PUSH1 0x4 MSTORE PUSH1 0x24 PUSH1 0x0 REVERT JUMPDEST PUSH1 0x20 MUL PUSH1 0x20 ADD ADD DUP2 SWAP1 MSTORE POP PUSH1 0x40 MLOAD DUP1 PUSH1 0x40 ADD PUSH1 0x40 MSTORE DUP1 PUSH32 0x15467ABAE0D138984C0E2B31181563C6B0A94BF9A16355023001025F481B523F DUP2 MSTORE PUSH1 0x20 ADD PUSH32 0x2A6EF72847CEB28D418A439C799C618CF3D307C0899F2E6DC03A7574FE6711D0 DUP2 MSTORE POP DUP2 PUSH1 0x80 ADD MLOAD PUSH1 0x51 DUP2 MLOAD DUP2 LT PUSH2 0x30ED JUMPI PUSH4 0x4E487B71 PUSH1 0xE0 SHL PUSH1 0x0 MSTORE PUSH1 0x32 PUSH1 0x4 MSTORE PUSH1 0x24 PUSH1 0x0 REVERT JUMPDEST PUSH1 0x20 MUL PUSH1 0x20 ADD ADD DUP2 SWAP1 MSTORE POP SWAP1 JUMP JUMPDEST PUSH1 0x40 DUP1 MLOAD DUP1 DUP3 ADD SWAP1 SWAP2 MSTORE PUSH1 0x0 DUP1 DUP3 MSTORE PUSH1 0x20 DUP3 ADD MSTORE PUSH2 0x3117 PUSH2 0x3994 JUMP JUMPDEST DUP4 MLOAD DUP2 MSTORE PUSH1 0x20 DUP1 DUP6 ADD MLOAD SWAP1 DUP3 ADD MSTORE PUSH1 0x40 DUP2 ADD DUP4 SWAP1 MSTORE PUSH1 0x0 PUSH1 0x60 DUP4 PUSH1 0x80 DUP5 PUSH1 0x7 PUSH2 0x7D0 GAS SUB STATICCALL SWAP1 POP DUP1 DUP1 ISZERO PUSH2 0x314A JUMPI PUSH2 0x314C JUMP JUMPDEST INVALID JUMPDEST POP DUP1 PUSH2 0x318F JUMPI PUSH1 0x40 MLOAD PUSH3 0x461BCD PUSH1 0xE5 SHL DUP2 MSTORE PUSH1 0x20 PUSH1 0x4 DUP3 ADD MSTORE PUSH1 0x12 PUSH1 0x24 DUP3 ADD MSTORE PUSH18 0x1C185A5C9A5B99CB5B5D5B0B59985A5B1959 PUSH1 0x72 SHL PUSH1 0x44 DUP3 ADD MSTORE PUSH1 0x64 ADD PUSH2 0x208 JUMP JUMPDEST POP POP SWAP3 SWAP2 POP POP JUMP JUMPDEST PUSH1 0x40 DUP1 MLOAD DUP1 DUP3 ADD SWAP1 SWAP2 MSTORE PUSH1 0x0 DUP1 DUP3 MSTORE PUSH1 0x20 DUP3 ADD MSTORE PUSH2 0x31B3 PUSH2 0x39B2 JUMP JUMPDEST DUP4 MLOAD DUP2 MSTORE PUSH1 0x20 DUP1 DUP6 ADD MLOAD DUP2 DUP4 ADD MSTORE DUP4 MLOAD PUSH1 0x40 DUP4 ADD MSTORE DUP4 ADD MLOAD PUSH1 0x60 DUP1 DUP4 ADD SWAP2 SWAP1 SWAP2 MSTORE PUSH1 0x0 SWAP1 DUP4 PUSH1 0xC0 DUP5 PUSH1 0x6 PUSH2 0x7D0 GAS SUB STATICCALL SWAP1 POP DUP1 DUP1 ISZERO PUSH2 0x314A JUMPI POP DUP1 PUSH2 0x318F JUMPI PUSH1 0x40 MLOAD PUSH3 0x461BCD PUSH1 0xE5 SHL DUP2 MSTORE PUSH1 0x20 PUSH1 0x4 DUP3 ADD MSTORE PUSH1 0x12 PUSH1 0x24 DUP3 ADD MSTORE PUSH18 0x1C185A5C9A5B99CB5859190B59985A5B1959 PUSH1 0x72 SHL PUSH1 0x44 DUP3 ADD MSTORE PUSH1 0x64 ADD PUSH2 0x208 JUMP JUMPDEST PUSH1 0x40 DUP1 MLOAD DUP1 DUP3 ADD SWAP1 SWAP2 MSTORE PUSH1 0x0 DUP1 DUP3 MSTORE PUSH1 0x20 DUP3 ADD MSTORE DUP2 MLOAD PUSH32 0x30644E72E131A029B85045B68181585D97816A916871CA8D3C208C16D87CFD47 SWAP1 ISZERO DUP1 ISZERO PUSH2 0x3276 JUMPI POP PUSH1 0x20 DUP4 ADD MLOAD ISZERO JUMPDEST ISZERO PUSH2 0x3296 JUMPI POP POP PUSH1 0x40 DUP1 MLOAD DUP1 DUP3 ADD SWAP1 SWAP2 MSTORE PUSH1 0x0 DUP1 DUP3 MSTORE PUSH1 0x20 DUP3 ADD MSTORE SWAP2 SWAP1 POP JUMP JUMPDEST PUSH1 0x40 MLOAD DUP1 PUSH1 0x40 ADD PUSH1 0x40 MSTORE DUP1 DUP5 PUSH1 0x0 ADD MLOAD DUP2 MSTORE PUSH1 0x20 ADD DUP3 DUP6 PUSH1 0x20 ADD MLOAD PUSH2 0x32BB SWAP2 SWAP1 PUSH2 0x3C3D JUMP JUMPDEST PUSH2 0x32C5 SWAP1 DUP5 PUSH2 0x3C0B JUMP JUMPDEST SWAP1 MSTORE SWAP4 SWAP3 POP POP POP JUMP JUMPDEST PUSH1 0x40 DUP1 MLOAD PUSH1 0x4 DUP1 DUP3 MSTORE PUSH1 0xA0 DUP3 ADD SWAP1 SWAP3 MSTORE PUSH1 0x0 SWAP2 DUP3 SWAP2 SWAP1 DUP2 PUSH1 0x20 ADD JUMPDEST PUSH1 0x40 DUP1 MLOAD DUP1 DUP3 ADD SWAP1 SWAP2 MSTORE PUSH1 0x0 DUP1 DUP3 MSTORE PUSH1 0x20 DUP3 ADD MSTORE DUP2 MSTORE PUSH1 0x20 ADD SWAP1 PUSH1 0x1 SWAP1 SUB SWAP1 DUP2 PUSH2 0x32E9 JUMPI POP POP PUSH1 0x40 DUP1 MLOAD PUSH1 0x4 DUP1 DUP3 MSTORE PUSH1 0xA0 DUP3 ADD SWAP1 SWAP3 MSTORE SWAP2 SWAP3 POP PUSH1 0x0 SWAP2 SWAP1 PUSH1 0x20 DUP3 ADD JUMPDEST PUSH2 0x3333 PUSH2 0x39D0 JUMP JUMPDEST DUP2 MSTORE PUSH1 0x20 ADD SWAP1 PUSH1 0x1 SWAP1 SUB SWAP1 DUP2 PUSH2 0x332B JUMPI SWAP1 POP POP SWAP1 POP DUP11 DUP3 PUSH1 0x0 DUP2 MLOAD DUP2 LT PUSH2 0x336A JUMPI PUSH4 0x4E487B71 PUSH1 0xE0 SHL PUSH1 0x0 MSTORE PUSH1 0x32 PUSH1 0x4 MSTORE PUSH1 0x24 PUSH1 0x0 REVERT JUMPDEST PUSH1 0x20 MUL PUSH1 0x20 ADD ADD DUP2 SWAP1 MSTORE POP DUP9 DUP3 PUSH1 0x1 DUP2 MLOAD DUP2 LT PUSH2 0x3397 JUMPI PUSH4 0x4E487B71 PUSH1 0xE0 SHL PUSH1 0x0 MSTORE PUSH1 0x32 PUSH1 0x4 MSTORE PUSH1 0x24 PUSH1 0x0 REVERT JUMPDEST PUSH1 0x20 MUL PUSH1 0x20 ADD ADD DUP2 SWAP1 MSTORE POP DUP7 DUP3 PUSH1 0x2 DUP2 MLOAD DUP2 LT PUSH2 0x33C4 JUMPI PUSH4 0x4E487B71 PUSH1 0xE0 SHL PUSH1 0x0 MSTORE PUSH1 0x32 PUSH1 0x4 MSTORE PUSH1 0x24 PUSH1 0x0 REVERT JUMPDEST PUSH1 0x20 MUL PUSH1 0x20 ADD ADD DUP2 SWAP1 MSTORE POP DUP5 DUP3 PUSH1 0x3 DUP2 MLOAD DUP2 LT PUSH2 0x33F1 JUMPI PUSH4 0x4E487B71 PUSH1 0xE0 SHL PUSH1 0x0 MSTORE PUSH1 0x32 PUSH1 0x4 MSTORE PUSH1 0x24 PUSH1 0x0 REVERT JUMPDEST PUSH1 0x20 MUL PUSH1 0x20 ADD ADD DUP2 SWAP1 MSTORE POP DUP10 DUP2 PUSH1 0x0 DUP2 MLOAD DUP2 LT PUSH2 0x341E JUMPI PUSH4 0x4E487B71 PUSH1 0xE0 SHL PUSH1 0x0 MSTORE PUSH1 0x32 PUSH1 0x4 MSTORE PUSH1 0x24 PUSH1 0x0 REVERT JUMPDEST PUSH1 0x20 MUL PUSH1 0x20 ADD ADD DUP2 SWAP1 MSTORE POP DUP8 DUP2 PUSH1 0x1 DUP2 MLOAD DUP2 LT PUSH2 0x344B JUMPI PUSH4 0x4E487B71 PUSH1 0xE0 SHL PUSH1 0x0 MSTORE PUSH1 0x32 PUSH1 0x4 MSTORE PUSH1 0x24 PUSH1 0x0 REVERT JUMPDEST PUSH1 0x20 MUL PUSH1 0x20 ADD ADD DUP2 SWAP1 MSTORE POP DUP6 DUP2 PUSH1 0x2 DUP2 MLOAD DUP2 LT PUSH2 0x3478 JUMPI PUSH4 0x4E487B71 PUSH1 0xE0 SHL PUSH1 0x0 MSTORE PUSH1 0x32 PUSH1 0x4 MSTORE PUSH1 0x24 PUSH1 0x0 REVERT JUMPDEST PUSH1 0x20 MUL PUSH1 0x20 ADD ADD DUP2 SWAP1 MSTORE POP DUP4 DUP2 PUSH1 0x3 DUP2 MLOAD DUP2 LT PUSH2 0x34A5 JUMPI PUSH4 0x4E487B71 PUSH1 0xE0 SHL PUSH1 0x0 MSTORE PUSH1 0x32 PUSH1 0x4 MSTORE PUSH1 0x24 PUSH1 0x0 REVERT JUMPDEST PUSH1 0x20 MUL PUSH1 0x20 ADD ADD DUP2 SWAP1 MSTORE POP PUSH2 0x34BA DUP3 DUP3 PUSH2 0x34C9 JUMP JUMPDEST SWAP12 SWAP11 POP POP POP POP POP POP POP POP POP POP POP JUMP JUMPDEST PUSH1 0x0 DUP2 MLOAD DUP4 MLOAD EQ PUSH2 0x3515 JUMPI PUSH1 0x40 MLOAD PUSH3 0x461BCD PUSH1 0xE5 SHL DUP2 MSTORE PUSH1 0x20 PUSH1 0x4 DUP3 ADD MSTORE PUSH1 0x16 PUSH1 0x24 DUP3 ADD MSTORE PUSH22 0x1C185A5C9A5B99CB5B195B99DD1A1CCB59985A5B1959 PUSH1 0x52 SHL PUSH1 0x44 DUP3 ADD MSTORE PUSH1 0x64 ADD PUSH2 0x208 JUMP JUMPDEST DUP3 MLOAD PUSH1 0x0 PUSH2 0x3524 DUP3 PUSH1 0x6 PUSH2 0x3BEC JUMP JUMPDEST SWAP1 POP PUSH1 0x0 DUP2 PUSH8 0xFFFFFFFFFFFFFFFF DUP2 GT ISZERO PUSH2 0x354F JUMPI PUSH4 0x4E487B71 PUSH1 0xE0 SHL PUSH1 0x0 MSTORE PUSH1 0x41 PUSH1 0x4 MSTORE PUSH1 0x24 PUSH1 0x0 REVERT JUMPDEST PUSH1 0x40 MLOAD SWAP1 DUP1 DUP3 MSTORE DUP1 PUSH1 0x20 MUL PUSH1 0x20 ADD DUP3 ADD PUSH1 0x40 MSTORE DUP1 ISZERO PUSH2 0x3578 JUMPI DUP2 PUSH1 0x20 ADD PUSH1 0x20 DUP3 MUL DUP1 CALLDATASIZE DUP4 CALLDATACOPY ADD SWAP1 POP JUMPDEST POP SWAP1 POP PUSH1 0x0 JUMPDEST DUP4 DUP2 LT ISZERO PUSH2 0x3877 JUMPI DUP7 DUP2 DUP2 MLOAD DUP2 LT PUSH2 0x35A6 JUMPI PUSH4 0x4E487B71 PUSH1 0xE0 SHL PUSH1 0x0 MSTORE PUSH1 0x32 PUSH1 0x4 MSTORE PUSH1 0x24 PUSH1 0x0 REVERT JUMPDEST PUSH1 0x20 MUL PUSH1 0x20 ADD ADD MLOAD PUSH1 0x0 ADD MLOAD DUP3 DUP3 PUSH1 0x6 PUSH2 0x35C0 SWAP2 SWAP1 PUSH2 0x3BEC JUMP JUMPDEST PUSH2 0x35CB SWAP1 PUSH1 0x0 PUSH2 0x3BD4 JUMP JUMPDEST DUP2 MLOAD DUP2 LT PUSH2 0x35E9 JUMPI PUSH4 0x4E487B71 PUSH1 0xE0 SHL PUSH1 0x0 MSTORE PUSH1 0x32 PUSH1 0x4 MSTORE PUSH1 0x24 PUSH1 0x0 REVERT JUMPDEST PUSH1 0x20 MUL PUSH1 0x20 ADD ADD DUP2 DUP2 MSTORE POP POP DUP7 DUP2 DUP2 MLOAD DUP2 LT PUSH2 0x3615 JUMPI PUSH4 0x4E487B71 PUSH1 0xE0 SHL PUSH1 0x0 MSTORE PUSH1 0x32 PUSH1 0x4 MSTORE PUSH1 0x24 PUSH1 0x0 REVERT JUMPDEST PUSH1 0x20 MUL PUSH1 0x20 ADD ADD MLOAD PUSH1 0x20 ADD MLOAD DUP3 DUP3 PUSH1 0x6 PUSH2 0x362F SWAP2 SWAP1 PUSH2 0x3BEC JUMP JUMPDEST PUSH2 0x363A SWAP1 PUSH1 0x1 PUSH2 0x3BD4 JUMP JUMPDEST DUP2 MLOAD DUP2 LT PUSH2 0x3658 JUMPI PUSH4 0x4E487B71 PUSH1 0xE0 SHL PUSH1 0x0 MSTORE PUSH1 0x32 PUSH1 0x4 MSTORE PUSH1 0x24 PUSH1 0x0 REVERT JUMPDEST PUSH1 0x20 MUL PUSH1 0x20 ADD ADD DUP2 DUP2 MSTORE POP POP DUP6 DUP2 DUP2 MLOAD DUP2 LT PUSH2 0x3684 JUMPI PUSH4 0x4E487B71 PUSH1 0xE0 SHL PUSH1 0x0 MSTORE PUSH1 0x32 PUSH1 0x4 MSTORE PUSH1 0x24 PUSH1 0x0 REVERT JUMPDEST PUSH1 0x20 SWAP1 DUP2 MUL SWAP2 SWAP1 SWAP2 ADD ADD MLOAD MLOAD MLOAD DUP3 PUSH2 0x369D DUP4 PUSH1 0x6 PUSH2 0x3BEC JUMP JUMPDEST PUSH2 0x36A8 SWAP1 PUSH1 0x2 PUSH2 0x3BD4 JUMP JUMPDEST DUP2 MLOAD DUP2 LT PUSH2 0x36C6 JUMPI PUSH4 0x4E487B71 PUSH1 0xE0 SHL PUSH1 0x0 MSTORE PUSH1 0x32 PUSH1 0x4 MSTORE PUSH1 0x24 PUSH1 0x0 REVERT JUMPDEST PUSH1 0x20 MUL PUSH1 0x20 ADD ADD DUP2 DUP2 MSTORE POP POP DUP6 DUP2 DUP2 MLOAD DUP2 LT PUSH2 0x36F2 JUMPI PUSH4 0x4E487B71 PUSH1 0xE0 SHL PUSH1 0x0 MSTORE PUSH1 0x32 PUSH1 0x4 MSTORE PUSH1 0x24 PUSH1 0x0 REVERT JUMPDEST PUSH1 0x20 SWAP1 DUP2 MUL SWAP2 SWAP1 SWAP2 ADD DUP2 ADD MLOAD MLOAD ADD MLOAD DUP3 PUSH2 0x370D DUP4 PUSH1 0x6 PUSH2 0x3BEC JUMP JUMPDEST PUSH2 0x3718 SWAP1 PUSH1 0x3 PUSH2 0x3BD4 JUMP JUMPDEST DUP2 MLOAD DUP2 LT PUSH2 0x3736 JUMPI PUSH4 0x4E487B71 PUSH1 0xE0 SHL PUSH1 0x0 MSTORE PUSH1 0x32 PUSH1 0x4 MSTORE PUSH1 0x24 PUSH1 0x0 REVERT JUMPDEST PUSH1 0x20 MUL PUSH1 0x20 ADD ADD DUP2 DUP2 MSTORE POP POP DUP6 DUP2 DUP2 MLOAD DUP2 LT PUSH2 0x3762 JUMPI PUSH4 0x4E487B71 PUSH1 0xE0 SHL PUSH1 0x0 MSTORE PUSH1 0x32 PUSH1 0x4 MSTORE PUSH1 0x24 PUSH1 0x0 REVERT JUMPDEST PUSH1 0x20 MUL PUSH1 0x20 ADD ADD MLOAD PUSH1 0x20 ADD MLOAD PUSH1 0x0 PUSH1 0x2 DUP2 LT PUSH2 0x378E JUMPI PUSH4 0x4E487B71 PUSH1 0xE0 SHL PUSH1 0x0 MSTORE PUSH1 0x32 PUSH1 0x4 MSTORE PUSH1 0x24 PUSH1 0x0 REVERT JUMPDEST PUSH1 0x20 MUL ADD MLOAD DUP3 PUSH2 0x379F DUP4 PUSH1 0x6 PUSH2 0x3BEC JUMP JUMPDEST PUSH2 0x37AA SWAP1 PUSH1 0x4 PUSH2 0x3BD4 JUMP JUMPDEST DUP2 MLOAD DUP2 LT PUSH2 0x37C8 JUMPI PUSH4 0x4E487B71 PUSH1 0xE0 SHL PUSH1 0x0 MSTORE PUSH1 0x32 PUSH1 0x4 MSTORE PUSH1 0x24 PUSH1 0x0 REVERT JUMPDEST PUSH1 0x20 MUL PUSH1 0x20 ADD ADD DUP2 DUP2 MSTORE POP POP DUP6 DUP2 DUP2 MLOAD DUP2 LT PUSH2 0x37F4 JUMPI PUSH4 0x4E487B71 PUSH1 0xE0 SHL PUSH1 0x0 MSTORE PUSH1 0x32 PUSH1 0x4 MSTORE PUSH1 0x24 PUSH1 0x0 REVERT JUMPDEST PUSH1 0x20 MUL PUSH1 0x20 ADD ADD MLOAD PUSH1 0x20 ADD MLOAD PUSH1 0x1 PUSH1 0x2 DUP2 LT PUSH2 0x3820 JUMPI PUSH4 0x4E487B71 PUSH1 0xE0 SHL PUSH1 0x0 MSTORE PUSH1 0x32 PUSH1 0x4 MSTORE PUSH1 0x24 PUSH1 0x0 REVERT JUMPDEST PUSH1 0x20 MUL ADD MLOAD DUP3 PUSH2 0x3831 DUP4 PUSH1 0x6 PUSH2 0x3BEC JUMP JUMPDEST PUSH2 0x383C SWAP1 PUSH1 0x5 PUSH2 0x3BD4 JUMP JUMPDEST DUP2 MLOAD DUP2 LT PUSH2 0x385A JUMPI PUSH4 0x4E487B71 PUSH1 0xE0 SHL PUSH1 0x0 MSTORE PUSH1 0x32 PUSH1 0x4 MSTORE PUSH1 0x24 PUSH1 0x0 REVERT JUMPDEST PUSH1 0x20 SWAP1 DUP2 MUL SWAP2 SWAP1 SWAP2 ADD ADD MSTORE DUP1 PUSH2 0x386F DUP2 PUSH2 0x3C22 JUMP JUMPDEST SWAP2 POP POP PUSH2 0x357E JUMP JUMPDEST POP PUSH2 0x3880 PUSH2 0x39F0 JUMP JUMPDEST PUSH1 0x0 PUSH1 0x20 DUP3 PUSH1 0x20 DUP7 MUL PUSH1 0x20 DUP7 ADD PUSH1 0x8 PUSH2 0x7D0 GAS SUB STATICCALL SWAP1 POP DUP1 DUP1 ISZERO PUSH2 0x314A JUMPI POP DUP1 PUSH2 0x38E4 JUMPI PUSH1 0x40 MLOAD PUSH3 0x461BCD PUSH1 0xE5 SHL DUP2 MSTORE PUSH1 0x20 PUSH1 0x4 DUP3 ADD MSTORE PUSH1 0x15 PUSH1 0x24 DUP3 ADD MSTORE PUSH21 0x1C185A5C9A5B99CB5BDC18DBD9194B59985A5B1959 PUSH1 0x5A SHL PUSH1 0x44 DUP3 ADD MSTORE PUSH1 0x64 ADD PUSH2 0x208 JUMP JUMPDEST POP MLOAD ISZERO ISZERO SWAP7 SWAP6 POP POP POP POP POP POP JUMP JUMPDEST PUSH1 0x40 DUP1 MLOAD PUSH1 0xA0 DUP2 ADD SWAP1 SWAP2 MSTORE PUSH1 0x0 PUSH1 0x60 DUP3 ADD DUP2 DUP2 MSTORE PUSH1 0x80 DUP4 ADD SWAP2 SWAP1 SWAP2 MSTORE DUP2 MSTORE PUSH1 0x20 DUP2 ADD PUSH2 0x391C PUSH2 0x39D0 JUMP JUMPDEST DUP2 MSTORE PUSH1 0x20 ADD PUSH2 0x393E PUSH1 0x40 MLOAD DUP1 PUSH1 0x40 ADD PUSH1 0x40 MSTORE DUP1 PUSH1 0x0 DUP2 MSTORE PUSH1 0x20 ADD PUSH1 0x0 DUP2 MSTORE POP SWAP1 JUMP JUMPDEST SWAP1 MSTORE SWAP1 JUMP JUMPDEST PUSH1 0x40 DUP1 MLOAD PUSH1 0xE0 DUP2 ADD SWAP1 SWAP2 MSTORE PUSH1 0x0 PUSH1 0xA0 DUP3 ADD DUP2 DUP2 MSTORE PUSH1 0xC0 DUP4 ADD SWAP2 SWAP1 SWAP2 MSTORE DUP2 MSTORE PUSH1 0x20 DUP2 ADD PUSH2 0x396D PUSH2 0x39D0 JUMP JUMPDEST DUP2 MSTORE PUSH1 0x20 ADD PUSH2 0x397A PUSH2 0x39D0 JUMP JUMPDEST DUP2 MSTORE PUSH1 0x20 ADD PUSH2 0x3987 PUSH2 0x39D0 JUMP JUMPDEST DUP2 MSTORE PUSH1 0x20 ADD PUSH1 0x60 DUP2 MSTORE POP SWAP1 JUMP JUMPDEST PUSH1 0x40 MLOAD DUP1 PUSH1 0x60 ADD PUSH1 0x40 MSTORE DUP1 PUSH1 0x3 SWAP1 PUSH1 0x20 DUP3 MUL DUP1 CALLDATASIZE DUP4 CALLDATACOPY POP SWAP2 SWAP3 SWAP2 POP POP JUMP JUMPDEST PUSH1 0x40 MLOAD DUP1 PUSH1 0x80 ADD PUSH1 0x40 MSTORE DUP1 PUSH1 0x4 SWAP1 PUSH1 0x20 DUP3 MUL DUP1 CALLDATASIZE DUP4 CALLDATACOPY POP SWAP2 SWAP3 SWAP2 POP POP JUMP JUMPDEST PUSH1 0x40 MLOAD DUP1 PUSH1 0x40 ADD PUSH1 0x40 MSTORE DUP1 PUSH2 0x39E3 PUSH2 0x3A0E JUMP JUMPDEST DUP2 MSTORE PUSH1 0x20 ADD PUSH2 0x393E PUSH2 0x3A0E JUMP JUMPDEST PUSH1 0x40 MLOAD DUP1 PUSH1 0x20 ADD PUSH1 0x40 MSTORE DUP1 PUSH1 0x1 SWAP1 PUSH1 0x20 DUP3 MUL DUP1 CALLDATASIZE DUP4 CALLDATACOPY POP SWAP2 SWAP3 SWAP2 POP POP JUMP JUMPDEST PUSH1 0x40 MLOAD DUP1 PUSH1 0x40 ADD PUSH1 0x40 MSTORE DUP1 PUSH1 0x2 SWAP1 PUSH1 0x20 DUP3 MUL DUP1 CALLDATASIZE DUP4 CALLDATACOPY POP SWAP2 SWAP3 SWAP2 POP POP JUMP JUMPDEST PUSH1 0x0 DUP3 PUSH1 0x1F DUP4 ADD SLT PUSH2 0x3A3C JUMPI DUP1 DUP2 REVERT JUMPDEST PUSH2 0x3A44 PUSH2 0x3B6B JUMP JUMPDEST DUP1 DUP4 DUP6 PUSH1 0x40 DUP7 ADD GT ISZERO PUSH2 0x3A55 JUMPI DUP4 DUP5 REVERT JUMPDEST DUP4 JUMPDEST PUSH1 0x2 DUP2 LT ISZERO PUSH2 0x3A76 JUMPI DUP2 CALLDATALOAD DUP5 MSTORE PUSH1 0x20 SWAP4 DUP5 ADD SWAP4 SWAP1 SWAP2 ADD SWAP1 PUSH1 0x1 ADD PUSH2 0x3A57 JUMP JUMPDEST POP SWAP1 SWAP6 SWAP5 POP POP POP POP POP JUMP JUMPDEST PUSH1 0x0 DUP1 PUSH1 0x0 DUP1 PUSH2 0xB20 DUP1 DUP7 DUP9 SUB SLT ISZERO PUSH2 0x3A98 JUMPI DUP5 DUP6 REVERT JUMPDEST PUSH2 0x3AA2 DUP8 DUP8 PUSH2 0x3A2C JUMP JUMPDEST SWAP5 POP PUSH1 0x40 DUP8 PUSH1 0x5F DUP9 ADD SLT PUSH2 0x3AB4 JUMPI DUP5 DUP6 REVERT JUMPDEST PUSH2 0x3ABC PUSH2 0x3B6B JUMP JUMPDEST DUP1 DUP3 DUP10 ADD PUSH1 0xC0 DUP11 ADD DUP12 DUP2 GT ISZERO PUSH2 0x3AD0 JUMPI DUP9 DUP10 REVERT JUMPDEST DUP9 JUMPDEST PUSH1 0x2 DUP2 LT ISZERO PUSH2 0x3AF9 JUMPI PUSH2 0x3AE5 DUP14 DUP5 PUSH2 0x3A2C JUMP JUMPDEST DUP6 MSTORE PUSH1 0x20 SWAP1 SWAP5 ADD SWAP4 SWAP2 DUP6 ADD SWAP2 PUSH1 0x1 ADD PUSH2 0x3AD2 JUMP JUMPDEST POP DUP3 SWAP9 POP PUSH2 0x3B07 DUP13 DUP3 PUSH2 0x3A2C JUMP JUMPDEST SWAP8 POP POP POP POP POP POP DUP7 PUSH2 0x11F DUP8 ADD SLT PUSH2 0x3B1D JUMPI DUP2 DUP3 REVERT JUMPDEST PUSH2 0x3B25 PUSH2 0x3BA2 JUMP JUMPDEST DUP1 PUSH2 0x100 DUP9 ADD DUP10 DUP5 DUP11 ADD GT ISZERO PUSH2 0x3B39 JUMPI DUP5 DUP6 REVERT JUMPDEST DUP5 SWAP4 POP JUMPDEST PUSH1 0x51 DUP5 LT ISZERO PUSH2 0x3B5D JUMPI DUP1 CALLDATALOAD DUP4 MSTORE PUSH1 0x1 SWAP4 SWAP1 SWAP4 ADD SWAP3 PUSH1 0x20 SWAP3 DUP4 ADD SWAP3 ADD PUSH2 0x3B3D JUMP JUMPDEST POP SWAP6 SWAP9 SWAP5 SWAP8 POP SWAP3 SWAP6 POP POP POP POP JUMP JUMPDEST PUSH1 0x40 DUP1 MLOAD SWAP1 DUP2 ADD PUSH8 0xFFFFFFFFFFFFFFFF DUP2 GT DUP3 DUP3 LT OR ISZERO PUSH2 0x3B9C JUMPI PUSH4 0x4E487B71 PUSH1 0xE0 SHL PUSH1 0x0 MSTORE PUSH1 0x41 PUSH1 0x4 MSTORE PUSH1 0x24 PUSH1 0x0 REVERT JUMPDEST PUSH1 0x40 MSTORE SWAP1 JUMP JUMPDEST PUSH1 0x40 MLOAD PUSH2 0xA20 DUP2 ADD PUSH8 0xFFFFFFFFFFFFFFFF DUP2 GT DUP3 DUP3 LT OR ISZERO PUSH2 0x3B9C JUMPI PUSH4 0x4E487B71 PUSH1 0xE0 SHL PUSH1 0x0 MSTORE PUSH1 0x41 PUSH1 0x4 MSTORE PUSH1 0x24 PUSH1 0x0 REVERT JUMPDEST PUSH1 0x0 DUP3 NOT DUP3 GT ISZERO PUSH2 0x3BE7 JUMPI PUSH2 0x3BE7 PUSH2 0x3C5D JUMP JUMPDEST POP ADD SWAP1 JUMP JUMPDEST PUSH1 0x0 DUP2 PUSH1 0x0 NOT DIV DUP4 GT DUP3 ISZERO ISZERO AND ISZERO PUSH2 0x3C06 JUMPI PUSH2 0x3C06 PUSH2 0x3C5D JUMP JUMPDEST POP MUL SWAP1 JUMP JUMPDEST PUSH1 0x0 DUP3 DUP3 LT ISZERO PUSH2 0x3C1D JUMPI PUSH2 0x3C1D PUSH2 0x3C5D JUMP JUMPDEST POP SUB SWAP1 JUMP JUMPDEST PUSH1 0x0 PUSH1 0x0 NOT DUP3 EQ ISZERO PUSH2 0x3C36 JUMPI PUSH2 0x3C36 PUSH2 0x3C5D JUMP JUMPDEST POP PUSH1 0x1 ADD SWAP1 JUMP JUMPDEST PUSH1 0x0 DUP3 PUSH2 0x3C58 JUMPI PUSH4 0x4E487B71 PUSH1 0xE0 SHL DUP2 MSTORE PUSH1 0x12 PUSH1 0x4 MSTORE PUSH1 0x24 DUP2 REVERT JUMPDEST POP MOD SWAP1 JUMP JUMPDEST PUSH4 0x4E487B71 PUSH1 0xE0 SHL PUSH1 0x0 MSTORE PUSH1 0x11 PUSH1 0x4 MSTORE PUSH1 0x24 PUSH1 0x0 REVERT INVALID LOG2 PUSH5 0x6970667358 0x22 SLT KECCAK256 0x1F 0x2C 0xD0 PC SWAP2 GASPRICE SWAP1 ISZERO ADDMOD CREATE2 MULMOD 0x24 CALLCODE 0xC3 PUSH20 0xA16E675C051634527F68EF559155853AF064736F PUSH13 0x63430008040033000000000000 "},"methodIdentifiers":{"verifyProof(uint256[2],uint256[2][2],uint256[2],uint256[81])":"e235ad2a"}}}}}