{"contracts/sudokuVerifier.sol":{"SudokuVerifier":{"abi":[{"inputs":[{"internalType":"uint256[2]","name":"_pA","type":"uint256[2]"},{"internalType":"uint256[2][2]","name":"_pB","type":"uint256[2][2]"},{"internalType":"uint256[2]","name":"_pC","type":"uint256[2]"},{"internalType":"uint256[81]","name":"_pubSignals","type":"uint256[81]"}],"name":"verifyProof","outputs":[{"internalType":"bool","name":"","type":"bool"}],"stateMutability":"view","type":"function"}],"evm":{"bytecode":{"linkReferences":{},"object":"608060405234801561001057600080fd5b50612306806100206000396000f3fe608060405234801561001057600080fd5b506004361061002b5760003560e01c8063e235ad2a14610030575b600080fd5b61004361003e36600461226d565b610057565b604051901515815260200160405180910390f35b6000611dbf565b7f30644e72e131a029b85045b68181585d97816a916871ca8d3c208c16d87cfd47811061008f576000805260206000f35b50565b600060405183815284602082015285604082015260408160608360076107d05a03fa9150816100c5576000805260206000f35b825160408201526020830151606082015260408360808360066107d05a03fa915050806100f6576000805260206000f35b5050505050565b7f1253f1ed4c25b61a9dbb0e0d456db1c45d337f64b48cbd3a2818b4f58a6c240585527f0154bc63ca660ca7949427889f70840b7f5a34d5eb6df02c38bfb75d6ecf0c5160208601526000608086018661019a87357f2263f4d40a739cbeb0becda69192439068bce12f33ba0bbabd557f8308c2e1ca7f1fca01e7eeaf0ec1b49fb3d807ec621ee889818bc5125eec3b603a0f896ae76084610092565b6101ea60208801357f24fed30e8391e935a60213037f23e153bcfa24b1954578fde070293df2b8506e7f0cdd64ab2c76fa38ff9dfc9ef44938156daaba16203ab2267c66ed93b143d76384610092565b61023a60408801357f0def24ce297a1bdbc646d1498e4875cfb22da11ea84c023ff04227a7fabbc8247f0b428846a2d0e4ac9886d42bf94caaa5e3b0e05f984ab2f11698ea6054f3d57684610092565b61028a60608801357f18b265378c5bb4a31566d622e401080e96901f9fd6dfb1e489b1576d008d231e7f0adc739398f12572f89e65a9932dd60517074c4cd86374f6ea96c8f125c57c4484610092565b6102da60808801357f08d91fe8d063107cb19d7293ae51f955e2a6fcf01a3f4920ce5c1ee27f0e07fd7f0386e5c70b3ea649dc335be6effd59cc36d15866b7ce87bb62e509b3f303710684610092565b61032a60a08801357f27091b42aaa0d419334e4ee5770f00876ea48e0e23ddf6ba57c15345c16e6a477f0ab85e366f052127d0c30b828df17aa280b74f01411c737c7ed63973d39067c484610092565b61037a60c08801357f282ef554e8b02568068acaa6ddbfca7672dcad49a2940a708c051387757967227f222d2806893fa11e2704754d2beef9ec209c135fb77bf03c2fed20cca141871884610092565b6103ca60e08801357f258165c6b1ca44c3e7bc0e3932ec52b3af39a01bb78a2cc71809fc1907b20e837f242fc8fdada862997d66630500d118d810395df364944a6bbe8293df5013662a84610092565b61041b6101008801357f045ef0334cd6070127acb8c1933a18a5c96baa3c7073d34b1a01fdde08564c3d7f08038fdfe43f6a732f54de453d0bca3d7191f04a6beb5cccc2565ee97c6f39e984610092565b61046c6101208801357f252fc8103413fa858e5f5ad99cd66f6cbf158cc6f429bbaf101a1fea7414b3217f269b9154ccc4e255750fd12c21a82d5938c5376aa08c7dec3327c437597a9bf484610092565b6104bd6101408801357f19474d54eb78e28e093d1aa95ace6dc317f7ac878083dc25b6973a5a0668ffc27f14e787b88b611ee7c48ea151e99f4e32c502058ea47276462d05d6ba9cbf988b84610092565b61050e6101608801357f287db9753dbb5c64ea5264394ddabcea52a004c757db2fa5a7c32c4fa0d8013f7f0192e12d0e8c9d636aac21468096f5cd56d950a7d8c260926b211b747f9503a784610092565b61055f6101808801357f05f55df24706eb3d0d747abe02f6cdd146b52487e6d3765f2a49572170160c677f204c167c13280225bbbdbddb0ce99519286a24b6a2e3914eab075e4465c7f70384610092565b6105b06101a08801357f0e2279ceaba48ee873a872e684e50819c9ec7cc69b553e9715c5ae10ce57f9c57f12c2f4212ce1ed35050d68fbada0e359f39dbedcc2e26632f896762c528ccdfb84610092565b6106016101c08801357f194c7d30c16878f2a66a5b742af6d6abc2f0c47fff250a7fc91ce799fcc329117f0db65a3c298be11b21e4c833819c7ab04e8977ab2d804be39cb0375bffe2d8ff84610092565b6106526101e08801357f0dd9de6b5da7f580fef1235dac3e9ef0271d145cd2f178c146148ec97f63d4c37f055ddcf78ef7880d72c5165e8d4335dcc82da1cfd8543f71b83189678fd1073f84610092565b6106a36102008801357f2c96f3e4c6583c7c15b298a501c4f4f7ff459ec8cd26c7ec4ae54c0ee350eb607f2c11c66aea64f8a0fd92c42c091e17f8cf99caa71575ba1f41f44b6141a5f20a84610092565b6106f46102208801357f0bab24adca51ea3fed8a5c96fecc40b020bdb48c2ce76cfda4f1470ed692b8977f1c0dddc69219ef9b3430e7ae888cdac22c173af863b25d52bf32509027ccb86984610092565b6107456102408801357f2273d81395e33d5fa314610e7b06dc7bdb095d241066bf7fea46d34f6a088f467f1529a9a4837f81ee6bc187451e85f49bacf730b9e103668c5aa80ef13e1a73ef84610092565b6107966102608801357f1688a74927fb6377ad3ec7c5556913d99cac5037d609feee985cc1a6f0ab20dd7f064b8e09b087c87cdcf236966b3577f132d5aa60b5c3f13b201db590b953d92f84610092565b6107e76102808801357f1c0c51de4c30ac307c3de2647e1b245d3e6cf7c3958fbca5b787589b8adcee3b7f06f5b4a818e85b59653c91d12e6cca6287df76cddd03583a1f5d50248ac8a8d584610092565b6108386102a08801357f0aa54d1df84ae561eefabd0d9c752bbcabedf196b41675cf36949ddfc66969227f21c87ff8e57aa4f1ee86e940a101525512242a6c103fff74bf50d32debfb0c3384610092565b6108896102c08801357f2c7ba5c66f823f8f73a102ae0559ae7f08c62467a59a6d17df5658b5e8d722207f05734ec18779181a931aa5c7a6875f77ce79cfbe186d6b8d569447c685bf253c84610092565b6108da6102e08801357f10948fa9feacf995f01ba66188296b01b5b3aed11d1ec73e35b31da656335a5b7f21005bf9e02661f10e870839f103ce5a59ea0bd4e16b803cebc46d140e2529cb84610092565b61092b6103008801357f2c8ff1a5b6aa18de7bf934a256fde4d9833475fe272b25353574ce8dca0ec7c67f0c7ed9675d6a57d4dec32a340bb0bbe2274bd37440645fdd21787c073efb246184610092565b61097c6103208801357f138eeca8fd6172e01af1771d6a19782b6c986322da6c7f7029382c68163e9fbf7f109744880aee7baa792ace04b3c2816b9a1be6d653fb9df490d59f706737a19d84610092565b6109cd6103408801357f0493db215660b34abeae359b02dca52777e365d1cd52e3f53a9a9073a669b8af7f111f8ad3d9a6e95ccaf377e7cea7f210c0f36a28d7f83d0cc20be409d79c948484610092565b610a1e6103608801357f25e47c0fcd2a16189adf0c36c152b007f2a479d33ce4754fdd7a713499f588c77f2c6fa4d95d2182e401540cdc50ac03671e233f4de7703faa37a5471ae0877cc684610092565b610a6e6103808801357e029b51fca3fc45b994a52dc82e246e4827c1d2c2f6d541ddc57137f27089767f03935f95761ccd2e3631155c2be247812127ef74ee5164c388d0c097a9cc28c484610092565b610abf6103a08801357f1cbc32be5c04e6c825b87fb8a6b1a229645fdc7193d6675d675f7fc26a154d117f18e1ee4fa76edec3c48b2ea16b02e55743addb0edf4578baba5c1c9ab07eaec584610092565b610b106103c08801357f0723a3c0a9068818123b8fe3a5d505686108d78519a5f9849d6bf279d72ba0a37f1c35cff36322588f4a543f464dbe507f64cb0ed588b73e68ad159f1417fb077c84610092565b610b616103e08801357f26e18052bc58081ef5a269bcce35dff0b609380b8b487e2365985dfdcb4182b37f26e9de99d918b7e83ee40aa4fb9d6d160355435896af640dd2e09b2f3596f55984610092565b610bb26104008801357f0dd91fd94bff0dac0456cd63e46bc7c05b1dd4e4edbd1f7a8bdb163edeea10997f07044fe8c86e07d6d164db3f365de729315d660e75c337341937937e836703f384610092565b610c036104208801357f11997427ff1d144962f6dab8a411be331dd3edfeebad0068c64ceae41f22ef437f20ad831bf026aad38d28198e8ddfc30b98982de6ab44109c7f7f0ac82e6a33a384610092565b610c546104408801357f2462335b9cf230ddc7c1492f7d6c2609cb1836699f74d1dc63ba9339655f225c7f16eacd55301cb898b668a4d70281872704690864b39cd692bb3f60d00f9150cf84610092565b610ca56104608801357f0c01d6e238c75220c7ee70b70b9aa6f525623aaee8a3059b32834e56e2a8e1537f1f58143b420ad298a0318173211f84f3dbeeea101be691e8d0205ace3497b70584610092565b610cf56104808801357f20e34929ee7f163b17339a1de3978107163b726ce808287103d13eed0ed6b2d87ea5f669b34fb949dd2d1be6f8afaf044ea9f65d75c177e639360d73ce14abb584610092565b610d466104a08801357f2cdc3abe37b4d99f0411055909c7d073c31f9534e0a6acbf9ae2dae74728c1e17f298f0870d59e8a9b8b9d30c8586bc0a51ba4e4942efa2b11fc7024d9a7228eaf84610092565b610d976104c08801357f1b70b661c182506fe1af2f93750ae74396b1e3afd948a781b5bde2b6ce219ef07f2c1ffeeb37bcf86597acdfdab34d9e1606bbb2ba58abea2d4cc979d45ca9b1dc84610092565b610de86104e08801357f0107f4d8dc684af96305f429447cdf1c3397ee2efe06e2f122be518073f48dad7f1e4b8d592b92e69090d21e617bea69212d36b5184c6326db05fb55c1ca5286e884610092565b610e396105008801357f2cc066ed411ad61e57cbc10b8e52c91154b181df880c4cd605491a932bcdd9997f03759a0cb87a74851fd23a26b606304d3fffe880d1eaeaab69dcc2f3b466220684610092565b610e8a6105208801357f26f11173f5ec67afefef0a32582c31bf9d9b0a8fa66850c73da0c5618235eb597f2355bff9fbaf05ca60db09ac9af01f344ca57f19c3e0d9d234b1f48a4e0c5e3e84610092565b610edb6105408801357f17cd848978c8ab029d6a54ddee655ed3ba111aff239cfcf0356397b84aa226697f2ec54c84a63ca58669c3e4f4caad9b8ebca8714ca64316475bcc3e8111317c7884610092565b610f2c6105608801357f07c6f9f310f6c0685e29c23f0cb32ca65fc038a45cd8f9f5429107be45f55e5d7f2e5112e8f2623aa1b146eb236ff7966aab29b33a250dc6d26a256a4962e0cc7984610092565b610f7d6105808801357f07b93a0d5646f1bf36e31df7d759d0d3b6a2a894b27d233dee03e59679ec1c0e7f249b78d82ef52eefec003807b1a9473fb3cebd82b0c57b99a2a89e8d1570558f84610092565b610fcd6105a08801357efd87c2d1c73a662188f334e641bccd1c286cf2ed22b643afa644a130ea51f67f1bc28b3c30cffd42744aa60385b50ee9e1b30645229d7019ba544b19fe16ac8884610092565b61101e6105c08801357f0a7b3f969d87ca00d7f8e7602ecd4185b906eb25a96527f5a4f52a5a26b692d57f127a9d02665028dc5dabc6fe800f30201c8f43d7ca09f5d4ba1b0c153f52509a84610092565b61106f6105e08801357f01654a8a2d1feb9244d94a7b0d3b49a05be6336a1e435b7b0222af9d5c1226187f0c8480f1289cc7bf66a2438961075924333471a4f5864efaf196e5983e9e0a5984610092565b6110c06106008801357f2fc04eef26951e09cb316cf65157ff248da89011ad8bc3976e62bec0a63eac1e7f021e82d8c802b99923356076cfdd0c6f26adf49d755f5b4724e4b46029c7823284610092565b6111116106208801357f11277b3cd02c27aeb2a8b6709aacf38fc63db592735a3cc51c2c9328283c436d7f14074785054fea4198ff0a4bb6753a4bfa86cc33e9d308b9d07a0c578798b60984610092565b6111626106408801357f146c59444f7de74a8bc9c878e2aa56894611e0ab5a9b1c1a524cabfc1b37a5907f27cbbefbd05996349f6352e0cce360e9d1bac3e04878c547ed85b9b2f038826b84610092565b6111b36106608801357f07bb6363c5ca4be2da79e347ed7e00bfca42e6096257b13ebeae124cecafd5897f1ead409eb539459acbc43f0128ed1d4ae4c9c78d6481914c2261947b3f76063884610092565b6112046106808801357f25c16eee152fb7331df3a055bbc65058239513ec828919b4fefc739aa4b359fe7f28c8d0d83234bcd9e79146611c89f03f40fc0dfdaab74d3cb41afba79778d32484610092565b6112556106a08801357f293286a60c8ccd40d6b790cf618593cf7a12abd45f782a056124ce135365352d7f1c6970ba9f813943b2039cdd41357810234eb1269410282ba53693642bc6154f84610092565b6112a66106c08801357f13d1980cf45cd98e5fa78ad1573b0b8111a96e2ca06d742b63c1ff5cd7a0a7ba7f2679c7e6f429ac4def72005185ae7e559847ce8acca24f476e13ebb913fdb0fa84610092565b6112f76106e08801357f0880f27d16622bdc2784ae6014223ee1c3119d1656a7ed09fb3e5cf414c9476c7f27f70ca3ed1334113cf29ea1447fc42606b658a27cdd41389f8af0d4c480376784610092565b6113476107008801357f0dc8548e5c6f0495c8414d1d48544924cca5a9476e353bc27bb7ae74bfbe8ab37e2bdfcce7743b73a59f72c06e93418009acb8711953ff5ac0eb2efbc674a85084610092565b6113986107208801357f18358ab9e4b3f9ccd9991b8b1ccb44508a67841fc49893bed5092d2c71a548d97f2b71b482d41366ab3f225676917b7d72f6f955a885cf6c636acedebb04a3e76984610092565b6113e96107408801357f246b393ca3d7c98eed2aead1e77f4a57238411ddb4dcf181bf65f9d6bb46684e7f090ac55dabf092057045c69394b406080a4150ea3202c6aa6187486043385a9184610092565b61143a6107608801357f0140755bc41a363b8aae2f8adf083dae6e1c2980978ef722da4fd62d788fa05f7f07e03f4cb0bdaec7dda2902882c3c19ab5a3bc7c8f389d083a1e6e2f28665e4a84610092565b61148b6107808801357f077dc245efaf6bb53a3228c19135829590f621114959c81a230cb53071a147097f11673f94081dac3615769f040a3fe39ca3f42e816bdf7a723bd3f07e591ebabe84610092565b6114dc6107a08801357f195281c2d73a75a5a4cfff556410c94cfb9d882c8940d2d7390dda2eccce4bcd7f0fdc44822a5f65f24167cbec084d1e0eadd4d2d1f8cbe2ecdc3abd4db14cd61684610092565b61152d6107c08801357f2fff92d4c2b15f2ab5e7ba0c7d7a33701559a2b23a2e92aeb570bf81ca9633707f11c0d6f76f5b5233ae9b8434712a9ff10ef43e1d9698c2048373b5b08141cf1784610092565b61157e6107e08801357f05202c9b8cc03a55446839bb4a7c8e03387f8c0085b1d0a66120a372b3bbad1b7f16aa7cdebdbe518b63923be2c80d9d45f9a2136335ee0b105243e22a9126de6484610092565b6115cf6108008801357f2ca654aa619c4b044e5aa70c2b646f494659832a08394764190efa4a78d4d2167f12887ef733db64f581d0ff13cd51fcd2174ba3eddd8b8f68677ea076b1b95b5784610092565b6116206108208801357f0e71b2f84dfad369636fa09a26d30657c025e27494b45ef913031665152c9df87f0789e9b0d1b0035614c9036502c03de9e8a4839976300a573824c7151cc717cd84610092565b6116716108408801357f0fb8ccf691b5a5a542dab2f347adb42eaff4153c4711914bf2ad629ecc541dd67f2bff35fdca394d3f211b639f2d5da0f236d181e91e6204a8aed3a9284640780684610092565b6116c26108608801357f05f1ab341dce161e9ce3076305c1a4e208ddd8b1aea5db06f840a224383411787f2f072f31f58e1f0842f7a03c6d4be70c9e5cb72d299cb21cb29fc15c03a293e384610092565b6117136108808801357f0dfc7908ef62c8e011892d527be1e123f675e45e52c8c92038c316c0b442213a7f0d03af378dd4989e47b57187862a1be725f838a204f93c09a301389deceb17e284610092565b6117646108a08801357f28c71ed5113caed96ef099ceb5c4b5c28e357423f4215bb9cfd643e7d99489957f1d06b21860e1d6d452e8603223372ae88e70e9672a3e654a27dd176d56a211a384610092565b6117b56108c08801357f1e202f7ff0361c86e8c17b5a3b7d820ff5195d5ce2fdfe981a6a8bd54f654d1c7f18ece9e05eec96c4e88ea89f184057130e94f1ae9a4a0273175292351f3a080484610092565b6118066108e08801357f2fff2f89cf20ed786408f1097abf8738070a9777bc83e4bad5404b675e4fc0f67f2ec1eb0788cb596b40b0f87d2bec5e4313f184f4a19bf1159fd6eb90c8e0f30384610092565b6118576109008801357f0d6961a80a874b29ff45a4243af47937351f0ef60075bd6a82b9b69ea251ee4b7f0f7b5cdbf70750cee22e1db8397c08466ab555376335f844208aad58596407b984610092565b6118a86109208801357f1fd26de3aa935c84072c7932dfc0f872a53fd8799f67df5e8164836b7bd0f7a57f1aae8a628ec6958f1d37a6f49b619878e858c0ca6a17077943f6a23ab076157184610092565b6118f96109408801357f06d8b407e63722d83c0775fa23c3c5db84f7c03eb865cab16018baeaca4b20957f096eb9d466a46d79d29b1a437a0c872b6eb9031aff56ed28177798a6280c120484610092565b61194a6109608801357f0bc5701bc8677516b58dd479e116159e268baa029928e94ba8cb0db4b75dfeb47f2ea71269d064ac6ffe7f2512f18d088f43e94a9c3a933c4bcdc865ebc532ec2184610092565b61199b6109808801357f0a55b2b12bb6cbbfc4d408e9a84c3c0547db523ab29824c2ec8844524e0fa1937f29a8d8ca6bf69de8b304dc4f5352bf5da20e9796e54a7aa25ee2a4a13aa65f3484610092565b6119ec6109a08801357f2df89ad362d63435ee01050429e48fd8c1370dd9df44021466cad491f1cfd2447f1abe7af829204e220c51269ba698fc80c86835cf00a021971aed4ce5f669542a84610092565b611a3d6109c08801357f19fdaaf6efa2d389fbb570533a13e9bb6c0fdf972320481a40ecfce5793ec35a7f10ae117073dc0519435428a073da07f94fb3b43d270674558d25af4d8952253484610092565b611a8e6109e08801357f041ab547b5a17f33cac3b08e11dc15d2ba6977d4423c21bbc3672371f88acc437f2802f479af286e2d9cea10cc1471c159b2935cbbada93d9e257bc92c086048a484610092565b611adf610a008801357f2a6ef72847ceb28d418a439c799c618cf3d307c0899f2e6dc03a7574fe6711d07f15467abae0d138984c0e2b31181563c6b0a94bf9a16355023001025f481b523f84610092565b50823581527f30644e72e131a029b85045b68181585d97816a916871ca8d3c208c16d87cfd4760208401357f30644e72e131a029b85045b68181585d97816a916871ca8d3c208c16d87cfd4703066020820152833560408201526020840135606082015260408401356080820152606084013560a08201527f2d4d9aa7e302d9df41749d5507949d05dbea33fbb16c643b22f599a2be6df2e260c08201527f14bedd503c37ceb061d8ec60209fe345ce89830a19230301f076caff004d192660e08201527f0967032fcbf776d1afc985f88877f182d38480a653f2decaa9794cbc3bf3060c6101008201527f0e187847ad4c798374d0d6732bf501847dd68bc0e071241e0213bc7fc13db7ab6101208201527f304cfbd1e08a704a99f5e847d93f8c3caafddec46b7a0d379da69a4d112346a76101408201527f1739c1b1a457a8c7313123d24d2f9192f896b7c63eea05a9d57f06547ad0cec8610160820152600087015161018082015260206000018701516101a08201527f198e9393920d483a7260bfb731fb5d25f1aa493335a9e71297e485b7aef312c26101c08201527f1800deef121f1e76426a00665e5c4479674322d4f75edadd46debd5cd992f6ed6101e08201527f090689d0585ff075ec9e99ad690c3395bc4b313370b38ef355acdadcd122975b6102008201527f12c85ea5db8c6deb4aab71808dcb408fe3d1e7690c43d37b4ce6cc0166fa7daa610220820152843561024082015260208501356102608201527f209ab3edff3bb319cfdb535ef16d07e9ce2be5333ee1ca3916b7f23bd871f25c6102808201527f06a5a092938c49097aa2b94da0d23645d1f55d15799832921fd1cfd5d4d1ca6b6102a08201527f065cbb126ff86ca7d2a23d1143f302a7f1fdaec4b2f2d17f5a9306c0d3ec914c6102c08201527f194426174e47faf11931bcf88936eb3e3999f8d0677252164e27f160738203b66102e08201526020816103008360086107d05a03fa9051169695505050505050565b6040516103808101604052611dd7600084013561005e565b611de4602084013561005e565b611df1604084013561005e565b611dfe606084013561005e565b611e0b608084013561005e565b611e1860a084013561005e565b611e2560c084013561005e565b611e3260e084013561005e565b611e4061010084013561005e565b611e4e61012084013561005e565b611e5c61014084013561005e565b611e6a61016084013561005e565b611e7861018084013561005e565b611e866101a084013561005e565b611e946101c084013561005e565b611ea26101e084013561005e565b611eb061020084013561005e565b611ebe61022084013561005e565b611ecc61024084013561005e565b611eda61026084013561005e565b611ee861028084013561005e565b611ef66102a084013561005e565b611f046102c084013561005e565b611f126102e084013561005e565b611f2061030084013561005e565b611f2e61032084013561005e565b611f3c61034084013561005e565b611f4a61036084013561005e565b611f5861038084013561005e565b611f666103a084013561005e565b611f746103c084013561005e565b611f826103e084013561005e565b611f9061040084013561005e565b611f9e61042084013561005e565b611fac61044084013561005e565b611fba61046084013561005e565b611fc861048084013561005e565b611fd66104a084013561005e565b611fe46104c084013561005e565b611ff26104e084013561005e565b61200061050084013561005e565b61200e61052084013561005e565b61201c61054084013561005e565b61202a61056084013561005e565b61203861058084013561005e565b6120466105a084013561005e565b6120546105c084013561005e565b6120626105e084013561005e565b61207061060084013561005e565b61207e61062084013561005e565b61208c61064084013561005e565b61209a61066084013561005e565b6120a861068084013561005e565b6120b66106a084013561005e565b6120c46106c084013561005e565b6120d26106e084013561005e565b6120e061070084013561005e565b6120ee61072084013561005e565b6120fc61074084013561005e565b61210a61076084013561005e565b61211861078084013561005e565b6121266107a084013561005e565b6121346107c084013561005e565b6121426107e084013561005e565b61215061080084013561005e565b61215e61082084013561005e565b61216c61084084013561005e565b61217a61086084013561005e565b61218861088084013561005e565b6121966108a084013561005e565b6121a46108c084013561005e565b6121b26108e084013561005e565b6121c061090084013561005e565b6121ce61092084013561005e565b6121dc61094084013561005e565b6121ea61096084013561005e565b6121f861098084013561005e565b6122066109a084013561005e565b6122146109c084013561005e565b6122226109e084013561005e565b612230610a0084013561005e565b61223e610a2084013561005e565b61224b818486888a6100fd565b600090815260209150f35b806040810183101561226757600080fd5b92915050565b600080600080610b20808688031215612284578485fd5b61228e8787612256565b945060c08601878111156122a0578485fd5b6040870194506122b08882612256565b9350508681870111156122c1578182fd5b5092959194509261010001915056fea2646970667358221220944129dfdfe75b72016028b91295b4c9bfb8627fbcd88573bd182e03b408644664736f6c63430008040033","opcodes":"PUSH1 0x80 PUSH1 0x40 MSTORE CALLVALUE DUP1 ISZERO PUSH2 0x10 JUMPI PUSH1 0x0 DUP1 REVERT JUMPDEST POP PUSH2 0x2306 DUP1 PUSH2 0x20 PUSH1 0x0 CODECOPY PUSH1 0x0 RETURN INVALID PUSH1 0x80 PUSH1 0x40 MSTORE CALLVALUE DUP1 ISZERO PUSH2 0x10 JUMPI PUSH1 0x0 DUP1 REVERT JUMPDEST POP PUSH1 0x4 CALLDATASIZE LT PUSH2 0x2B JUMPI PUSH1 0x0 CALLDATALOAD PUSH1 0xE0 SHR DUP1 PUSH4 0xE235AD2A EQ PUSH2 0x30 JUMPI JUMPDEST PUSH1 0x0 DUP1 REVERT JUMPDEST PUSH2 0x43 PUSH2 0x3E CALLDATASIZE PUSH1 0x4 PUSH2 0x226D JUMP JUMPDEST PUSH2 0x57 JUMP JUMPDEST PUSH1 0x40 MLOAD SWAP1 ISZERO ISZERO DUP2 MSTORE PUSH1 0x20 ADD PUSH1 0x40 MLOAD DUP1 SWAP2 SUB SWAP1 RETURN JUMPDEST PUSH1 0x0 PUSH2 0x1DBF JUMP JUMPDEST PUSH32 0x30644E72E131A029B85045B68181585D97816A916871CA8D3C208C16D87CFD47 DUP2 LT PUSH2 0x8F JUMPI PUSH1 0x0 DUP1 MSTORE PUSH1 0x20 PUSH1 0x0 RETURN JUMPDEST POP JUMP JUMPDEST PUSH1 0x0 PUSH1 0x40 MLOAD DUP4 DUP2 MSTORE DUP5 PUSH1 0x20 DUP3 ADD MSTORE DUP6 PUSH1 0x40 DUP3 ADD MSTORE PUSH1 0x40 DUP2 PUSH1 0x60 DUP4 PUSH1 0x7 PUSH2 0x7D0 GAS SUB STATICCALL SWAP2 POP DUP2 PUSH2 0xC5 JUMPI PUSH1 0x0 DUP1 MSTORE PUSH1 0x20 PUSH1 0x0 RETURN JUMPDEST DUP3 MLOAD PUSH1 0x40 DUP3 ADD MSTORE PUSH1 0x20 DUP4 ADD MLOAD PUSH1 0x60 DUP3 ADD MSTORE PUSH1 0x40 DUP4 PUSH1 0x80 DUP4 PUSH1 0x6 PUSH2 0x7D0 GAS SUB STATICCALL SWAP2 POP POP DUP1 PUSH2 0xF6 JUMPI PUSH1 0x0 DUP1 MSTORE PUSH1 0x20 PUSH1 0x0 RETURN JUMPDEST POP POP POP POP POP JUMP JUMPDEST PUSH32 0x1253F1ED4C25B61A9DBB0E0D456DB1C45D337F64B48CBD3A2818B4F58A6C2405 DUP6 MSTORE PUSH32 0x154BC63CA660CA7949427889F70840B7F5A34D5EB6DF02C38BFB75D6ECF0C51 PUSH1 0x20 DUP7 ADD MSTORE PUSH1 0x0 PUSH1 0x80 DUP7 ADD DUP7 PUSH2 0x19A DUP8 CALLDATALOAD PUSH32 0x2263F4D40A739CBEB0BECDA69192439068BCE12F33BA0BBABD557F8308C2E1CA PUSH32 0x1FCA01E7EEAF0EC1B49FB3D807EC621EE889818BC5125EEC3B603A0F896AE760 DUP5 PUSH2 0x92 JUMP JUMPDEST PUSH2 0x1EA PUSH1 0x20 DUP9 ADD CALLDATALOAD PUSH32 0x24FED30E8391E935A60213037F23E153BCFA24B1954578FDE070293DF2B8506E PUSH32 0xCDD64AB2C76FA38FF9DFC9EF44938156DAABA16203AB2267C66ED93B143D763 DUP5 PUSH2 0x92 JUMP JUMPDEST PUSH2 0x23A PUSH1 0x40 DUP9 ADD CALLDATALOAD PUSH32 0xDEF24CE297A1BDBC646D1498E4875CFB22DA11EA84C023FF04227A7FABBC824 PUSH32 0xB428846A2D0E4AC9886D42BF94CAAA5E3B0E05F984AB2F11698EA6054F3D576 DUP5 PUSH2 0x92 JUMP JUMPDEST PUSH2 0x28A PUSH1 0x60 DUP9 ADD CALLDATALOAD PUSH32 0x18B265378C5BB4A31566D622E401080E96901F9FD6DFB1E489B1576D008D231E PUSH32 0xADC739398F12572F89E65A9932DD60517074C4CD86374F6EA96C8F125C57C44 DUP5 PUSH2 0x92 JUMP JUMPDEST PUSH2 0x2DA PUSH1 0x80 DUP9 ADD CALLDATALOAD PUSH32 0x8D91FE8D063107CB19D7293AE51F955E2A6FCF01A3F4920CE5C1EE27F0E07FD PUSH32 0x386E5C70B3EA649DC335BE6EFFD59CC36D15866B7CE87BB62E509B3F3037106 DUP5 PUSH2 0x92 JUMP JUMPDEST PUSH2 0x32A PUSH1 0xA0 DUP9 ADD CALLDATALOAD PUSH32 0x27091B42AAA0D419334E4EE5770F00876EA48E0E23DDF6BA57C15345C16E6A47 PUSH32 0xAB85E366F052127D0C30B828DF17AA280B74F01411C737C7ED63973D39067C4 DUP5 PUSH2 0x92 JUMP JUMPDEST PUSH2 0x37A PUSH1 0xC0 DUP9 ADD CALLDATALOAD PUSH32 0x282EF554E8B02568068ACAA6DDBFCA7672DCAD49A2940A708C05138775796722 PUSH32 0x222D2806893FA11E2704754D2BEEF9EC209C135FB77BF03C2FED20CCA1418718 DUP5 PUSH2 0x92 JUMP JUMPDEST PUSH2 0x3CA PUSH1 0xE0 DUP9 ADD CALLDATALOAD PUSH32 0x258165C6B1CA44C3E7BC0E3932EC52B3AF39A01BB78A2CC71809FC1907B20E83 PUSH32 0x242FC8FDADA862997D66630500D118D810395DF364944A6BBE8293DF5013662A DUP5 PUSH2 0x92 JUMP JUMPDEST PUSH2 0x41B PUSH2 0x100 DUP9 ADD CALLDATALOAD PUSH32 0x45EF0334CD6070127ACB8C1933A18A5C96BAA3C7073D34B1A01FDDE08564C3D PUSH32 0x8038FDFE43F6A732F54DE453D0BCA3D7191F04A6BEB5CCCC2565EE97C6F39E9 DUP5 PUSH2 0x92 JUMP JUMPDEST PUSH2 0x46C PUSH2 0x120 DUP9 ADD CALLDATALOAD PUSH32 0x252FC8103413FA858E5F5AD99CD66F6CBF158CC6F429BBAF101A1FEA7414B321 PUSH32 0x269B9154CCC4E255750FD12C21A82D5938C5376AA08C7DEC3327C437597A9BF4 DUP5 PUSH2 0x92 JUMP JUMPDEST PUSH2 0x4BD PUSH2 0x140 DUP9 ADD CALLDATALOAD PUSH32 0x19474D54EB78E28E093D1AA95ACE6DC317F7AC878083DC25B6973A5A0668FFC2 PUSH32 0x14E787B88B611EE7C48EA151E99F4E32C502058EA47276462D05D6BA9CBF988B DUP5 PUSH2 0x92 JUMP JUMPDEST PUSH2 0x50E PUSH2 0x160 DUP9 ADD CALLDATALOAD PUSH32 0x287DB9753DBB5C64EA5264394DDABCEA52A004C757DB2FA5A7C32C4FA0D8013F PUSH32 0x192E12D0E8C9D636AAC21468096F5CD56D950A7D8C260926B211B747F9503A7 DUP5 PUSH2 0x92 JUMP JUMPDEST PUSH2 0x55F PUSH2 0x180 DUP9 ADD CALLDATALOAD PUSH32 0x5F55DF24706EB3D0D747ABE02F6CDD146B52487E6D3765F2A49572170160C67 PUSH32 0x204C167C13280225BBBDBDDB0CE99519286A24B6A2E3914EAB075E4465C7F703 DUP5 PUSH2 0x92 JUMP JUMPDEST PUSH2 0x5B0 PUSH2 0x1A0 DUP9 ADD CALLDATALOAD PUSH32 0xE2279CEABA48EE873A872E684E50819C9EC7CC69B553E9715C5AE10CE57F9C5 PUSH32 0x12C2F4212CE1ED35050D68FBADA0E359F39DBEDCC2E26632F896762C528CCDFB DUP5 PUSH2 0x92 JUMP JUMPDEST PUSH2 0x601 PUSH2 0x1C0 DUP9 ADD CALLDATALOAD PUSH32 0x194C7D30C16878F2A66A5B742AF6D6ABC2F0C47FFF250A7FC91CE799FCC32911 PUSH32 0xDB65A3C298BE11B21E4C833819C7AB04E8977AB2D804BE39CB0375BFFE2D8FF DUP5 PUSH2 0x92 JUMP JUMPDEST PUSH2 0x652 PUSH2 0x1E0 DUP9 ADD CALLDATALOAD PUSH32 0xDD9DE6B5DA7F580FEF1235DAC3E9EF0271D145CD2F178C146148EC97F63D4C3 PUSH32 0x55DDCF78EF7880D72C5165E8D4335DCC82DA1CFD8543F71B83189678FD1073F DUP5 PUSH2 0x92 JUMP JUMPDEST PUSH2 0x6A3 PUSH2 0x200 DUP9 ADD CALLDATALOAD PUSH32 0x2C96F3E4C6583C7C15B298A501C4F4F7FF459EC8CD26C7EC4AE54C0EE350EB60 PUSH32 0x2C11C66AEA64F8A0FD92C42C091E17F8CF99CAA71575BA1F41F44B6141A5F20A DUP5 PUSH2 0x92 JUMP JUMPDEST PUSH2 0x6F4 PUSH2 0x220 DUP9 ADD CALLDATALOAD PUSH32 0xBAB24ADCA51EA3FED8A5C96FECC40B020BDB48C2CE76CFDA4F1470ED692B897 PUSH32 0x1C0DDDC69219EF9B3430E7AE888CDAC22C173AF863B25D52BF32509027CCB869 DUP5 PUSH2 0x92 JUMP JUMPDEST PUSH2 0x745 PUSH2 0x240 DUP9 ADD CALLDATALOAD PUSH32 0x2273D81395E33D5FA314610E7B06DC7BDB095D241066BF7FEA46D34F6A088F46 PUSH32 0x1529A9A4837F81EE6BC187451E85F49BACF730B9E103668C5AA80EF13E1A73EF DUP5 PUSH2 0x92 JUMP JUMPDEST PUSH2 0x796 PUSH2 0x260 DUP9 ADD CALLDATALOAD PUSH32 0x1688A74927FB6377AD3EC7C5556913D99CAC5037D609FEEE985CC1A6F0AB20DD PUSH32 0x64B8E09B087C87CDCF236966B3577F132D5AA60B5C3F13B201DB590B953D92F DUP5 PUSH2 0x92 JUMP JUMPDEST PUSH2 0x7E7 PUSH2 0x280 DUP9 ADD CALLDATALOAD PUSH32 0x1C0C51DE4C30AC307C3DE2647E1B245D3E6CF7C3958FBCA5B787589B8ADCEE3B PUSH32 0x6F5B4A818E85B59653C91D12E6CCA6287DF76CDDD03583A1F5D50248AC8A8D5 DUP5 PUSH2 0x92 JUMP JUMPDEST PUSH2 0x838 PUSH2 0x2A0 DUP9 ADD CALLDATALOAD PUSH32 0xAA54D1DF84AE561EEFABD0D9C752BBCABEDF196B41675CF36949DDFC6696922 PUSH32 0x21C87FF8E57AA4F1EE86E940A101525512242A6C103FFF74BF50D32DEBFB0C33 DUP5 PUSH2 0x92 JUMP JUMPDEST PUSH2 0x889 PUSH2 0x2C0 DUP9 ADD CALLDATALOAD PUSH32 0x2C7BA5C66F823F8F73A102AE0559AE7F08C62467A59A6D17DF5658B5E8D72220 PUSH32 0x5734EC18779181A931AA5C7A6875F77CE79CFBE186D6B8D569447C685BF253C DUP5 PUSH2 0x92 JUMP JUMPDEST PUSH2 0x8DA PUSH2 0x2E0 DUP9 ADD CALLDATALOAD PUSH32 0x10948FA9FEACF995F01BA66188296B01B5B3AED11D1EC73E35B31DA656335A5B PUSH32 0x21005BF9E02661F10E870839F103CE5A59EA0BD4E16B803CEBC46D140E2529CB DUP5 PUSH2 0x92 JUMP JUMPDEST PUSH2 0x92B PUSH2 0x300 DUP9 ADD CALLDATALOAD PUSH32 0x2C8FF1A5B6AA18DE7BF934A256FDE4D9833475FE272B25353574CE8DCA0EC7C6 PUSH32 0xC7ED9675D6A57D4DEC32A340BB0BBE2274BD37440645FDD21787C073EFB2461 DUP5 PUSH2 0x92 JUMP JUMPDEST PUSH2 0x97C PUSH2 0x320 DUP9 ADD CALLDATALOAD PUSH32 0x138EECA8FD6172E01AF1771D6A19782B6C986322DA6C7F7029382C68163E9FBF PUSH32 0x109744880AEE7BAA792ACE04B3C2816B9A1BE6D653FB9DF490D59F706737A19D DUP5 PUSH2 0x92 JUMP JUMPDEST PUSH2 0x9CD PUSH2 0x340 DUP9 ADD CALLDATALOAD PUSH32 0x493DB215660B34ABEAE359B02DCA52777E365D1CD52E3F53A9A9073A669B8AF PUSH32 0x111F8AD3D9A6E95CCAF377E7CEA7F210C0F36A28D7F83D0CC20BE409D79C9484 DUP5 PUSH2 0x92 JUMP JUMPDEST PUSH2 0xA1E PUSH2 0x360 DUP9 ADD CALLDATALOAD PUSH32 0x25E47C0FCD2A16189ADF0C36C152B007F2A479D33CE4754FDD7A713499F588C7 PUSH32 0x2C6FA4D95D2182E401540CDC50AC03671E233F4DE7703FAA37A5471AE0877CC6 DUP5 PUSH2 0x92 JUMP JUMPDEST PUSH2 0xA6E PUSH2 0x380 DUP9 ADD CALLDATALOAD PUSH31 0x29B51FCA3FC45B994A52DC82E246E4827C1D2C2F6D541DDC57137F2708976 PUSH32 0x3935F95761CCD2E3631155C2BE247812127EF74EE5164C388D0C097A9CC28C4 DUP5 PUSH2 0x92 JUMP JUMPDEST PUSH2 0xABF PUSH2 0x3A0 DUP9 ADD CALLDATALOAD PUSH32 0x1CBC32BE5C04E6C825B87FB8A6B1A229645FDC7193D6675D675F7FC26A154D11 PUSH32 0x18E1EE4FA76EDEC3C48B2EA16B02E55743ADDB0EDF4578BABA5C1C9AB07EAEC5 DUP5 PUSH2 0x92 JUMP JUMPDEST PUSH2 0xB10 PUSH2 0x3C0 DUP9 ADD CALLDATALOAD PUSH32 0x723A3C0A9068818123B8FE3A5D505686108D78519A5F9849D6BF279D72BA0A3 PUSH32 0x1C35CFF36322588F4A543F464DBE507F64CB0ED588B73E68AD159F1417FB077C DUP5 PUSH2 0x92 JUMP JUMPDEST PUSH2 0xB61 PUSH2 0x3E0 DUP9 ADD CALLDATALOAD PUSH32 0x26E18052BC58081EF5A269BCCE35DFF0B609380B8B487E2365985DFDCB4182B3 PUSH32 0x26E9DE99D918B7E83EE40AA4FB9D6D160355435896AF640DD2E09B2F3596F559 DUP5 PUSH2 0x92 JUMP JUMPDEST PUSH2 0xBB2 PUSH2 0x400 DUP9 ADD CALLDATALOAD PUSH32 0xDD91FD94BFF0DAC0456CD63E46BC7C05B1DD4E4EDBD1F7A8BDB163EDEEA1099 PUSH32 0x7044FE8C86E07D6D164DB3F365DE729315D660E75C337341937937E836703F3 DUP5 PUSH2 0x92 JUMP JUMPDEST PUSH2 0xC03 PUSH2 0x420 DUP9 ADD CALLDATALOAD PUSH32 0x11997427FF1D144962F6DAB8A411BE331DD3EDFEEBAD0068C64CEAE41F22EF43 PUSH32 0x20AD831BF026AAD38D28198E8DDFC30B98982DE6AB44109C7F7F0AC82E6A33A3 DUP5 PUSH2 0x92 JUMP JUMPDEST PUSH2 0xC54 PUSH2 0x440 DUP9 ADD CALLDATALOAD PUSH32 0x2462335B9CF230DDC7C1492F7D6C2609CB1836699F74D1DC63BA9339655F225C PUSH32 0x16EACD55301CB898B668A4D70281872704690864B39CD692BB3F60D00F9150CF DUP5 PUSH2 0x92 JUMP JUMPDEST PUSH2 0xCA5 PUSH2 0x460 DUP9 ADD CALLDATALOAD PUSH32 0xC01D6E238C75220C7EE70B70B9AA6F525623AAEE8A3059B32834E56E2A8E153 PUSH32 0x1F58143B420AD298A0318173211F84F3DBEEEA101BE691E8D0205ACE3497B705 DUP5 PUSH2 0x92 JUMP JUMPDEST PUSH2 0xCF5 PUSH2 0x480 DUP9 ADD CALLDATALOAD PUSH32 0x20E34929EE7F163B17339A1DE3978107163B726CE808287103D13EED0ED6B2D8 PUSH31 0xA5F669B34FB949DD2D1BE6F8AFAF044EA9F65D75C177E639360D73CE14ABB5 DUP5 PUSH2 0x92 JUMP JUMPDEST PUSH2 0xD46 PUSH2 0x4A0 DUP9 ADD CALLDATALOAD PUSH32 0x2CDC3ABE37B4D99F0411055909C7D073C31F9534E0A6ACBF9AE2DAE74728C1E1 PUSH32 0x298F0870D59E8A9B8B9D30C8586BC0A51BA4E4942EFA2B11FC7024D9A7228EAF DUP5 PUSH2 0x92 JUMP JUMPDEST PUSH2 0xD97 PUSH2 0x4C0 DUP9 ADD CALLDATALOAD PUSH32 0x1B70B661C182506FE1AF2F93750AE74396B1E3AFD948A781B5BDE2B6CE219EF0 PUSH32 0x2C1FFEEB37BCF86597ACDFDAB34D9E1606BBB2BA58ABEA2D4CC979D45CA9B1DC DUP5 PUSH2 0x92 JUMP JUMPDEST PUSH2 0xDE8 PUSH2 0x4E0 DUP9 ADD CALLDATALOAD PUSH32 0x107F4D8DC684AF96305F429447CDF1C3397EE2EFE06E2F122BE518073F48DAD PUSH32 0x1E4B8D592B92E69090D21E617BEA69212D36B5184C6326DB05FB55C1CA5286E8 DUP5 PUSH2 0x92 JUMP JUMPDEST PUSH2 0xE39 PUSH2 0x500 DUP9 ADD CALLDATALOAD PUSH32 0x2CC066ED411AD61E57CBC10B8E52C91154B181DF880C4CD605491A932BCDD999 PUSH32 0x3759A0CB87A74851FD23A26B606304D3FFFE880D1EAEAAB69DCC2F3B4662206 DUP5 PUSH2 0x92 JUMP JUMPDEST PUSH2 0xE8A PUSH2 0x520 DUP9 ADD CALLDATALOAD PUSH32 0x26F11173F5EC67AFEFEF0A32582C31BF9D9B0A8FA66850C73DA0C5618235EB59 PUSH32 0x2355BFF9FBAF05CA60DB09AC9AF01F344CA57F19C3E0D9D234B1F48A4E0C5E3E DUP5 PUSH2 0x92 JUMP JUMPDEST PUSH2 0xEDB PUSH2 0x540 DUP9 ADD CALLDATALOAD PUSH32 0x17CD848978C8AB029D6A54DDEE655ED3BA111AFF239CFCF0356397B84AA22669 PUSH32 0x2EC54C84A63CA58669C3E4F4CAAD9B8EBCA8714CA64316475BCC3E8111317C78 DUP5 PUSH2 0x92 JUMP JUMPDEST PUSH2 0xF2C PUSH2 0x560 DUP9 ADD CALLDATALOAD PUSH32 0x7C6F9F310F6C0685E29C23F0CB32CA65FC038A45CD8F9F5429107BE45F55E5D PUSH32 0x2E5112E8F2623AA1B146EB236FF7966AAB29B33A250DC6D26A256A4962E0CC79 DUP5 PUSH2 0x92 JUMP JUMPDEST PUSH2 0xF7D PUSH2 0x580 DUP9 ADD CALLDATALOAD PUSH32 0x7B93A0D5646F1BF36E31DF7D759D0D3B6A2A894B27D233DEE03E59679EC1C0E PUSH32 0x249B78D82EF52EEFEC003807B1A9473FB3CEBD82B0C57B99A2A89E8D1570558F DUP5 PUSH2 0x92 JUMP JUMPDEST PUSH2 0xFCD PUSH2 0x5A0 DUP9 ADD CALLDATALOAD PUSH31 0xFD87C2D1C73A662188F334E641BCCD1C286CF2ED22B643AFA644A130EA51F6 PUSH32 0x1BC28B3C30CFFD42744AA60385B50EE9E1B30645229D7019BA544B19FE16AC88 DUP5 PUSH2 0x92 JUMP JUMPDEST PUSH2 0x101E PUSH2 0x5C0 DUP9 ADD CALLDATALOAD PUSH32 0xA7B3F969D87CA00D7F8E7602ECD4185B906EB25A96527F5A4F52A5A26B692D5 PUSH32 0x127A9D02665028DC5DABC6FE800F30201C8F43D7CA09F5D4BA1B0C153F52509A DUP5 PUSH2 0x92 JUMP JUMPDEST PUSH2 0x106F PUSH2 0x5E0 DUP9 ADD CALLDATALOAD PUSH32 0x1654A8A2D1FEB9244D94A7B0D3B49A05BE6336A1E435B7B0222AF9D5C122618 PUSH32 0xC8480F1289CC7BF66A2438961075924333471A4F5864EFAF196E5983E9E0A59 DUP5 PUSH2 0x92 JUMP JUMPDEST PUSH2 0x10C0 PUSH2 0x600 DUP9 ADD CALLDATALOAD PUSH32 0x2FC04EEF26951E09CB316CF65157FF248DA89011AD8BC3976E62BEC0A63EAC1E PUSH32 0x21E82D8C802B99923356076CFDD0C6F26ADF49D755F5B4724E4B46029C78232 DUP5 PUSH2 0x92 JUMP JUMPDEST PUSH2 0x1111 PUSH2 0x620 DUP9 ADD CALLDATALOAD PUSH32 0x11277B3CD02C27AEB2A8B6709AACF38FC63DB592735A3CC51C2C9328283C436D PUSH32 0x14074785054FEA4198FF0A4BB6753A4BFA86CC33E9D308B9D07A0C578798B609 DUP5 PUSH2 0x92 JUMP JUMPDEST PUSH2 0x1162 PUSH2 0x640 DUP9 ADD CALLDATALOAD PUSH32 0x146C59444F7DE74A8BC9C878E2AA56894611E0AB5A9B1C1A524CABFC1B37A590 PUSH32 0x27CBBEFBD05996349F6352E0CCE360E9D1BAC3E04878C547ED85B9B2F038826B DUP5 PUSH2 0x92 JUMP JUMPDEST PUSH2 0x11B3 PUSH2 0x660 DUP9 ADD CALLDATALOAD PUSH32 0x7BB6363C5CA4BE2DA79E347ED7E00BFCA42E6096257B13EBEAE124CECAFD589 PUSH32 0x1EAD409EB539459ACBC43F0128ED1D4AE4C9C78D6481914C2261947B3F760638 DUP5 PUSH2 0x92 JUMP JUMPDEST PUSH2 0x1204 PUSH2 0x680 DUP9 ADD CALLDATALOAD PUSH32 0x25C16EEE152FB7331DF3A055BBC65058239513EC828919B4FEFC739AA4B359FE PUSH32 0x28C8D0D83234BCD9E79146611C89F03F40FC0DFDAAB74D3CB41AFBA79778D324 DUP5 PUSH2 0x92 JUMP JUMPDEST PUSH2 0x1255 PUSH2 0x6A0 DUP9 ADD CALLDATALOAD PUSH32 0x293286A60C8CCD40D6B790CF618593CF7A12ABD45F782A056124CE135365352D PUSH32 0x1C6970BA9F813943B2039CDD41357810234EB1269410282BA53693642BC6154F DUP5 PUSH2 0x92 JUMP JUMPDEST PUSH2 0x12A6 PUSH2 0x6C0 DUP9 ADD CALLDATALOAD PUSH32 0x13D1980CF45CD98E5FA78AD1573B0B8111A96E2CA06D742B63C1FF5CD7A0A7BA PUSH32 0x2679C7E6F429AC4DEF72005185AE7E559847CE8ACCA24F476E13EBB913FDB0FA DUP5 PUSH2 0x92 JUMP JUMPDEST PUSH2 0x12F7 PUSH2 0x6E0 DUP9 ADD CALLDATALOAD PUSH32 0x880F27D16622BDC2784AE6014223EE1C3119D1656A7ED09FB3E5CF414C9476C PUSH32 0x27F70CA3ED1334113CF29EA1447FC42606B658A27CDD41389F8AF0D4C4803767 DUP5 PUSH2 0x92 JUMP JUMPDEST PUSH2 0x1347 PUSH2 0x700 DUP9 ADD CALLDATALOAD PUSH32 0xDC8548E5C6F0495C8414D1D48544924CCA5A9476E353BC27BB7AE74BFBE8AB3 PUSH31 0x2BDFCCE7743B73A59F72C06E93418009ACB8711953FF5AC0EB2EFBC674A850 DUP5 PUSH2 0x92 JUMP JUMPDEST PUSH2 0x1398 PUSH2 0x720 DUP9 ADD CALLDATALOAD PUSH32 0x18358AB9E4B3F9CCD9991B8B1CCB44508A67841FC49893BED5092D2C71A548D9 PUSH32 0x2B71B482D41366AB3F225676917B7D72F6F955A885CF6C636ACEDEBB04A3E769 DUP5 PUSH2 0x92 JUMP JUMPDEST PUSH2 0x13E9 PUSH2 0x740 DUP9 ADD CALLDATALOAD PUSH32 0x246B393CA3D7C98EED2AEAD1E77F4A57238411DDB4DCF181BF65F9D6BB46684E PUSH32 0x90AC55DABF092057045C69394B406080A4150EA3202C6AA6187486043385A91 DUP5 PUSH2 0x92 JUMP JUMPDEST PUSH2 0x143A PUSH2 0x760 DUP9 ADD CALLDATALOAD PUSH32 0x140755BC41A363B8AAE2F8ADF083DAE6E1C2980978EF722DA4FD62D788FA05F PUSH32 0x7E03F4CB0BDAEC7DDA2902882C3C19AB5A3BC7C8F389D083A1E6E2F28665E4A DUP5 PUSH2 0x92 JUMP JUMPDEST PUSH2 0x148B PUSH2 0x780 DUP9 ADD CALLDATALOAD PUSH32 0x77DC245EFAF6BB53A3228C19135829590F621114959C81A230CB53071A14709 PUSH32 0x11673F94081DAC3615769F040A3FE39CA3F42E816BDF7A723BD3F07E591EBABE DUP5 PUSH2 0x92 JUMP JUMPDEST PUSH2 0x14DC PUSH2 0x7A0 DUP9 ADD CALLDATALOAD PUSH32 0x195281C2D73A75A5A4CFFF556410C94CFB9D882C8940D2D7390DDA2ECCCE4BCD PUSH32 0xFDC44822A5F65F24167CBEC084D1E0EADD4D2D1F8CBE2ECDC3ABD4DB14CD616 DUP5 PUSH2 0x92 JUMP JUMPDEST PUSH2 0x152D PUSH2 0x7C0 DUP9 ADD CALLDATALOAD PUSH32 0x2FFF92D4C2B15F2AB5E7BA0C7D7A33701559A2B23A2E92AEB570BF81CA963370 PUSH32 0x11C0D6F76F5B5233AE9B8434712A9FF10EF43E1D9698C2048373B5B08141CF17 DUP5 PUSH2 0x92 JUMP JUMPDEST PUSH2 0x157E PUSH2 0x7E0 DUP9 ADD CALLDATALOAD PUSH32 0x5202C9B8CC03A55446839BB4A7C8E03387F8C0085B1D0A66120A372B3BBAD1B PUSH32 0x16AA7CDEBDBE518B63923BE2C80D9D45F9A2136335EE0B105243E22A9126DE64 DUP5 PUSH2 0x92 JUMP JUMPDEST PUSH2 0x15CF PUSH2 0x800 DUP9 ADD CALLDATALOAD PUSH32 0x2CA654AA619C4B044E5AA70C2B646F494659832A08394764190EFA4A78D4D216 PUSH32 0x12887EF733DB64F581D0FF13CD51FCD2174BA3EDDD8B8F68677EA076B1B95B57 DUP5 PUSH2 0x92 JUMP JUMPDEST PUSH2 0x1620 PUSH2 0x820 DUP9 ADD CALLDATALOAD PUSH32 0xE71B2F84DFAD369636FA09A26D30657C025E27494B45EF913031665152C9DF8 PUSH32 0x789E9B0D1B0035614C9036502C03DE9E8A4839976300A573824C7151CC717CD DUP5 PUSH2 0x92 JUMP JUMPDEST PUSH2 0x1671 PUSH2 0x840 DUP9 ADD CALLDATALOAD PUSH32 0xFB8CCF691B5A5A542DAB2F347ADB42EAFF4153C4711914BF2AD629ECC541DD6 PUSH32 0x2BFF35FDCA394D3F211B639F2D5DA0F236D181E91E6204A8AED3A92846407806 DUP5 PUSH2 0x92 JUMP JUMPDEST PUSH2 0x16C2 PUSH2 0x860 DUP9 ADD CALLDATALOAD PUSH32 0x5F1AB341DCE161E9CE3076305C1A4E208DDD8B1AEA5DB06F840A22438341178 PUSH32 0x2F072F31F58E1F0842F7A03C6D4BE70C9E5CB72D299CB21CB29FC15C03A293E3 DUP5 PUSH2 0x92 JUMP JUMPDEST PUSH2 0x1713 PUSH2 0x880 DUP9 ADD CALLDATALOAD PUSH32 0xDFC7908EF62C8E011892D527BE1E123F675E45E52C8C92038C316C0B442213A PUSH32 0xD03AF378DD4989E47B57187862A1BE725F838A204F93C09A301389DECEB17E2 DUP5 PUSH2 0x92 JUMP JUMPDEST PUSH2 0x1764 PUSH2 0x8A0 DUP9 ADD CALLDATALOAD PUSH32 0x28C71ED5113CAED96EF099CEB5C4B5C28E357423F4215BB9CFD643E7D9948995 PUSH32 0x1D06B21860E1D6D452E8603223372AE88E70E9672A3E654A27DD176D56A211A3 DUP5 PUSH2 0x92 JUMP JUMPDEST PUSH2 0x17B5 PUSH2 0x8C0 DUP9 ADD CALLDATALOAD PUSH32 0x1E202F7FF0361C86E8C17B5A3B7D820FF5195D5CE2FDFE981A6A8BD54F654D1C PUSH32 0x18ECE9E05EEC96C4E88EA89F184057130E94F1AE9A4A0273175292351F3A0804 DUP5 PUSH2 0x92 JUMP JUMPDEST PUSH2 0x1806 PUSH2 0x8E0 DUP9 ADD CALLDATALOAD PUSH32 0x2FFF2F89CF20ED786408F1097ABF8738070A9777BC83E4BAD5404B675E4FC0F6 PUSH32 0x2EC1EB0788CB596B40B0F87D2BEC5E4313F184F4A19BF1159FD6EB90C8E0F303 DUP5 PUSH2 0x92 JUMP JUMPDEST PUSH2 0x1857 PUSH2 0x900 DUP9 ADD CALLDATALOAD PUSH32 0xD6961A80A874B29FF45A4243AF47937351F0EF60075BD6A82B9B69EA251EE4B PUSH32 0xF7B5CDBF70750CEE22E1DB8397C08466AB555376335F844208AAD58596407B9 DUP5 PUSH2 0x92 JUMP JUMPDEST PUSH2 0x18A8 PUSH2 0x920 DUP9 ADD CALLDATALOAD PUSH32 0x1FD26DE3AA935C84072C7932DFC0F872A53FD8799F67DF5E8164836B7BD0F7A5 PUSH32 0x1AAE8A628EC6958F1D37A6F49B619878E858C0CA6A17077943F6A23AB0761571 DUP5 PUSH2 0x92 JUMP JUMPDEST PUSH2 0x18F9 PUSH2 0x940 DUP9 ADD CALLDATALOAD PUSH32 0x6D8B407E63722D83C0775FA23C3C5DB84F7C03EB865CAB16018BAEACA4B2095 PUSH32 0x96EB9D466A46D79D29B1A437A0C872B6EB9031AFF56ED28177798A6280C1204 DUP5 PUSH2 0x92 JUMP JUMPDEST PUSH2 0x194A PUSH2 0x960 DUP9 ADD CALLDATALOAD PUSH32 0xBC5701BC8677516B58DD479E116159E268BAA029928E94BA8CB0DB4B75DFEB4 PUSH32 0x2EA71269D064AC6FFE7F2512F18D088F43E94A9C3A933C4BCDC865EBC532EC21 DUP5 PUSH2 0x92 JUMP JUMPDEST PUSH2 0x199B PUSH2 0x980 DUP9 ADD CALLDATALOAD PUSH32 0xA55B2B12BB6CBBFC4D408E9A84C3C0547DB523AB29824C2EC8844524E0FA193 PUSH32 0x29A8D8CA6BF69DE8B304DC4F5352BF5DA20E9796E54A7AA25EE2A4A13AA65F34 DUP5 PUSH2 0x92 JUMP JUMPDEST PUSH2 0x19EC PUSH2 0x9A0 DUP9 ADD CALLDATALOAD PUSH32 0x2DF89AD362D63435EE01050429E48FD8C1370DD9DF44021466CAD491F1CFD244 PUSH32 0x1ABE7AF829204E220C51269BA698FC80C86835CF00A021971AED4CE5F669542A DUP5 PUSH2 0x92 JUMP JUMPDEST PUSH2 0x1A3D PUSH2 0x9C0 DUP9 ADD CALLDATALOAD PUSH32 0x19FDAAF6EFA2D389FBB570533A13E9BB6C0FDF972320481A40ECFCE5793EC35A PUSH32 0x10AE117073DC0519435428A073DA07F94FB3B43D270674558D25AF4D89522534 DUP5 PUSH2 0x92 JUMP JUMPDEST PUSH2 0x1A8E PUSH2 0x9E0 DUP9 ADD CALLDATALOAD PUSH32 0x41AB547B5A17F33CAC3B08E11DC15D2BA6977D4423C21BBC3672371F88ACC43 PUSH32 0x2802F479AF286E2D9CEA10CC1471C159B2935CBBADA93D9E257BC92C086048A4 DUP5 PUSH2 0x92 JUMP JUMPDEST PUSH2 0x1ADF PUSH2 0xA00 DUP9 ADD CALLDATALOAD PUSH32 0x2A6EF72847CEB28D418A439C799C618CF3D307C0899F2E6DC03A7574FE6711D0 PUSH32 0x15467ABAE0D138984C0E2B31181563C6B0A94BF9A16355023001025F481B523F DUP5 PUSH2 0x92 JUMP JUMPDEST POP DUP3 CALLDATALOAD DUP2 MSTORE PUSH32 0x30644E72E131A029B85045B68181585D97816A916871CA8D3C208C16D87CFD47 PUSH1 0x20 DUP5 ADD CALLDATALOAD PUSH32 0x30644E72E131A029B85045B68181585D97816A916871CA8D3C208C16D87CFD47 SUB MOD PUSH1 0x20 DUP3 ADD MSTORE DUP4 CALLDATALOAD PUSH1 0x40 DUP3 ADD MSTORE PUSH1 0x20 DUP5 ADD CALLDATALOAD PUSH1 0x60 DUP3 ADD MSTORE PUSH1 0x40 DUP5 ADD CALLDATALOAD PUSH1 0x80 DUP3 ADD MSTORE PUSH1 0x60 DUP5 ADD CALLDATALOAD PUSH1 0xA0 DUP3 ADD MSTORE PUSH32 0x2D4D9AA7E302D9DF41749D5507949D05DBEA33FBB16C643B22F599A2BE6DF2E2 PUSH1 0xC0 DUP3 ADD MSTORE PUSH32 0x14BEDD503C37CEB061D8EC60209FE345CE89830A19230301F076CAFF004D1926 PUSH1 0xE0 DUP3 ADD MSTORE PUSH32 0x967032FCBF776D1AFC985F88877F182D38480A653F2DECAA9794CBC3BF3060C PUSH2 0x100 DUP3 ADD MSTORE PUSH32 0xE187847AD4C798374D0D6732BF501847DD68BC0E071241E0213BC7FC13DB7AB PUSH2 0x120 DUP3 ADD MSTORE PUSH32 0x304CFBD1E08A704A99F5E847D93F8C3CAAFDDEC46B7A0D379DA69A4D112346A7 PUSH2 0x140 DUP3 ADD MSTORE PUSH32 0x1739C1B1A457A8C7313123D24D2F9192F896B7C63EEA05A9D57F06547AD0CEC8 PUSH2 0x160 DUP3 ADD MSTORE PUSH1 0x0 DUP8 ADD MLOAD PUSH2 0x180 DUP3 ADD MSTORE PUSH1 0x20 PUSH1 0x0 ADD DUP8 ADD MLOAD PUSH2 0x1A0 DUP3 ADD MSTORE PUSH32 0x198E9393920D483A7260BFB731FB5D25F1AA493335A9E71297E485B7AEF312C2 PUSH2 0x1C0 DUP3 ADD MSTORE PUSH32 0x1800DEEF121F1E76426A00665E5C4479674322D4F75EDADD46DEBD5CD992F6ED PUSH2 0x1E0 DUP3 ADD MSTORE PUSH32 0x90689D0585FF075EC9E99AD690C3395BC4B313370B38EF355ACDADCD122975B PUSH2 0x200 DUP3 ADD MSTORE PUSH32 0x12C85EA5DB8C6DEB4AAB71808DCB408FE3D1E7690C43D37B4CE6CC0166FA7DAA PUSH2 0x220 DUP3 ADD MSTORE DUP5 CALLDATALOAD PUSH2 0x240 DUP3 ADD MSTORE PUSH1 0x20 DUP6 ADD CALLDATALOAD PUSH2 0x260 DUP3 ADD MSTORE PUSH32 0x209AB3EDFF3BB319CFDB535EF16D07E9CE2BE5333EE1CA3916B7F23BD871F25C PUSH2 0x280 DUP3 ADD MSTORE PUSH32 0x6A5A092938C49097AA2B94DA0D23645D1F55D15799832921FD1CFD5D4D1CA6B PUSH2 0x2A0 DUP3 ADD MSTORE PUSH32 0x65CBB126FF86CA7D2A23D1143F302A7F1FDAEC4B2F2D17F5A9306C0D3EC914C PUSH2 0x2C0 DUP3 ADD MSTORE PUSH32 0x194426174E47FAF11931BCF88936EB3E3999F8D0677252164E27F160738203B6 PUSH2 0x2E0 DUP3 ADD MSTORE PUSH1 0x20 DUP2 PUSH2 0x300 DUP4 PUSH1 0x8 PUSH2 0x7D0 GAS SUB STATICCALL SWAP1 MLOAD AND SWAP7 SWAP6 POP POP POP POP POP POP JUMP JUMPDEST PUSH1 0x40 MLOAD PUSH2 0x380 DUP2 ADD PUSH1 0x40 MSTORE PUSH2 0x1DD7 PUSH1 0x0 DUP5 ADD CALLDATALOAD PUSH2 0x5E JUMP JUMPDEST PUSH2 0x1DE4 PUSH1 0x20 DUP5 ADD CALLDATALOAD PUSH2 0x5E JUMP JUMPDEST PUSH2 0x1DF1 PUSH1 0x40 DUP5 ADD CALLDATALOAD PUSH2 0x5E JUMP JUMPDEST PUSH2 0x1DFE PUSH1 0x60 DUP5 ADD CALLDATALOAD PUSH2 0x5E JUMP JUMPDEST PUSH2 0x1E0B PUSH1 0x80 DUP5 ADD CALLDATALOAD PUSH2 0x5E JUMP JUMPDEST PUSH2 0x1E18 PUSH1 0xA0 DUP5 ADD CALLDATALOAD PUSH2 0x5E JUMP JUMPDEST PUSH2 0x1E25 PUSH1 0xC0 DUP5 ADD CALLDATALOAD PUSH2 0x5E JUMP JUMPDEST PUSH2 0x1E32 PUSH1 0xE0 DUP5 ADD CALLDATALOAD PUSH2 0x5E JUMP JUMPDEST PUSH2 0x1E40 PUSH2 0x100 DUP5 ADD CALLDATALOAD PUSH2 0x5E JUMP JUMPDEST PUSH2 0x1E4E PUSH2 0x120 DUP5 ADD CALLDATALOAD PUSH2 0x5E JUMP JUMPDEST PUSH2 0x1E5C PUSH2 0x140 DUP5 ADD CALLDATALOAD PUSH2 0x5E JUMP JUMPDEST PUSH2 0x1E6A PUSH2 0x160 DUP5 ADD CALLDATALOAD PUSH2 0x5E JUMP JUMPDEST PUSH2 0x1E78 PUSH2 0x180 DUP5 ADD CALLDATALOAD PUSH2 0x5E JUMP JUMPDEST PUSH2 0x1E86 PUSH2 0x1A0 DUP5 ADD CALLDATALOAD PUSH2 0x5E JUMP JUMPDEST PUSH2 0x1E94 PUSH2 0x1C0 DUP5 ADD CALLDATALOAD PUSH2 0x5E JUMP JUMPDEST PUSH2 0x1EA2 PUSH2 0x1E0 DUP5 ADD CALLDATALOAD PUSH2 0x5E JUMP JUMPDEST PUSH2 0x1EB0 PUSH2 0x200 DUP5 ADD CALLDATALOAD PUSH2 0x5E JUMP JUMPDEST PUSH2 0x1EBE PUSH2 0x220 DUP5 ADD CALLDATALOAD PUSH2 0x5E JUMP JUMPDEST PUSH2 0x1ECC PUSH2 0x240 DUP5 ADD CALLDATALOAD PUSH2 0x5E JUMP JUMPDEST PUSH2 0x1EDA PUSH2 0x260 DUP5 ADD CALLDATALOAD PUSH2 0x5E JUMP JUMPDEST PUSH2 0x1EE8 PUSH2 0x280 DUP5 ADD CALLDATALOAD PUSH2 0x5E JUMP JUMPDEST PUSH2 0x1EF6 PUSH2 0x2A0 DUP5 ADD CALLDATALOAD PUSH2 0x5E JUMP JUMPDEST PUSH2 0x1F04 PUSH2 0x2C0 DUP5 ADD CALLDATALOAD PUSH2 0x5E JUMP JUMPDEST PUSH2 0x1F12 PUSH2 0x2E0 DUP5 ADD CALLDATALOAD PUSH2 0x5E JUMP JUMPDEST PUSH2 0x1F20 PUSH2 0x300 DUP5 ADD CALLDATALOAD PUSH2 0x5E JUMP JUMPDEST PUSH2 0x1F2E PUSH2 0x320 DUP5 ADD CALLDATALOAD PUSH2 0x5E JUMP JUMPDEST PUSH2 0x1F3C PUSH2 0x340 DUP5 ADD CALLDATALOAD PUSH2 0x5E JUMP JUMPDEST PUSH2 0x1F4A PUSH2 0x360 DUP5 ADD CALLDATALOAD PUSH2 0x5E JUMP JUMPDEST PUSH2 0x1F58 PUSH2 0x380 DUP5 ADD CALLDATALOAD PUSH2 0x5E JUMP JUMPDEST PUSH2 0x1F66 PUSH2 0x3A0 DUP5 ADD CALLDATALOAD PUSH2 0x5E JUMP JUMPDEST PUSH2 0x1F74 PUSH2 0x3C0 DUP5 ADD CALLDATALOAD PUSH2 0x5E JUMP JUMPDEST PUSH2 0x1F82 PUSH2 0x3E0 DUP5 ADD CALLDATALOAD PUSH2 0x5E JUMP JUMPDEST PUSH2 0x1F90 PUSH2 0x400 DUP5 ADD CALLDATALOAD PUSH2 0x5E JUMP JUMPDEST PUSH2 0x1F9E PUSH2 0x420 DUP5 ADD CALLDATALOAD PUSH2 0x5E JUMP JUMPDEST PUSH2 0x1FAC PUSH2 0x440 DUP5 ADD CALLDATALOAD PUSH2 0x5E JUMP JUMPDEST PUSH2 0x1FBA PUSH2 0x460 DUP5 ADD CALLDATALOAD PUSH2 0x5E JUMP JUMPDEST PUSH2 0x1FC8 PUSH2 0x480 DUP5 ADD CALLDATALOAD PUSH2 0x5E JUMP JUMPDEST PUSH2 0x1FD6 PUSH2 0x4A0 DUP5 ADD CALLDATALOAD PUSH2 0x5E JUMP JUMPDEST PUSH2 0x1FE4 PUSH2 0x4C0 DUP5 ADD CALLDATALOAD PUSH2 0x5E JUMP JUMPDEST PUSH2 0x1FF2 PUSH2 0x4E0 DUP5 ADD CALLDATALOAD PUSH2 0x5E JUMP JUMPDEST PUSH2 0x2000 PUSH2 0x500 DUP5 ADD CALLDATALOAD PUSH2 0x5E JUMP JUMPDEST PUSH2 0x200E PUSH2 0x520 DUP5 ADD CALLDATALOAD PUSH2 0x5E JUMP JUMPDEST PUSH2 0x201C PUSH2 0x540 DUP5 ADD CALLDATALOAD PUSH2 0x5E JUMP JUMPDEST PUSH2 0x202A PUSH2 0x560 DUP5 ADD CALLDATALOAD PUSH2 0x5E JUMP JUMPDEST PUSH2 0x2038 PUSH2 0x580 DUP5 ADD CALLDATALOAD PUSH2 0x5E JUMP JUMPDEST PUSH2 0x2046 PUSH2 0x5A0 DUP5 ADD CALLDATALOAD PUSH2 0x5E JUMP JUMPDEST PUSH2 0x2054 PUSH2 0x5C0 DUP5 ADD CALLDATALOAD PUSH2 0x5E JUMP JUMPDEST PUSH2 0x2062 PUSH2 0x5E0 DUP5 ADD CALLDATALOAD PUSH2 0x5E JUMP JUMPDEST PUSH2 0x2070 PUSH2 0x600 DUP5 ADD CALLDATALOAD PUSH2 0x5E JUMP JUMPDEST PUSH2 0x207E PUSH2 0x620 DUP5 ADD CALLDATALOAD PUSH2 0x5E JUMP JUMPDEST PUSH2 0x208C PUSH2 0x640 DUP5 ADD CALLDATALOAD PUSH2 0x5E JUMP JUMPDEST PUSH2 0x209A PUSH2 0x660 DUP5 ADD CALLDATALOAD PUSH2 0x5E JUMP JUMPDEST PUSH2 0x20A8 PUSH2 0x680 DUP5 ADD CALLDATALOAD PUSH2 0x5E JUMP JUMPDEST PUSH2 0x20B6 PUSH2 0x6A0 DUP5 ADD CALLDATALOAD PUSH2 0x5E JUMP JUMPDEST PUSH2 0x20C4 PUSH2 0x6C0 DUP5 ADD CALLDATALOAD PUSH2 0x5E JUMP JUMPDEST PUSH2 0x20D2 PUSH2 0x6E0 DUP5 ADD CALLDATALOAD PUSH2 0x5E JUMP JUMPDEST PUSH2 0x20E0 PUSH2 0x700 DUP5 ADD CALLDATALOAD PUSH2 0x5E JUMP JUMPDEST PUSH2 0x20EE PUSH2 0x720 DUP5 ADD CALLDATALOAD PUSH2 0x5E JUMP JUMPDEST PUSH2 0x20FC PUSH2 0x740 DUP5 ADD CALLDATALOAD PUSH2 0x5E JUMP JUMPDEST PUSH2 0x210A PUSH2 0x760 DUP5 ADD CALLDATALOAD PUSH2 0x5E JUMP JUMPDEST PUSH2 0x2118 PUSH2 0x780 DUP5 ADD CALLDATALOAD PUSH2 0x5E JUMP JUMPDEST PUSH2 0x2126 PUSH2 0x7A0 DUP5 ADD CALLDATALOAD PUSH2 0x5E JUMP JUMPDEST PUSH2 0x2134 PUSH2 0x7C0 DUP5 ADD CALLDATALOAD PUSH2 0x5E JUMP JUMPDEST PUSH2 0x2142 PUSH2 0x7E0 DUP5 ADD CALLDATALOAD PUSH2 0x5E JUMP JUMPDEST PUSH2 0x2150 PUSH2 0x800 DUP5 ADD CALLDATALOAD PUSH2 0x5E JUMP JUMPDEST PUSH2 0x215E PUSH2 0x820 DUP5 ADD CALLDATALOAD PUSH2 0x5E JUMP JUMPDEST PUSH2 0x216C PUSH2 0x840 DUP5 ADD CALLDATALOAD PUSH2 0x5E JUMP JUMPDEST PUSH2 0x217A PUSH2 0x860 DUP5 ADD CALLDATALOAD PUSH2 0x5E JUMP JUMPDEST PUSH2 0x2188 PUSH2 0x880 DUP5 ADD CALLDATALOAD PUSH2 0x5E JUMP JUMPDEST PUSH2 0x2196 PUSH2 0x8A0 DUP5 ADD CALLDATALOAD PUSH2 0x5E JUMP JUMPDEST PUSH2 0x21A4 PUSH2 0x8C0 DUP5 ADD CALLDATALOAD PUSH2 0x5E JUMP JUMPDEST PUSH2 0x21B2 PUSH2 0x8E0 DUP5 ADD CALLDATALOAD PUSH2 0x5E JUMP JUMPDEST PUSH2 0x21C0 PUSH2 0x900 DUP5 ADD CALLDATALOAD PUSH2 0x5E JUMP JUMPDEST PUSH2 0x21CE PUSH2 0x920 DUP5 ADD CALLDATALOAD PUSH2 0x5E JUMP JUMPDEST PUSH2 0x21DC PUSH2 0x940 DUP5 ADD CALLDATALOAD PUSH2 0x5E JUMP JUMPDEST PUSH2 0x21EA PUSH2 0x960 DUP5 ADD CALLDATALOAD PUSH2 0x5E JUMP JUMPDEST PUSH2 0x21F8 PUSH2 0x980 DUP5 ADD CALLDATALOAD PUSH2 0x5E JUMP JUMPDEST PUSH2 0x2206 PUSH2 0x9A0 DUP5 ADD CALLDATALOAD PUSH2 0x5E JUMP JUMPDEST PUSH2 0x2214 PUSH2 0x9C0 DUP5 ADD CALLDATALOAD PUSH2 0x5E JUMP JUMPDEST PUSH2 0x2222 PUSH2 0x9E0 DUP5 ADD CALLDATALOAD PUSH2 0x5E JUMP JUMPDEST PUSH2 0x2230 PUSH2 0xA00 DUP5 ADD CALLDATALOAD PUSH2 0x5E JUMP JUMPDEST PUSH2 0x223E PUSH2 0xA20 DUP5 ADD CALLDATALOAD PUSH2 0x5E JUMP JUMPDEST PUSH2 0x224B DUP2 DUP5 DUP7 DUP9 DUP11 PUSH2 0xFD JUMP JUMPDEST PUSH1 0x0 SWAP1 DUP2 MSTORE PUSH1 0x20 SWAP2 POP RETURN JUMPDEST DUP1 PUSH1 0x40 DUP2 ADD DUP4 LT ISZERO PUSH2 0x2267 JUMPI PUSH1 0x0 DUP1 REVERT JUMPDEST SWAP3 SWAP2 POP POP JUMP JUMPDEST PUSH1 0x0 DUP1 PUSH1 0x0 DUP1 PUSH2 0xB20 DUP1 DUP7 DUP9 SUB SLT ISZERO PUSH2 0x2284 JUMPI DUP5 DUP6 REVERT JUMPDEST PUSH2 0x228E DUP8 DUP8 PUSH2 0x2256 JUMP JUMPDEST SWAP5 POP PUSH1 0xC0 DUP7 ADD DUP8 DUP2 GT ISZERO PUSH2 0x22A0 JUMPI DUP5 DUP6 REVERT JUMPDEST PUSH1 0x40 DUP8 ADD SWAP5 POP PUSH2 0x22B0 DUP9 DUP3 PUSH2 0x2256 JUMP JUMPDEST SWAP4 POP POP DUP7 DUP2 DUP8 ADD GT ISZERO PUSH2 0x22C1 JUMPI DUP2 DUP3 REVERT JUMPDEST POP SWAP3 SWAP6 SWAP2 SWAP5 POP SWAP3 PUSH2 0x100 ADD SWAP2 POP JUMP INVALID LOG2 PUSH5 0x6970667358 0x22 SLT KECCAK256 SWAP5 COINBASE 0x29 0xDF 0xDF 0xE7 JUMPDEST PUSH19 0x16028B91295B4C9BFB8627FBCD88573BD182E SUB 0xB4 ADDMOD PUSH5 0x4664736F6C PUSH4 0x43000804 STOP CALLER "},"methodIdentifiers":{"verifyProof(uint256[2],uint256[2][2],uint256[2],uint256[81])":"e235ad2a"}}}}}