{
  "_format": "hh-sol-artifact-1",
  "contractName": "SudokuVerifier",
  "sourceName": "contracts/sudokuVerifier.sol",
  "abi": [
    {
      "inputs": [
        {
          "internalType": "uint256[2]",
          "name": "a",
          "type": "uint256[2]"
        },
        {
          "internalType": "uint256[2][2]",
          "name": "b",
          "type": "uint256[2][2]"
        },
        {
          "internalType": "uint256[2]",
          "name": "c",
          "type": "uint256[2]"
        },
        {
          "internalType": "uint256[81]",
          "name": "input",
          "type": "uint256[81]"
        }
      ],
      "name": "verifyProof",
      "outputs": [
        {
          "internalType": "bool",
          "name": "r",
          "type": "bool"
        }
      ],
      "stateMutability": "view",
      "type": "function"
    }
  ],
  "bytecode": "0x608060405234801561001057600080fd5b50613ca9806100206000396000f3fe608060405234801561001057600080fd5b506004361061002b5760003560e01c8063e235ad2a14610030575b600080fd5b61004361003e366004613a81565b610057565b604051901515815260200160405180910390f35b60006100616138f2565b6040805180820182528751815260208089015181830152908352815160808101835287515181840190815288518301516060830152815282518084018452888301805151825251830151818401528183015283820152815180830183528651815286820151818301528383015281516051808252610a40820190935260009290918201610a208036833701905050905060005b605181101561015f5784816051811061011d57634e487b7160e01b600052603260045260246000fd5b602002015182828151811061014257634e487b7160e01b600052603260045260246000fd5b60209081029190910101528061015781613c22565b9150506100f4565b5061016a8183610188565b61017957600192505050610180565b6000925050505b949350505050565b60007f30644e72e131a029b85045b68181585d2833e84879b9709143e1f593f0000001816101b46103b7565b9050806080015151855160016101ca9190613bd4565b146102115760405162461bcd60e51b81526020600482015260126024820152711d995c9a599a595c8b5898590b5a5b9c1d5d60721b60448201526064015b60405180910390fd5b604080518082019091526000808252602082018190525b865181101561032c578387828151811061025257634e487b7160e01b600052603260045260246000fd5b6020026020010151106102a75760405162461bcd60e51b815260206004820152601f60248201527f76657269666965722d6774652d736e61726b2d7363616c61722d6669656c64006044820152606401610208565b6103188261031385608001518460016102c09190613bd4565b815181106102de57634e487b7160e01b600052603260045260246000fd5b60200260200101518a858151811061030657634e487b7160e01b600052603260045260246000fd5b60200260200101516130fb565b613197565b91508061032481613c22565b915050610228565b5061036381836080015160008151811061035657634e487b7160e01b600052603260045260246000fd5b6020026020010151613197565b9050610399610375866000015161322f565b8660200151846000015185602001518587604001518b6040015189606001516132ce565b6103a957600193505050506103b1565b600093505050505b92915050565b6103bf613943565b6040805180820182527f2d4d9aa7e302d9df41749d5507949d05dbea33fbb16c643b22f599a2be6df2e281527f14bedd503c37ceb061d8ec60209fe345ce89830a19230301f076caff004d19266020808301919091529083528151608080820184527f0967032fcbf776d1afc985f88877f182d38480a653f2decaa9794cbc3bf3060c8285019081527f0e187847ad4c798374d0d6732bf501847dd68bc0e071241e0213bc7fc13db7ab606080850191909152908352845180860186527f304cfbd1e08a704a99f5e847d93f8c3caafddec46b7a0d379da69a4d112346a781527f1739c1b1a457a8c7313123d24d2f9192f896b7c63eea05a9d57f06547ad0cec8818601528385015285840192909252835180820185527f198e9393920d483a7260bfb731fb5d25f1aa493335a9e71297e485b7aef312c28186019081527f1800deef121f1e76426a00665e5c4479674322d4f75edadd46debd5cd992f6ed828501528152845180860186527f090689d0585ff075ec9e99ad690c3395bc4b313370b38ef355acdadcd122975b81527f12c85ea5db8c6deb4aab71808dcb408fe3d1e7690c43d37b4ce6cc0166fa7daa818601528185015285850152835190810184527f14cd05fe5d9d9924261e4c28afde364a99dde2c4b731c36da41ad73cb908ca3a8185019081527f21f45a05f3c6185daf12d09081289ab180990eeb2d2bc169e4cdd040df14133d828401528152835180850185527f192c5f239b9409b8e524e42f5141361f2f17d649fc0811a18ef21eb440325a3281527f0b6146f23e184fd11e49840a462ad4849c828130bc3228b6ba60b9fc5588c26981850152818401529084015281516052808252610a608201909352919082015b604080518082019091526000808252602082015281526020019060019003908161063b57505060808201908152604080518082019091527f25fd33d6991286d733257e52b91f5d2140d2974d8d93687006e5c142558a94f381527f24eaf74125ed43c8a34de5fb1ea64cc2f4c3fd86323e0700f0238101fcf89a846020820152905180516000906106dc57634e487b7160e01b600052603260045260246000fd5b602002602001018190525060405180604001604052807f1fca01e7eeaf0ec1b49fb3d807ec621ee889818bc5125eec3b603a0f896ae76081526020017f2263f4d40a739cbeb0becda69192439068bce12f33ba0bbabd557f8308c2e1ca815250816080015160018151811061076157634e487b7160e01b600052603260045260246000fd5b602002602001018190525060405180604001604052807f0cdd64ab2c76fa38ff9dfc9ef44938156daaba16203ab2267c66ed93b143d76381526020017f24fed30e8391e935a60213037f23e153bcfa24b1954578fde070293df2b8506e81525081608001516002815181106107e657634e487b7160e01b600052603260045260246000fd5b602002602001018190525060405180604001604052807f0b428846a2d0e4ac9886d42bf94caaa5e3b0e05f984ab2f11698ea6054f3d57681526020017f0def24ce297a1bdbc646d1498e4875cfb22da11ea84c023ff04227a7fabbc824815250816080015160038151811061086b57634e487b7160e01b600052603260045260246000fd5b602002602001018190525060405180604001604052807f0adc739398f12572f89e65a9932dd60517074c4cd86374f6ea96c8f125c57c4481526020017f18b265378c5bb4a31566d622e401080e96901f9fd6dfb1e489b1576d008d231e81525081608001516004815181106108f057634e487b7160e01b600052603260045260246000fd5b602002602001018190525060405180604001604052807f0386e5c70b3ea649dc335be6effd59cc36d15866b7ce87bb62e509b3f303710681526020017f08d91fe8d063107cb19d7293ae51f955e2a6fcf01a3f4920ce5c1ee27f0e07fd815250816080015160058151811061097557634e487b7160e01b600052603260045260246000fd5b602002602001018190525060405180604001604052807f0ab85e366f052127d0c30b828df17aa280b74f01411c737c7ed63973d39067c481526020017f27091b42aaa0d419334e4ee5770f00876ea48e0e23ddf6ba57c15345c16e6a4781525081608001516006815181106109fa57634e487b7160e01b600052603260045260246000fd5b602002602001018190525060405180604001604052807f222d2806893fa11e2704754d2beef9ec209c135fb77bf03c2fed20cca141871881526020017f282ef554e8b02568068acaa6ddbfca7672dcad49a2940a708c051387757967228152508160800151600781518110610a7f57634e487b7160e01b600052603260045260246000fd5b602002602001018190525060405180604001604052807f242fc8fdada862997d66630500d118d810395df364944a6bbe8293df5013662a81526020017f258165c6b1ca44c3e7bc0e3932ec52b3af39a01bb78a2cc71809fc1907b20e838152508160800151600881518110610b0457634e487b7160e01b600052603260045260246000fd5b602002602001018190525060405180604001604052807f08038fdfe43f6a732f54de453d0bca3d7191f04a6beb5cccc2565ee97c6f39e981526020017f045ef0334cd6070127acb8c1933a18a5c96baa3c7073d34b1a01fdde08564c3d8152508160800151600981518110610b8957634e487b7160e01b600052603260045260246000fd5b602002602001018190525060405180604001604052807f269b9154ccc4e255750fd12c21a82d5938c5376aa08c7dec3327c437597a9bf481526020017f252fc8103413fa858e5f5ad99cd66f6cbf158cc6f429bbaf101a1fea7414b3218152508160800151600a81518110610c0e57634e487b7160e01b600052603260045260246000fd5b602002602001018190525060405180604001604052807f14e787b88b611ee7c48ea151e99f4e32c502058ea47276462d05d6ba9cbf988b81526020017f19474d54eb78e28e093d1aa95ace6dc317f7ac878083dc25b6973a5a0668ffc28152508160800151600b81518110610c9357634e487b7160e01b600052603260045260246000fd5b602002602001018190525060405180604001604052807f0192e12d0e8c9d636aac21468096f5cd56d950a7d8c260926b211b747f9503a781526020017f287db9753dbb5c64ea5264394ddabcea52a004c757db2fa5a7c32c4fa0d8013f8152508160800151600c81518110610d1857634e487b7160e01b600052603260045260246000fd5b602002602001018190525060405180604001604052807f204c167c13280225bbbdbddb0ce99519286a24b6a2e3914eab075e4465c7f70381526020017f05f55df24706eb3d0d747abe02f6cdd146b52487e6d3765f2a49572170160c678152508160800151600d81518110610d9d57634e487b7160e01b600052603260045260246000fd5b602002602001018190525060405180604001604052807f12c2f4212ce1ed35050d68fbada0e359f39dbedcc2e26632f896762c528ccdfb81526020017f0e2279ceaba48ee873a872e684e50819c9ec7cc69b553e9715c5ae10ce57f9c58152508160800151600e81518110610e2257634e487b7160e01b600052603260045260246000fd5b602002602001018190525060405180604001604052807f0db65a3c298be11b21e4c833819c7ab04e8977ab2d804be39cb0375bffe2d8ff81526020017f194c7d30c16878f2a66a5b742af6d6abc2f0c47fff250a7fc91ce799fcc329118152508160800151600f81518110610ea757634e487b7160e01b600052603260045260246000fd5b602002602001018190525060405180604001604052807f055ddcf78ef7880d72c5165e8d4335dcc82da1cfd8543f71b83189678fd1073f81526020017f0dd9de6b5da7f580fef1235dac3e9ef0271d145cd2f178c146148ec97f63d4c38152508160800151601081518110610f2c57634e487b7160e01b600052603260045260246000fd5b602002602001018190525060405180604001604052807f2c11c66aea64f8a0fd92c42c091e17f8cf99caa71575ba1f41f44b6141a5f20a81526020017f2c96f3e4c6583c7c15b298a501c4f4f7ff459ec8cd26c7ec4ae54c0ee350eb608152508160800151601181518110610fb157634e487b7160e01b600052603260045260246000fd5b602002602001018190525060405180604001604052807f1c0dddc69219ef9b3430e7ae888cdac22c173af863b25d52bf32509027ccb86981526020017f0bab24adca51ea3fed8a5c96fecc40b020bdb48c2ce76cfda4f1470ed692b897815250816080015160128151811061103657634e487b7160e01b600052603260045260246000fd5b602002602001018190525060405180604001604052807f1529a9a4837f81ee6bc187451e85f49bacf730b9e103668c5aa80ef13e1a73ef81526020017f2273d81395e33d5fa314610e7b06dc7bdb095d241066bf7fea46d34f6a088f4681525081608001516013815181106110bb57634e487b7160e01b600052603260045260246000fd5b602002602001018190525060405180604001604052807f064b8e09b087c87cdcf236966b3577f132d5aa60b5c3f13b201db590b953d92f81526020017f1688a74927fb6377ad3ec7c5556913d99cac5037d609feee985cc1a6f0ab20dd815250816080015160148151811061114057634e487b7160e01b600052603260045260246000fd5b602002602001018190525060405180604001604052807f06f5b4a818e85b59653c91d12e6cca6287df76cddd03583a1f5d50248ac8a8d581526020017f1c0c51de4c30ac307c3de2647e1b245d3e6cf7c3958fbca5b787589b8adcee3b81525081608001516015815181106111c557634e487b7160e01b600052603260045260246000fd5b602002602001018190525060405180604001604052807f21c87ff8e57aa4f1ee86e940a101525512242a6c103fff74bf50d32debfb0c3381526020017f0aa54d1df84ae561eefabd0d9c752bbcabedf196b41675cf36949ddfc6696922815250816080015160168151811061124a57634e487b7160e01b600052603260045260246000fd5b602002602001018190525060405180604001604052807f05734ec18779181a931aa5c7a6875f77ce79cfbe186d6b8d569447c685bf253c81526020017f2c7ba5c66f823f8f73a102ae0559ae7f08c62467a59a6d17df5658b5e8d7222081525081608001516017815181106112cf57634e487b7160e01b600052603260045260246000fd5b602002602001018190525060405180604001604052807f21005bf9e02661f10e870839f103ce5a59ea0bd4e16b803cebc46d140e2529cb81526020017f10948fa9feacf995f01ba66188296b01b5b3aed11d1ec73e35b31da656335a5b815250816080015160188151811061135457634e487b7160e01b600052603260045260246000fd5b602002602001018190525060405180604001604052807f0c7ed9675d6a57d4dec32a340bb0bbe2274bd37440645fdd21787c073efb246181526020017f2c8ff1a5b6aa18de7bf934a256fde4d9833475fe272b25353574ce8dca0ec7c681525081608001516019815181106113d957634e487b7160e01b600052603260045260246000fd5b602002602001018190525060405180604001604052807f109744880aee7baa792ace04b3c2816b9a1be6d653fb9df490d59f706737a19d81526020017f138eeca8fd6172e01af1771d6a19782b6c986322da6c7f7029382c68163e9fbf8152508160800151601a8151811061145e57634e487b7160e01b600052603260045260246000fd5b602002602001018190525060405180604001604052807f111f8ad3d9a6e95ccaf377e7cea7f210c0f36a28d7f83d0cc20be409d79c948481526020017f0493db215660b34abeae359b02dca52777e365d1cd52e3f53a9a9073a669b8af8152508160800151601b815181106114e357634e487b7160e01b600052603260045260246000fd5b602002602001018190525060405180604001604052807f2c6fa4d95d2182e401540cdc50ac03671e233f4de7703faa37a5471ae0877cc681526020017f25e47c0fcd2a16189adf0c36c152b007f2a479d33ce4754fdd7a713499f588c78152508160800151601c8151811061156857634e487b7160e01b600052603260045260246000fd5b602002602001018190525060405180604001604052807f03935f95761ccd2e3631155c2be247812127ef74ee5164c388d0c097a9cc28c481526020017e029b51fca3fc45b994a52dc82e246e4827c1d2c2f6d541ddc57137f27089768152508160800151601d815181106115ec57634e487b7160e01b600052603260045260246000fd5b602002602001018190525060405180604001604052807f18e1ee4fa76edec3c48b2ea16b02e55743addb0edf4578baba5c1c9ab07eaec581526020017f1cbc32be5c04e6c825b87fb8a6b1a229645fdc7193d6675d675f7fc26a154d118152508160800151601e8151811061167157634e487b7160e01b600052603260045260246000fd5b602002602001018190525060405180604001604052807f1c35cff36322588f4a543f464dbe507f64cb0ed588b73e68ad159f1417fb077c81526020017f0723a3c0a9068818123b8fe3a5d505686108d78519a5f9849d6bf279d72ba0a38152508160800151601f815181106116f657634e487b7160e01b600052603260045260246000fd5b602002602001018190525060405180604001604052807f26e9de99d918b7e83ee40aa4fb9d6d160355435896af640dd2e09b2f3596f55981526020017f26e18052bc58081ef5a269bcce35dff0b609380b8b487e2365985dfdcb4182b3815250816080015160208151811061177b57634e487b7160e01b600052603260045260246000fd5b602002602001018190525060405180604001604052807f07044fe8c86e07d6d164db3f365de729315d660e75c337341937937e836703f381526020017f0dd91fd94bff0dac0456cd63e46bc7c05b1dd4e4edbd1f7a8bdb163edeea1099815250816080015160218151811061180057634e487b7160e01b600052603260045260246000fd5b602002602001018190525060405180604001604052807f20ad831bf026aad38d28198e8ddfc30b98982de6ab44109c7f7f0ac82e6a33a381526020017f11997427ff1d144962f6dab8a411be331dd3edfeebad0068c64ceae41f22ef43815250816080015160228151811061188557634e487b7160e01b600052603260045260246000fd5b602002602001018190525060405180604001604052807f16eacd55301cb898b668a4d70281872704690864b39cd692bb3f60d00f9150cf81526020017f2462335b9cf230ddc7c1492f7d6c2609cb1836699f74d1dc63ba9339655f225c815250816080015160238151811061190a57634e487b7160e01b600052603260045260246000fd5b602002602001018190525060405180604001604052807f1f58143b420ad298a0318173211f84f3dbeeea101be691e8d0205ace3497b70581526020017f0c01d6e238c75220c7ee70b70b9aa6f525623aaee8a3059b32834e56e2a8e153815250816080015160248151811061198f57634e487b7160e01b600052603260045260246000fd5b602002602001018190525060405180604001604052807ea5f669b34fb949dd2d1be6f8afaf044ea9f65d75c177e639360d73ce14abb581526020017f20e34929ee7f163b17339a1de3978107163b726ce808287103d13eed0ed6b2d88152508160800151602581518110611a1357634e487b7160e01b600052603260045260246000fd5b602002602001018190525060405180604001604052807f298f0870d59e8a9b8b9d30c8586bc0a51ba4e4942efa2b11fc7024d9a7228eaf81526020017f2cdc3abe37b4d99f0411055909c7d073c31f9534e0a6acbf9ae2dae74728c1e18152508160800151602681518110611a9857634e487b7160e01b600052603260045260246000fd5b602002602001018190525060405180604001604052807f2c1ffeeb37bcf86597acdfdab34d9e1606bbb2ba58abea2d4cc979d45ca9b1dc81526020017f1b70b661c182506fe1af2f93750ae74396b1e3afd948a781b5bde2b6ce219ef08152508160800151602781518110611b1d57634e487b7160e01b600052603260045260246000fd5b602002602001018190525060405180604001604052807f1e4b8d592b92e69090d21e617bea69212d36b5184c6326db05fb55c1ca5286e881526020017f0107f4d8dc684af96305f429447cdf1c3397ee2efe06e2f122be518073f48dad8152508160800151602881518110611ba257634e487b7160e01b600052603260045260246000fd5b602002602001018190525060405180604001604052807f03759a0cb87a74851fd23a26b606304d3fffe880d1eaeaab69dcc2f3b466220681526020017f2cc066ed411ad61e57cbc10b8e52c91154b181df880c4cd605491a932bcdd9998152508160800151602981518110611c2757634e487b7160e01b600052603260045260246000fd5b602002602001018190525060405180604001604052807f2355bff9fbaf05ca60db09ac9af01f344ca57f19c3e0d9d234b1f48a4e0c5e3e81526020017f26f11173f5ec67afefef0a32582c31bf9d9b0a8fa66850c73da0c5618235eb598152508160800151602a81518110611cac57634e487b7160e01b600052603260045260246000fd5b602002602001018190525060405180604001604052807f2ec54c84a63ca58669c3e4f4caad9b8ebca8714ca64316475bcc3e8111317c7881526020017f17cd848978c8ab029d6a54ddee655ed3ba111aff239cfcf0356397b84aa226698152508160800151602b81518110611d3157634e487b7160e01b600052603260045260246000fd5b602002602001018190525060405180604001604052807f2e5112e8f2623aa1b146eb236ff7966aab29b33a250dc6d26a256a4962e0cc7981526020017f07c6f9f310f6c0685e29c23f0cb32ca65fc038a45cd8f9f5429107be45f55e5d8152508160800151602c81518110611db657634e487b7160e01b600052603260045260246000fd5b602002602001018190525060405180604001604052807f249b78d82ef52eefec003807b1a9473fb3cebd82b0c57b99a2a89e8d1570558f81526020017f07b93a0d5646f1bf36e31df7d759d0d3b6a2a894b27d233dee03e59679ec1c0e8152508160800151602d81518110611e3b57634e487b7160e01b600052603260045260246000fd5b602002602001018190525060405180604001604052807f1bc28b3c30cffd42744aa60385b50ee9e1b30645229d7019ba544b19fe16ac8881526020017efd87c2d1c73a662188f334e641bccd1c286cf2ed22b643afa644a130ea51f68152508160800151602e81518110611ebf57634e487b7160e01b600052603260045260246000fd5b602002602001018190525060405180604001604052807f127a9d02665028dc5dabc6fe800f30201c8f43d7ca09f5d4ba1b0c153f52509a81526020017f0a7b3f969d87ca00d7f8e7602ecd4185b906eb25a96527f5a4f52a5a26b692d58152508160800151602f81518110611f4457634e487b7160e01b600052603260045260246000fd5b602002602001018190525060405180604001604052807f0c8480f1289cc7bf66a2438961075924333471a4f5864efaf196e5983e9e0a5981526020017f01654a8a2d1feb9244d94a7b0d3b49a05be6336a1e435b7b0222af9d5c1226188152508160800151603081518110611fc957634e487b7160e01b600052603260045260246000fd5b602002602001018190525060405180604001604052807f021e82d8c802b99923356076cfdd0c6f26adf49d755f5b4724e4b46029c7823281526020017f2fc04eef26951e09cb316cf65157ff248da89011ad8bc3976e62bec0a63eac1e815250816080015160318151811061204e57634e487b7160e01b600052603260045260246000fd5b602002602001018190525060405180604001604052807f14074785054fea4198ff0a4bb6753a4bfa86cc33e9d308b9d07a0c578798b60981526020017f11277b3cd02c27aeb2a8b6709aacf38fc63db592735a3cc51c2c9328283c436d81525081608001516032815181106120d357634e487b7160e01b600052603260045260246000fd5b602002602001018190525060405180604001604052807f27cbbefbd05996349f6352e0cce360e9d1bac3e04878c547ed85b9b2f038826b81526020017f146c59444f7de74a8bc9c878e2aa56894611e0ab5a9b1c1a524cabfc1b37a590815250816080015160338151811061215857634e487b7160e01b600052603260045260246000fd5b602002602001018190525060405180604001604052807f1ead409eb539459acbc43f0128ed1d4ae4c9c78d6481914c2261947b3f76063881526020017f07bb6363c5ca4be2da79e347ed7e00bfca42e6096257b13ebeae124cecafd58981525081608001516034815181106121dd57634e487b7160e01b600052603260045260246000fd5b602002602001018190525060405180604001604052807f28c8d0d83234bcd9e79146611c89f03f40fc0dfdaab74d3cb41afba79778d32481526020017f25c16eee152fb7331df3a055bbc65058239513ec828919b4fefc739aa4b359fe815250816080015160358151811061226257634e487b7160e01b600052603260045260246000fd5b602002602001018190525060405180604001604052807f1c6970ba9f813943b2039cdd41357810234eb1269410282ba53693642bc6154f81526020017f293286a60c8ccd40d6b790cf618593cf7a12abd45f782a056124ce135365352d81525081608001516036815181106122e757634e487b7160e01b600052603260045260246000fd5b602002602001018190525060405180604001604052807f2679c7e6f429ac4def72005185ae7e559847ce8acca24f476e13ebb913fdb0fa81526020017f13d1980cf45cd98e5fa78ad1573b0b8111a96e2ca06d742b63c1ff5cd7a0a7ba815250816080015160378151811061236c57634e487b7160e01b600052603260045260246000fd5b602002602001018190525060405180604001604052807f27f70ca3ed1334113cf29ea1447fc42606b658a27cdd41389f8af0d4c480376781526020017f0880f27d16622bdc2784ae6014223ee1c3119d1656a7ed09fb3e5cf414c9476c81525081608001516038815181106123f157634e487b7160e01b600052603260045260246000fd5b602002602001018190525060405180604001604052807e2bdfcce7743b73a59f72c06e93418009acb8711953ff5ac0eb2efbc674a85081526020017f0dc8548e5c6f0495c8414d1d48544924cca5a9476e353bc27bb7ae74bfbe8ab3815250816080015160398151811061247557634e487b7160e01b600052603260045260246000fd5b602002602001018190525060405180604001604052807f2b71b482d41366ab3f225676917b7d72f6f955a885cf6c636acedebb04a3e76981526020017f18358ab9e4b3f9ccd9991b8b1ccb44508a67841fc49893bed5092d2c71a548d98152508160800151603a815181106124fa57634e487b7160e01b600052603260045260246000fd5b602002602001018190525060405180604001604052807f090ac55dabf092057045c69394b406080a4150ea3202c6aa6187486043385a9181526020017f246b393ca3d7c98eed2aead1e77f4a57238411ddb4dcf181bf65f9d6bb46684e8152508160800151603b8151811061257f57634e487b7160e01b600052603260045260246000fd5b602002602001018190525060405180604001604052807f07e03f4cb0bdaec7dda2902882c3c19ab5a3bc7c8f389d083a1e6e2f28665e4a81526020017f0140755bc41a363b8aae2f8adf083dae6e1c2980978ef722da4fd62d788fa05f8152508160800151603c8151811061260457634e487b7160e01b600052603260045260246000fd5b602002602001018190525060405180604001604052807f11673f94081dac3615769f040a3fe39ca3f42e816bdf7a723bd3f07e591ebabe81526020017f077dc245efaf6bb53a3228c19135829590f621114959c81a230cb53071a147098152508160800151603d8151811061268957634e487b7160e01b600052603260045260246000fd5b602002602001018190525060405180604001604052807f0fdc44822a5f65f24167cbec084d1e0eadd4d2d1f8cbe2ecdc3abd4db14cd61681526020017f195281c2d73a75a5a4cfff556410c94cfb9d882c8940d2d7390dda2eccce4bcd8152508160800151603e8151811061270e57634e487b7160e01b600052603260045260246000fd5b602002602001018190525060405180604001604052807f11c0d6f76f5b5233ae9b8434712a9ff10ef43e1d9698c2048373b5b08141cf1781526020017f2fff92d4c2b15f2ab5e7ba0c7d7a33701559a2b23a2e92aeb570bf81ca9633708152508160800151603f8151811061279357634e487b7160e01b600052603260045260246000fd5b602002602001018190525060405180604001604052807f16aa7cdebdbe518b63923be2c80d9d45f9a2136335ee0b105243e22a9126de6481526020017f05202c9b8cc03a55446839bb4a7c8e03387f8c0085b1d0a66120a372b3bbad1b815250816080015160408151811061281857634e487b7160e01b600052603260045260246000fd5b602002602001018190525060405180604001604052807f12887ef733db64f581d0ff13cd51fcd2174ba3eddd8b8f68677ea076b1b95b5781526020017f2ca654aa619c4b044e5aa70c2b646f494659832a08394764190efa4a78d4d216815250816080015160418151811061289d57634e487b7160e01b600052603260045260246000fd5b602002602001018190525060405180604001604052807f0789e9b0d1b0035614c9036502c03de9e8a4839976300a573824c7151cc717cd81526020017f0e71b2f84dfad369636fa09a26d30657c025e27494b45ef913031665152c9df8815250816080015160428151811061292257634e487b7160e01b600052603260045260246000fd5b602002602001018190525060405180604001604052807f2bff35fdca394d3f211b639f2d5da0f236d181e91e6204a8aed3a9284640780681526020017f0fb8ccf691b5a5a542dab2f347adb42eaff4153c4711914bf2ad629ecc541dd681525081608001516043815181106129a757634e487b7160e01b600052603260045260246000fd5b602002602001018190525060405180604001604052807f2f072f31f58e1f0842f7a03c6d4be70c9e5cb72d299cb21cb29fc15c03a293e381526020017f05f1ab341dce161e9ce3076305c1a4e208ddd8b1aea5db06f840a224383411788152508160800151604481518110612a2c57634e487b7160e01b600052603260045260246000fd5b602002602001018190525060405180604001604052807f0d03af378dd4989e47b57187862a1be725f838a204f93c09a301389deceb17e281526020017f0dfc7908ef62c8e011892d527be1e123f675e45e52c8c92038c316c0b442213a8152508160800151604581518110612ab157634e487b7160e01b600052603260045260246000fd5b602002602001018190525060405180604001604052807f1d06b21860e1d6d452e8603223372ae88e70e9672a3e654a27dd176d56a211a381526020017f28c71ed5113caed96ef099ceb5c4b5c28e357423f4215bb9cfd643e7d99489958152508160800151604681518110612b3657634e487b7160e01b600052603260045260246000fd5b602002602001018190525060405180604001604052807f18ece9e05eec96c4e88ea89f184057130e94f1ae9a4a0273175292351f3a080481526020017f1e202f7ff0361c86e8c17b5a3b7d820ff5195d5ce2fdfe981a6a8bd54f654d1c8152508160800151604781518110612bbb57634e487b7160e01b600052603260045260246000fd5b602002602001018190525060405180604001604052807f2ec1eb0788cb596b40b0f87d2bec5e4313f184f4a19bf1159fd6eb90c8e0f30381526020017f2fff2f89cf20ed786408f1097abf8738070a9777bc83e4bad5404b675e4fc0f68152508160800151604881518110612c4057634e487b7160e01b600052603260045260246000fd5b602002602001018190525060405180604001604052807f0f7b5cdbf70750cee22e1db8397c08466ab555376335f844208aad58596407b981526020017f0d6961a80a874b29ff45a4243af47937351f0ef60075bd6a82b9b69ea251ee4b8152508160800151604981518110612cc557634e487b7160e01b600052603260045260246000fd5b602002602001018190525060405180604001604052807f1aae8a628ec6958f1d37a6f49b619878e858c0ca6a17077943f6a23ab076157181526020017f1fd26de3aa935c84072c7932dfc0f872a53fd8799f67df5e8164836b7bd0f7a58152508160800151604a81518110612d4a57634e487b7160e01b600052603260045260246000fd5b602002602001018190525060405180604001604052807f096eb9d466a46d79d29b1a437a0c872b6eb9031aff56ed28177798a6280c120481526020017f06d8b407e63722d83c0775fa23c3c5db84f7c03eb865cab16018baeaca4b20958152508160800151604b81518110612dcf57634e487b7160e01b600052603260045260246000fd5b602002602001018190525060405180604001604052807f2ea71269d064ac6ffe7f2512f18d088f43e94a9c3a933c4bcdc865ebc532ec2181526020017f0bc5701bc8677516b58dd479e116159e268baa029928e94ba8cb0db4b75dfeb48152508160800151604c81518110612e5457634e487b7160e01b600052603260045260246000fd5b602002602001018190525060405180604001604052807f29a8d8ca6bf69de8b304dc4f5352bf5da20e9796e54a7aa25ee2a4a13aa65f3481526020017f0a55b2b12bb6cbbfc4d408e9a84c3c0547db523ab29824c2ec8844524e0fa1938152508160800151604d81518110612ed957634e487b7160e01b600052603260045260246000fd5b602002602001018190525060405180604001604052807f1abe7af829204e220c51269ba698fc80c86835cf00a021971aed4ce5f669542a81526020017f2df89ad362d63435ee01050429e48fd8c1370dd9df44021466cad491f1cfd2448152508160800151604e81518110612f5e57634e487b7160e01b600052603260045260246000fd5b602002602001018190525060405180604001604052807f10ae117073dc0519435428a073da07f94fb3b43d270674558d25af4d8952253481526020017f19fdaaf6efa2d389fbb570533a13e9bb6c0fdf972320481a40ecfce5793ec35a8152508160800151604f81518110612fe357634e487b7160e01b600052603260045260246000fd5b602002602001018190525060405180604001604052807f2802f479af286e2d9cea10cc1471c159b2935cbbada93d9e257bc92c086048a481526020017f041ab547b5a17f33cac3b08e11dc15d2ba6977d4423c21bbc3672371f88acc43815250816080015160508151811061306857634e487b7160e01b600052603260045260246000fd5b602002602001018190525060405180604001604052807f15467abae0d138984c0e2b31181563c6b0a94bf9a16355023001025f481b523f81526020017f2a6ef72847ceb28d418a439c799c618cf3d307c0899f2e6dc03a7574fe6711d081525081608001516051815181106130ed57634e487b7160e01b600052603260045260246000fd5b602002602001018190525090565b6040805180820190915260008082526020820152613117613994565b835181526020808501519082015260408101839052600060608360808460076107d05a03fa905080801561314a5761314c565bfe5b508061318f5760405162461bcd60e51b81526020600482015260126024820152711c185a5c9a5b99cb5b5d5b0b59985a5b195960721b6044820152606401610208565b505092915050565b60408051808201909152600080825260208201526131b36139b2565b8351815260208085015181830152835160408301528301516060808301919091526000908360c08460066107d05a03fa905080801561314a57508061318f5760405162461bcd60e51b81526020600482015260126024820152711c185a5c9a5b99cb5859190b59985a5b195960721b6044820152606401610208565b604080518082019091526000808252602082015281517f30644e72e131a029b85045b68181585d97816a916871ca8d3c208c16d87cfd479015801561327657506020830151155b156132965750506040805180820190915260008082526020820152919050565b6040518060400160405280846000015181526020018285602001516132bb9190613c3d565b6132c59084613c0b565b90529392505050565b60408051600480825260a08201909252600091829190816020015b60408051808201909152600080825260208201528152602001906001900390816132e957505060408051600480825260a0820190925291925060009190602082015b6133336139d0565b81526020019060019003908161332b5790505090508a8260008151811061336a57634e487b7160e01b600052603260045260246000fd5b6020026020010181905250888260018151811061339757634e487b7160e01b600052603260045260246000fd5b602002602001018190525086826002815181106133c457634e487b7160e01b600052603260045260246000fd5b602002602001018190525084826003815181106133f157634e487b7160e01b600052603260045260246000fd5b6020026020010181905250898160008151811061341e57634e487b7160e01b600052603260045260246000fd5b6020026020010181905250878160018151811061344b57634e487b7160e01b600052603260045260246000fd5b6020026020010181905250858160028151811061347857634e487b7160e01b600052603260045260246000fd5b602002602001018190525083816003815181106134a557634e487b7160e01b600052603260045260246000fd5b60200260200101819052506134ba82826134c9565b9b9a5050505050505050505050565b600081518351146135155760405162461bcd60e51b81526020600482015260166024820152751c185a5c9a5b99cb5b195b99dd1a1ccb59985a5b195960521b6044820152606401610208565b82516000613524826006613bec565b905060008167ffffffffffffffff81111561354f57634e487b7160e01b600052604160045260246000fd5b604051908082528060200260200182016040528015613578578160200160208202803683370190505b50905060005b83811015613877578681815181106135a657634e487b7160e01b600052603260045260246000fd5b602002602001015160000151828260066135c09190613bec565b6135cb906000613bd4565b815181106135e957634e487b7160e01b600052603260045260246000fd5b60200260200101818152505086818151811061361557634e487b7160e01b600052603260045260246000fd5b6020026020010151602001518282600661362f9190613bec565b61363a906001613bd4565b8151811061365857634e487b7160e01b600052603260045260246000fd5b60200260200101818152505085818151811061368457634e487b7160e01b600052603260045260246000fd5b602090810291909101015151518261369d836006613bec565b6136a8906002613bd4565b815181106136c657634e487b7160e01b600052603260045260246000fd5b6020026020010181815250508581815181106136f257634e487b7160e01b600052603260045260246000fd5b6020908102919091018101515101518261370d836006613bec565b613718906003613bd4565b8151811061373657634e487b7160e01b600052603260045260246000fd5b60200260200101818152505085818151811061376257634e487b7160e01b600052603260045260246000fd5b60200260200101516020015160006002811061378e57634e487b7160e01b600052603260045260246000fd5b60200201518261379f836006613bec565b6137aa906004613bd4565b815181106137c857634e487b7160e01b600052603260045260246000fd5b6020026020010181815250508581815181106137f457634e487b7160e01b600052603260045260246000fd5b60200260200101516020015160016002811061382057634e487b7160e01b600052603260045260246000fd5b602002015182613831836006613bec565b61383c906005613bd4565b8151811061385a57634e487b7160e01b600052603260045260246000fd5b60209081029190910101528061386f81613c22565b91505061357e565b506138806139f0565b6000602082602086026020860160086107d05a03fa905080801561314a5750806138e45760405162461bcd60e51b81526020600482015260156024820152741c185a5c9a5b99cb5bdc18dbd9194b59985a5b1959605a1b6044820152606401610208565b505115159695505050505050565b6040805160a08101909152600060608201818152608083019190915281526020810161391c6139d0565b815260200161393e604051806040016040528060008152602001600081525090565b905290565b6040805160e08101909152600060a0820181815260c083019190915281526020810161396d6139d0565b815260200161397a6139d0565b81526020016139876139d0565b8152602001606081525090565b60405180606001604052806003906020820280368337509192915050565b60405180608001604052806004906020820280368337509192915050565b60405180604001604052806139e3613a0e565b815260200161393e613a0e565b60405180602001604052806001906020820280368337509192915050565b60405180604001604052806002906020820280368337509192915050565b600082601f830112613a3c578081fd5b613a44613b6b565b808385604086011115613a55578384fd5b835b6002811015613a76578135845260209384019390910190600101613a57565b509095945050505050565b600080600080610b20808688031215613a98578485fd5b613aa28787613a2c565b9450604087605f880112613ab4578485fd5b613abc613b6b565b8082890160c08a018b811115613ad0578889fd5b885b6002811015613af957613ae58d84613a2c565b855260209094019391850191600101613ad2565b50829850613b078c82613a2c565b975050505050508661011f870112613b1d578182fd5b613b25613ba2565b80610100880189848a011115613b39578485fd5b8493505b6051841015613b5d57803583526001939093019260209283019201613b3d565b509598949750929550505050565b6040805190810167ffffffffffffffff81118282101715613b9c57634e487b7160e01b600052604160045260246000fd5b60405290565b604051610a20810167ffffffffffffffff81118282101715613b9c57634e487b7160e01b600052604160045260246000fd5b60008219821115613be757613be7613c5d565b500190565b6000816000190483118215151615613c0657613c06613c5d565b500290565b600082821015613c1d57613c1d613c5d565b500390565b6000600019821415613c3657613c36613c5d565b5060010190565b600082613c5857634e487b7160e01b81526012600452602481fd5b500690565b634e487b7160e01b600052601160045260246000fdfea26469706673582212201f2cd058913a901508f50924f2c373a16e675c051634527f68ef559155853af064736f6c63430008040033",
  "linkReferences": {},
  "deployedLinkReferences": {}
}